:020000040800F2
:10000000005000205D010008A1010008A1010008C6
:10001000A1010008A1010008A101000800000000E2
:10002000000000000000000000000000A101000826
:10003000A101000800000000A10100087D1E0008C9
:10004000A1010008A1010008A1010008A101000808
:10005000A1010008A1010008A1010008A1010008F8
:10006000A1010008A1010008A1010008A1010008E8
:10007000A1010008A1010008A1010008A1010008D8
:10008000A1010008A1010008A1010008A1010008C8
:10009000A1010008A1010008A1010008A1010008B8
:1000A000A1010008A1010008A1010008A1010008A8
:1000B000A1010008A1010008A1010008A101000898
:1000C000A1010008A1010008A1010008A101000888
:1000D000A10100086D230008A1010008A10100088A
:1000E000A1010008A1010008A10100080000000012
:1000F0000000000000000000000000000000000000
:0C01000000000000000000005FF808F1A3
:10010C0010B5054C237833B9044B13B10448AFF345
:10011C0000800123237010BD280000200000000087
:10012C008048000808B5034B1BB103490348AFF3E3
:10013C00008008BD000000002C0000208048000852
:10014C00034613F8012B002AFBD1181A013870470B
:10015C00002103E00A4B5B584350043109480A4B19
:10016C0042189A42F6D3094A02E0002342F8043BB3
:10017C00074B9A42F9D301F0F9FD02F02DF97047C3
:10018C009C570008000000202800002028000020B8
:10019C0038020020FEE70000134A00EB400070B468
:1001AC00124932F8305002EBC0030D805C889888FD
:1001BC000F4A104914800880DD889C890E4A0F492B
:1001CC0015800C80D8891E8A0D4A0E495D8A1080D4
:1001DC000E800D4C988ADA8A0C490D4B25800880CC
:1001EC001A8070BC704700BFB8560008540000203D
:1001FC005E00002060000020620000205000002003
:10020C0052000020580000205C0000205600002006
:10021C005A00002038B502250823294604240A4A2E
:10022C0010F0800F03F1FF3351614FEA400014BF0F
:10023C001461546113F0FF03C0B21161F0D104F0EA
:10024C0025FB556138BD00BF0008014038B50423BB
:10025C000125084C02222361656104F017FB226121
:10026C0004F014FB6261FFF7D5FF04F00FFB25616E
:10027C0038BD00BF0008014038B504230125084CE7
:10028C0002226361656104F001FB226104F0FEFA55
:10029C006261FFF7BFFF04F0F9FA256138BD00BFBA
:1002AC0000080140024A10601368002BFCD1704713
:1002BC006800002010B50824054964204C61FFF744
:1002CC00F1FF0C61C820BDE81040FFF7EBBF00BF89
:1002DC0000080140054B1A46988113891906FCD475
:1002EC001389DB07F9D59089C0B270470030014003
:1002FC0038B51025044CC0206561FFF7EBFF0020DA
:10030C00FFF7E8FF256138BD0008014038B510251E
:10031C00044C40206561FFF7DDFF0020FFF7DAFF9A
:10032C00256138BD0008014070B510260446064D05
:10033C0080206E61FFF7CEFF2046FFF7CBFF2E61CA
:10034C00BDE8704004F0A2BA0008014070B5102658
:10035C000446064D00206E61FFF7BCFF2046FFF7F8
:10036C00B9FF2E61BDE8704004F090BA000801405E
:10037C0008B52020FFF7EAFF0020FFF7D5FF21206A
:10038C00FFF7E4FF0020FFF7CFFF2220FFF7DEFF8F
:10039C000020FFF7C9FF2320FFF7D8FFBDE8084076
:1003AC000020FFF7C1BF00BF08B52420FFF7CEFF28
:1003BC004020FFF7B9FF2520FFF7C8FFBDE8084034
:1003CC000120FFF7B1BF00BF08B52620FFF7BEFF25
:1003DC000020FFF7A9FF2720FFF7B8FF0020FFF749
:1003EC00A3FF2820FFF7B2FF0020FFF79DFF292075
:1003FC00FFF7ACFFBDE808400020FFF795BF00BF3A
:10040C0008B55020FFF7A2FF0020FFF78DFF512009
:10041C00FFF79CFF0020FFF787FF5220FFF796FFA6
:10042C000020FFF781FF5320FFF790FFBDE8084045
:10043C000020FFF779BF00BF08B55420FFF786FFF7
:10044C004020FFF771FF5520FFF780FFBDE8084003
:10045C000120FFF769BF00BF08B55620FFF776FFF4
:10046C000020FFF761FF5720FFF770FF0020FFF718
:10047C005BFF5820FFF76AFF0020FFF755FF59205C
:10048C00FFF764FFBDE808400020FFF74DBF00BF39
:10049C0008B55A20FFF75AFF4020FFF745FF5B20B5
:1004AC00FFF754FF0120FFF73FFF5C20FFF74EFFE3
:1004BC00C020FFF739FF5D20FFF748FFBDE808407B
:1004CC000320FFF731BF00BF08B50320FFF73EFF45
:1004DC00FFF70EFFBDE8084040F00400C0B2FFF784
:1004EC0023BF00BF10B50446DB20FFF72FFFE0B29F
:1004FC00FFF71AFFDC20FFF729FFC4F30720FFF7F3
:10050C0013FFDD20FFF722FFC4F30740FFF70CFFBA
:10051C00DE20FFF71BFFBDE810400020FFF704BFF3
:10052C0008B5CD20FFF712FFFFF7E2FEBDE808404B
:10053C0040F01000C0B2FFF7F7BE00BF08B5CC20EA
:10054C00FFF704FFFFF7D4FEBDE8084000F0EF0012
:10055C0040F02000FFF7E8BE08B5CC20FFF7F6FE10
:10056C00FFF7C6FEBDE8084000F03F00FFF7DCBE19
:10057C0008B5CC20FFF7EAFEFFF7BAFEBDE808404D
:10058C0000F0BF0040F08000FFF7CEBE10B504466F
:10059C00BC20FFF7DBFE0020FFF7C6FEBD20FFF7F7
:1005AC00D5FEC4F30720FFF7BFFEBE20FFF7CEFE3B
:1005BC00C4F30740FFF7B8FEBF20FFF7C7FEBDE846
:1005CC0010400020FFF7B0BE08B5B720FFF7BEFE05
:1005DC00FFF78EFEBDE8084040F04000C0B2FFF7C8
:1005EC00A3BE00BF08B5B720FFF7B0FEFFF780FE33
:1005FC00BDE8084060F07F00C0B2FFF795BE00BFB9
:10060C00B62008B5FFF7A2FEFFF772FEC307FBD4B6
:10061C0008BD00BF08B5B620FFF798FEFFF768FECF
:10062C00BDE8084040F00100C0B2FFF77DBE00BF3E
:10063C00762008B5FFF78AFEE020FFF775FEFFF77E
:10064C0065FE0307FBD408BD38B504460D466C2087
:10065C00FFF77CFEE0B2FFF767FE6D20FFF776FE3A
:10066C00200AFFF761FE6E20FFF770FEE8B2FFF77D
:10067C005BFE6F20FFF76AFEBDE838400320FFF7F2
:10068C0053BE00BF38B505460C466820FFF75EFE2A
:10069C00E8B2FFF749FE6920FFF758FE280AFFF77A
:1006AC0043FE6A20FFF752FEE0B2FFF73DFE6B20DF
:1006BC00FFF74CFE200ABDE83840FFF735BE00BFFF
:1006CC00672008B5FFF742FE8020FFF72DFEFFF7ED
:1006DC001DFE0307FBD408BD38B505460C46632048
:1006EC00FFF734FEE8B2FFF71FFE6420FFF72EFE83
:1006FC00280AFFF719FE6520FFF728FEE0B2FFF786
:10070C0013FE6620FFF722FE200ABDE83840FFF7F3
:10071C000BBE00BF08B50120FFF718FEFFF7E8FD80
:10072C00BDE8084040F00200C0B2FFF7FDBD00BFBD
:10073C0010B50446D520FFF709FE200AFFF7F4FD9B
:10074C00D620FFF703FEC4F3C700FFF7EDFDD7205B
:10075C00FFF7FCFDE00000F0F800BDE81040FFF7EB
:10076C00E3BD00BF10B50446D220FFF7EFFD200A11
:10077C00FFF7DAFDD320FFF7E9FDC4F3C700FFF75D
:10078C00D3FDD420FFF7E2FDE00000F0F800BDE857
:10079C001040FFF7C9BD00BF08B51020FFF7D6FD0C
:1007AC00FFF7A6FDBDE8084000F0F70040F004009C
:1007BC00FFF7BABD08B5FFF7EFFFFFF7D9FDFFF75D
:1007CC00F3FDFFF701FEFFF71BFEFFF735FEFFF70A
:1007DC0043FEFFF75DFE164B1B78012B14D0154B17
:1007EC001888FFF7BFFF00210846FFF74BFF4FF4B7
:1007FC0070714FF4A070FFF727FFFFF719FFFFF799
:10080C0085FD0307FBD408BD0020FFF7ABFF0021DB
:10081C000846FFF737FF4FF470714FF4A070FFF7E5
:10082C0013FFFFF705FFFFF771FD0207FBD408BDAF
:10083C00180000205400002008B5FFF7BBFF114B37
:10084C001888FFF775FF104B1888FFF78BFF0021F6
:10085C003C20FFF717FF40F2BF313C20FFF7F4FEBE
:10086C00FFF72EFF00214FF48470FFF70BFF40F2CF
:10087C00BF314FF48470FFF7E7FEBDE80840FFF787
:10088C001FBF00BF540000205000002008B55E20A0
:10089C00FFF75CFDFFF72CFDBDE8084000F0FB0006
:1008AC00FFF742BD08B50320FFF750FDFFF720FD11
:1008BC00BDE8084000F0FB00FFF736BD2DE9F04F16
:1008CC001C464FF0000B89B00292BDF84820CDE9D0
:1008DC00053004910792FFF7F7FDFFF749FE20461C
:1008EC00CDF80CB0FFF73EFF039C600300F59D10A4
:1008FC0000F5E860FFF7F6FD069D5FFA84F82B78AB
:10090C001BB34FF0000A5646544657464FEA980917
:10091C0008F0F2024FEA491909F16809019208F04E
:10092C0003085FB3FA1C944228D1072C26D8019BEC
:10093C00002B00F0A880FFF7E9FC0106FBD44FF078
:10094C00010A00272B78002BEBD1039B0598013370
:10095C001C460393FFF706FF102CC5D140F2BE33A3
:10096C009B4540F2C480FFF7D1FC0307FBD4FFF793
:10097C00F3FD09B0BDE8F04FFFF794BF2E2B48D024
:10098C003A2B47D0029B4BB1049B04EB060B9B45C7
:10099C0080F2A980029B9B4580F2A18006EB0A0B9A
:1009AC000BEB440B08EB4B0B4FEA0B1B0BF1380B0F
:1009BC001FFA8BFBFFF7AAFC0206FBD459464846EC
:1009CC00FFF78AFEFFF7A2FC0306FBD40420FFF717
:1009DC00BDFCFFF79BFC0006FBD40020FFF7A4FC3A
:1009EC00FFF794FC0106FBD428781038C0B2FFF74F
:1009FC009BFCFFF78BFC0206FBD40134E4B2FFF73F
:100A0C0085FC0306FBD40135FFF780FC0206FBD402
:100A1C0098E72746019B33B10136F6B2FFF776FC17
:100A2C000106FBD4EFE706EB0A0B0BEB440B08EBD0
:100A3C004B0B4FEA0B1B0BF1380B1FFA8BFBFFF721
:100A4C0065FC0006FBD459464846FFF745FEFFF708
:100A5C005DFC0106FBD40420FFF778FCFFF756FC85
:100A6C000206FBD40020FFF75FFCFFF74FFC0306E8
:100A7C00FBD428781038C0B2FFF756FCFFF746FCC1
:100A8C000006FBD4C8E706EB440B08EB4B0B4FEA14
:100A9C000B1B0BF1380B1FFA8BFBFFF737FC010616
:100AAC00FBD459464846FFF717FEFFF72FFC02060A
:100ABC00FBD40420FFF74AFCFFF728FC0306FBD409
:100ACC000020FFF731FCFFF721FC0706FBD41020B8
:100ADC00FFF72AFCFFF71AFC0006FBD42BE705985E
:100AEC00FFF740FE5AE70798FFF73CFE52E7094B29
:100AFC001888FFF737FE0BF11001682089B2FFF759
:100B0C00C1FD40F2BF31E820FFF79EFDFFF790FDDD
:100B1C0029E700BF5400002010B50446FFF7D4FCB1
:100B2C00FFF726FD2046FFF71DFE4FF4E110FFF7FF
:100B3C00D9FCFFF7EBFB0406FBD40420FFF706FC03
:100B4C00FFF7E4FB0006FBD40020FFF7EDFBFFF7FB
:100B5C00DDFB0106FBD40020FFF7E6FBFFF7D6FB1D
:100B6C000206FBD4FFF7D2FB0307FBD4FFF7F4FC20
:100B7C00BDE81040FFF796BE10B50446FFF7A4FC85
:100B8C000420FFF7E3FB207848B1FFF7CDFBFFF71C
:100B9C00BDFB0206FBD414F8010F0028F5D1FFF7BA
:100BAC00B5FB0307FBD4BDE81040FFF77BBE00BFCD
:100BBC0070B5834B1C882046FFF7D4FD1021E42030
:100BCC00FFF78AFD7F48FFF7D7FF7F4B1B88012B70
:100BDC0038D0022B28D0042B34D0082B59D0102B12
:100BEC0000F0B280202B00F0A180402B00F09E8002
:100BFC00802B00F0B580B3F5807F00F0C980B3F591
:100C0C00007F23D1714B1D78022D00F0CE80032D77
:100C1C0000F0D380042D19D16D48FFF7ADFF2046AD
:100C2C00FFF77AFF6B485FE0684B1B78022B4CD0C8
:100C3C00032B00F09280042B00F09F80052B05D134
:100C4C00654851E0614B1B78042B4CD0634B644AD4
:100C5C001B8815789C070DD56248FFF78DFF45B1B1
:100C6C0000245C4E30460134FFF786FFE3B2AB4202
:100C7C00F8D370BD5C48FFF77FFF002DF9D000243E
:100C8C00544E30460134FFF777FFE3B2AB42F8D352
:100C9C0070BD4E4B1B78022B17D0032B5DD0042B51
:100CAC006BD0052BD2D15148FFF766FF01214B4B7E
:100CBC004B4A1B881170980761D54A48FFF75CFFB7
:100CCC00BDE870404348FFF757BF03254848FFF77E
:100CDC0053FF424B424A1B8815709B0722D5414853
:100CEC00FFF74AFFBCE74348FFF746FF00213B4BA9
:100CFC003B4A1B8811709A0721D5BDE870403948D2
:100D0C00FFF73ABF3C48FFF737FF2046FFF704FFD9
:100D1C003048FFF731FF0221304B314A1B881170EC
:100D2C009907DCD43048FFF727FFA8E7274B1B783F
:100D3C00022B28D0032B89D103253048C7E72A483A
:100D4C00BDE87040FFF718BF204B1B78032B1DD05C
:100D5C00042B7FF47BAF2A48C6E702252948B6E767
:100D6C001A4B1B78042B7FF471AF2748FFF704FF55
:100D7C002046FFF7D1FE174896E7244894E71A4817
:100D8C00FFF7FAFE9CE703252148A0E721488BE7F3
:100D9C000E4B1D78022DB5D0032D04D0042D7FF4FD
:100DAC0055AF1D4839E71D48E0E71D48FFF7E4FE45
:100DBC002046FFF7B1FE074889E71A48D6E700BF7F
:100DCC0050000020A44800089C0000206E00002069
:100DDC001C490008C8550008C84800082202002019
:100DEC006F000020D8480008E0480008D0480008F0
:100DFC00B4480008AC48000804490008FC48000846
:100E0C00F0480008B848000800490008C04800082D
:100E1C00F8480008E84800080C4900080849000890
:100E2C0014490008184900082DE9F84F0C46564B98
:100E3C0056491B7805461646DFF888910C80002B26
:100E4C0040F08580DFF88081DFF880A1504B1B7863
:100E5C00002B74D0B9F800309BB2AB423BD04D4B59
:100E6C001F882B06384600F1CA81FFF77BFC4FF434
:100E7C002C714220FFF730FC4748FFF77DFEA90696
:100E8C00384640F1CA81FFF76DFC4FF410714220D7
:100E9C00FFF722FC4148FFF76FFEEA0500F1CA811B
:100EAC00AB0500F19583680500F1AC836906384603
:100EBC0040F1CF81FFF756FC4FF43471E420FFF77B
:100ECC000BFC3748FFF758FE15F4006300F0CF8198
:100EDC000122344B1A70B8F800309BB2A3422ED0CA
:100EEC0014F4806300F0CC8101222F4B1A70294B33
:100EFC00A2061F88384640F1CB81FFF733FC4FF434
:100F0C00C8714220FFF7E8FB2848FFF735FE284B55
:100F1C001B88002B40F0CB81264B1B78052B00F255
:100F2C003B83E307384640F1C881FFF71BFCE42004
:100F3C004FF40871FFF7D0FB1F48FFF71DFEA9F80F
:100F4C000050A8F80040AAF80060BDE8F88FB9F886
:100F5C0000309BB2834257D0184BEA07188800F137
:100F6C001183AB0734D46F0700F15883290740F184
:100F7C003B83FFF7F7FB10211820FFF7ADFB104860
:100F8C00FFF7FAFD2DE000BFC70000202202002071
:100F9C00C600002050000020A84A00083C4A000867
:100FAC00684A0008C2000020C1000020704A0008F6
:100FBC009C0000207A000020C44A00085800002041
:100FCC00544900082E02002030020020320200207A
:100FDC00FFF7C8FB18201021FFF77EFBC048FFF776
:100FEC00CBFDC04B15F01007188800F0A082FFF75E
:100FFC00B9FB10214FF48770FFF76EFBBA48FFF76F
:10100C00BBFD0122B94B1A70DFF85483B8F80030DD
:10101C009BB2A34242D0B64BE2061F88384600F181
:10102C009B82230700F1A081FFF79CFB18204FF453
:10103C00D871FFF751FBAF48FFF79EFD14F4006A1F
:10104C00384600F0A081FFF78DFB4FF42471182077
:10105C00FFF742FBA848FFF78FFD0122A74B610762
:10106C001A70A74B188840F1A081FFF77BFB4FF457
:10107C0058711820FFF730FBA248FFF77DFD620680
:10108C00384640F1A081FFF76DFB4FF487704FF4A9
:10109C005871FFF721FB9C48FFF76EFDDFF8C4A2E7
:1010AC00BAF800309BB2B3423FF4D0AE974B1F88D6
:1010BC00F307384600F15B82B10700F19881FFF726
:1010CC0051FB4FF487707021FFF706FB9048FFF738
:1010DC0053FD7207384640F19881FFF743FBC0215E
:1010EC004FF48770FFF7F8FA8A48FFF745FD33078E
:1010FC00384640F19881FFF735FB4FF480714FF47F
:10110C008770FFF7E9FA8448FFF736FDF106384699
:10111C0040F19881FFF726FB4FF4A0714FF48770D4
:10112C00FFF7DAFA7D48FFF727FDB206384640F1A3
:10113C009881FFF717FB4FF4C0714FF48770FFF7DE
:10114C00CBFA7748FFF718FD7306384640F19881C3
:10115C00FFF708FB4FF4E0714FF48770FFF7BCFA10
:10116C007048FFF709FD3106384640F19881FFF7CA
:10117C00F9FA4FF400714FF48770FFF7ADFA6A4833
:10118C00FFF7FAFCF205384640F19881FFF7EAFACE
:10119C004FF410714FF48770FFF79EFA6348FFF716
:1011AC00EBFCB305384640F19881FFF7DBFA4FF4BE
:1011BC0020714FF48770FFF78FFA5D48FFF7DCFC66
:1011CC007105384640F19881FFF7CCFA4FF4307135
:1011DC004FF48770FFF780FA5648FFF7CDFC3205C5
:1011EC00384640F19881FFF7BDFA4FF440714FF447
:1011FC008770FFF771FA5048FFF7BEFC26E6FFF741
:10120C00B1FA4FF42C714220FFF766FA4B48FFF706
:10121C00B3FCA90638463FF536AEFFF7A3FA4FF4F8
:10122C0010714220FFF758FA3948FFF7A5FCEA0580
:10123C007FF536AE3846FFF795FA4FF4A871E420E7
:10124C00FFF74AFA3E48FFF797FC690638463FF528
:10125C0031AEFFF787FA4FF43471E420FFF73CFA14
:10126C003848FFF789FC15F400637FF431AE364A39
:10127C001370B8F800309BB2A3427FF431AE5EE637
:10128C00324A1370324BA2061F8838463FF535AEF2
:10129C00FFF768FA4FF4C8714220FFF71DFA2D488A
:1012AC00FFF76AFC2C4B1B88002B3FF435AEFFF785
:1012BC007FFCE30738463FF538AEFFF753FA4FF49F
:1012CC000871E420FFF708FA2448FFF755FCA9F849
:1012DC000050A8F80040AAF80060BDE8F88F00BFE5
:1012EC00344900085C00002074490008C500002047
:1012FC00580000209C490008AC4900089A000020C6
:10130C0056000020C4490008CC4900085A000020AF
:10131C00804A0008E4490008EC490008F449000838
:10132C00FC490008044A00080C4A0008144A00084A
:10133C001C4A0008244A00082C4A0008344A0008B9
:10134C00444A0008A4490008C2000020C100002043
:10135C00500000207C4A00089C000020D04A000865
:10136C003002002032020020FFF7FCF94FF4D87154
:10137C001820FFF7B1F9B048FFF7FEFB14F4006A30
:10138C0038467FF460AEFFF7EDF94FF42471182066
:10139C00FFF7A2F9A948FFF7EFFBA94B610783F808
:1013AC0000A0A84B18883FF560AEFFF7DBF94FF4AF
:1013BC0058711820FFF790F9A348FFF7DDFB620680
:1013CC0038463FF560AEFFF7CDF9DFF8BCA24FF41D
:1013DC0058714FF48770FFF77FF99C48FFF7CCFBEF
:1013EC00BAF800309BB2B3427FF460AE2EE5FFF743
:1013FC00B9F970214FF48770FFF76EF99448FFF735
:10140C00BBFB720738463FF568AEFFF7ABF9C0215E
:10141C004FF48770FFF760F98E48FFF7ADFB330789
:10142C0038463FF568AEFFF79DF94FF480714FF4E5
:10143C008770FFF751F98748FFF79EFBF106384696
:10144C003FF568AEFFF78EF94FF4A0714FF487703B
:10145C00FFF742F97F48FFF78FFBB20638463FF59E
:10146C0068AEFFF77FF94FF4C0714FF48770FFF748
:10147C0033F97848FFF780FB730638463FF568AEC2
:10148C00FFF770F94FF4E0714FF48770FFF724F910
:10149C007048FFF771FB310638463FF568AEFFF731
:1014AC0061F94FF400714FF48770FFF715F9694833
:1014BC00FFF762FBF20538463FF568AEFFF752F9CD
:1014CC004FF410714FF48770FFF706F96148FFF77E
:1014DC0053FBB30538463FF568AEFFF743F94FF4BD
:1014EC0020714FF48770FFF7F7F85A48FFF744FB69
:1014FC00710538463FF568AEFFF734F94FF430719B
:10150C004FF48770FFF7E8F85248FFF735FB3205C8
:10151C0038463FF568AEFFF725F94FF440714FF4AC
:10152C008770FFF7D9F84B48FFF726FB8EE4FFF7DF
:10153C0019F910214FF48770FFF7CEF84248FFF7E6
:10154C001BFB454BDFF844811F70B8F800309BB291
:10155C00A3427FF460ADA1E5FFF704F94FF4D87115
:10156C001820FFF7B9F83D48FFF706FB66E5FFF7D3
:10157C00F9F870214FF48770FFF7AEF83848FFF791
:10158C00FBFAA6E5FFF7EEF810211820FFF7A4F8F8
:10159C003448FFF7F1FA24E53846FFF7E3F8102159
:1015AC00E420FFF799F8304B93F800B0BBF1060F2D
:1015BC0024D0BBF10A0F21D0ABF10703012B37D993
:1015CC00BBF1090F7FF4ADAC2848FFF7D5FAA8E4BE
:1015DC003846FFF7C7F84FF4A871E420FFF77CF802
:1015EC002348FFF7C9FA61E4FFF7BCF81021182073
:1015FC00FFF772F81F48FFF7BFFAF2E41E48FFF737
:10160C00BBFAD9E73846FFF7ADF84FF4A871E420E0
:10161C00FFF762F81948FFF7AFFA47E4FFF7A2F8B3
:10162C0010211820FFF758F81548FFF7A5FAD8E451
:10163C001448FFF7A1FA74E48C490008B849000873
:10164C009A00002056000020804A0008A84A000892
:10165C00DC490008A4490008C50000207C490008AA
:10166C00D4490008244900089E000020B04A000814
:10167C00504A000864490008884A00085C4A00087F
:10168C00444900089C4A0008320200203002002025
:10169C0010B584B0FFF78EF8FFF7CEF84A4B1888D8
:1016AC00FFF760F810211820FFF716F84748FFF7EE
:1016BC0063FA474B1888FFF755F84648FFF75CFA72
:1016CC00454B1C882046FFF74DF810214220FFF7B0
:1016DC0003F84248FFF750FA072303A8ADF80C3083
:1016EC00FFF74AFA3E4B1A7872B3012A40D0022A0D
:1016FC0034D0032A47D0042A50D0052A59D020468A
:10170C00FFF730F81021E420FEF7E6FF3548FFF72D
:10171C0033FA2046FFF726F83348FFF72DFA334B00
:10172C001888FFF71FF810214FF48770FEF7D4FFCD
:10173C002F48FFF721FA2F4B1888FFF713F82E4884
:10174C00FFF71AFA04B010BD2C492D4B09881B88E1
:10175C002C4800911146FFF7B1F8D0E72749284BE8
:10176C000988294800911B880021FFF7A7F8C6E7D4
:10177C00224A234B12881B88002100922348022204
:10178C00FFF79CF8BBE71D4A1D4B12881B880021F4
:10179C0000921F480222FFF791F8B0E7174A184B46
:1017AC0012881B88002100921A480222FFF786F843
:1017BC00A5E700221149124B0888114600901B889E
:1017CC001548FFF77BF89AE758000020DC4A000820
:1017DC0056000020C449000850000020144B00089B
:1017EC00C3000020B04B0008E44B00085C00002054
:1017FC00F04B00085A000020F84B00086200002053
:10180C0060000020504B0008704B0008604B000833
:10181C00804B0008904B0008A04B000830B41E4AC7
:10182C00536803F00C03082B21D01C4B03601A4A9D
:10183C001B4C51680368C1F30311615C194DCB401B
:10184C0043605168C1F30221615C23FA01F18160AC
:10185C005168C1F3C221615CCB40C3605268C2F3D2
:10186C008132AA5C30BCB3FBF2F30361704753685E
:10187C005168C3F38343C90303F1020307D55268CC
:10188C00920304D4054A02FB03F30360CFE7064A34
:10189C0002FB03F30360CAE70010024000127A0057
:1018AC00040000200000002000093D00CB782DE949
:1018BC00F04103F00F06DB0644BF8B781E430B7818
:1018CC002BB3002301274FF00F08056802E001330A
:1018DC00082B1BD00C8807FA03F232EA0404F6D169
:1018EC009C0091F803C008FA04FE25EA0E0506FADE
:1018FC0004F4BCF1280F45EA040530D0BCF1480FC4
:10190C0003F1010308BF0261082BE3D105600C88C9
:10191C00FF2C22D908234FF0010C4FF00F0E476813
:10192C0000E00C880CFA03F535EA040211D1CC78EE
:10193C009A00282C04BF4561CC78203A0EFA02F8A4
:10194C0027EA080706FA02F2482C47EA020708BF02
:10195C0005610133102BE4D14760BDE8F081426191
:10196C00B5E700BF70B50C4615460646FEF7D2FE2D
:10197C00FEF738FE5E20FEF7E9FCFEF7B9FC40F0FE
:10198C000400C0B2FEF7D0FCFEF71EFEBB20FEF733
:10199C00DDFC0020FEF7C8FCC020FEF7D7FCE0B24F
:1019AC00FEF7C2FCC120FEF7D1FCC4F30720FEF702
:1019BC00BBFCC220FEF7CAFCC4F30740FEF7B4FC24
:1019CC00C320FEF7C3FC0020FEF7AEFCC620FEF7DA
:1019DC00BDFCE8B2FEF7A8FCC720FEF7B7FCC5F3C8
:1019EC000720FEF7A1FCC820FEF7B0FC0020FEF794
:1019FC009BFCC920FEF7AAFC0020FEF795FC3046A4
:101A0C00FEF7C4FDFEF7FCFDFEF704FEFEF7F8FD45
:101A1C00BDE87040FEF73ABF2DE9F04F0C46924DF1
:101A2C00924E297885B0012907469DF838B034705C
:101A3C0000F0978002299146984600F00A818C4B61
:101A4C00B3F800A05046FEF78DFE10214220FEF7A1
:101A5C0043FE884B53F824502846FFF78DF8864BED
:101A6C001B78002B60D18548FFF786F80024844E44
:101A7C0002E03046FFF780F82846FEF761FBE3B240
:101A8C00C0F10E00984204F10104F2D84FF44A71EF
:101A9C004220FEF721FE7B48FFF76EF84FF4687189
:101AAC004220FEF719FEB9F1000F56D0072303A808
:101ABC00ADF80C30FFF760F8734A744B148841464C
:101ACC0000945A461B883846FEF7F8FE704B1A787D
:101ADC0012B1704A12785ABB1B78504653BBFEF7B2
:101AEC0041FE40F22F31E420FEF7F6FD6A48FFF785
:101AFC0043F86A4B1B885BBB694A6A4B12781B78AC
:101B0C0013430ED0684B50461B889B0740F19580C1
:101B1C00FEF728FEE4201021FEF7DEFD6348FFF7F8
:101B2C002BF805B0BDE8F08F6148FFF725F89DE76D
:101B3C00604B1888FEF716FE40F22F31E420FEF7BA
:101B4C00CBFD5D48FFF718F8544B1B88002BD3D006
:101B5C00FFF72EF805B0BDE8F08F4948FFF70CF8F9
:101B6C00AAE70020FEF7E4FD544B4FF488341888A4
:101B7C00FEF7F8FDFEF7E2FCCD20FEF7E7FBFEF7E3
:101B8C00B7FB00F0F70040F00400FEF7CDFBCD20D2
:101B9C00FEF7DCFBFEF7ACFB00F0FD0040F00100B3
:101BAC00FEF7C2FBFEF7BCFC4FF48871DC20FEF79D
:101BBC0093FD3846FEF7E0FF0222414B2A7018884D
:101BCC00FEF7B6FD2A4B1888FEF7CCFDFEF7B6FCE7
:101BDC00CD20FEF7BBFBFEF78BFB00F0F300FEF70E
:101BEC00A3FBCD20FEF7B2FBFEF782FB00F0FC005E
:101BFC00FEF79AFBFEF794FC04F5941505F5BA551F
:101C0C00204629464FF4E052FFF7ACFE04F5005491
:101C1C002846FEF767FCB4F5443FEDD140224FF463
:101C2C00E1112848FFF79EFE4FF4E110FEF75AFC35
:101C3C00FEF792FC05B0BDE8F08FFEF793FD102186
:101C4C00E420FEF749FD2048FEF796FF05B0BDE8FD
:101C5C00F08FFEF7F1FD002201231C492A701C4A6B
:101C6C000B701370EBE600BF180000207A00002008
:101C7C005000002068570008C1000020384C0008B4
:101C8C00C8550008404C000862000020600000208D
:101C9C00C200002021020020A04900089C00002066
:101CAC009A0000209F00002022020020484C0008CF
:101CBC00304C000852000020E44B00085E0000206D
:101CCC0054000020000F01005C4C0008C6000020EE
:101CDC00C70000202DE9F84F17460646894602F04A
:101CEC00B2FD00283FD080463846FEF729FA05465B
:101CFC004846FEF725FAA5EB000ABAF1000F044698
:101D0C00A8EB06081CDD3046FEF71AFA5FFA88F5D8
:101D1C005FFA80FB09E016F80B10484602F80A102F
:101D2C005FFA83FBFEF70CFA04462C44A34506EB42
:101D3C000B020BF1FF33EED83846FEF701FA0546DD
:101D4C0000235FFA88F807E07B5C384602F808301D
:101D5C00FEF7F6F923460546D9B2A94206EB010275
:101D6C0003F10104F0D3BDE8F88F00BF30B40024B8
:101D7C004FF41F053A4B3B4A196882B041F0010100
:101D8C001960596818460A405A601A6822F0847221
:101D9C0022F480321A601A6822F480221A605A687F
:101DAC0022F4FE025A609D60009401941A6842F479
:101DBC0080321A6003E0009BB3F5A06F09D0036872
:101DCC0003F400330193009B01330093019B002B20
:101DDC00F1D0234B1B6813F4003318BF012301937C
:101DEC00019B012B06D04FF000621F4B9A6002B092
:101DFC0030BC70471D491A4B08681A4640F0100059
:101E0C000860086820F007000860086840F00200CD
:101E1C0008605968596059685960596841F4806183
:101E2C005960596821F47C115960596841F4E811E2
:101E3C005960196841F08071196013689B01FCD5D9
:101E4C005368074923F003035360536843F00203BC
:101E5C0053604B6803F00C03082BFAD1C3E700BFA7
:101E6C00001002400000FFF800ED00E000200240EE
:101E7C002DE9F0416D4B1B784BB16D4A1388013B3A
:101E8C009BB2138013889BB2002B00F08E80694AA2
:101E9C00137823B1013BDBB21370002B7CD0664B63
:101EAC001A6812B11A68013A1A60644C2378002B34
:101EBC002DD1634B1A7842B11A78013AD2B21A700A
:101ECC001B7803F0FF00002B57D05E490B7843B111
:101EDC005D4B5E4A9B68C3F3071313701378002B9A
:101EEC003FD05B4B1A7882B11A78013AD2B21A7091
:101EFC001A7852B9544A55499268C2F307120A70BB
:101F0C000A78002A5BD101232370BDE8F0814E4A88
:101F1C004E4B9268C2F307121A701A786AB119788C
:101F2C001A78013A0A4008D1142122701A784948CB
:101F3C00434BD2B202701970BCE747494FF6F075AB
:101F4C000B7841485B00DBB20B700B78082B84BF1D
:101F5C0001230B70C26809782A400A43384BC260CF
:101F6C00A8E73E4A13881B06FCD540231425002005
:101F7C009380374B1D700870B4E7334B334A9B6822
:101F8C00344DC3F30713137011782B7899421CD07E
:101F9C0001232C49237099E73149FF200B781070ED
:101FAC00B3FA83F35B090B7079E72E49087850B1CB
:101FBC000B700120FF232C490870138067E7142253
:101FCC001A70BDE8F0810123F2E7234B1B781178DE
:101FDC00DAB22029CBB200F2D280012B40F2CD80B4
:101FEC00023B1E2B00F2C980DFE813F0C500C700CE
:101FFC004000C700C700C700D400C700C700C70017
:10200C00C700C700C700C700D200C700C700C70081
:10201C00C700C700C700C700C700C700C700C7007C
:10202C00C700C700C700C700D00000BF4D0000208C
:10203C001600002014000020680000207900002009
:10204C006700002020020020000C014078000020D6
:10205C0066000020340200201A00002000380140E5
:10206C00210200206C0000204B0000200223023AC9
:10207C00D2B2062A8CBF0021A549A64D98BF895C17
:10208C00A54AA64F02EBC102D35C2B703B78D90753
:10209C0040F182802B78A24E512B00F08A8033784D
:1020AC00002B40F08680DFF8B08298F8003013B92E
:1020BC002B70337863B12B784F2B00F088802B7802
:1020CC00582B00F0B68098F80030002B40F08D8033
:1020DC00944B1A78012A04D12A784E2A04BF022282
:1020EC001A7033788BB12B788F494E2B04BF602339
:1020FC002B7000238D4A33708D4B088811881A88F9
:10210C0080B289B292B2FEF78FFE2B78002B5AD098
:10211C00884A13881906FCD52B7893803B7913F0E9
:10212C00800F2B7879D1422B00F08D802B78432BAC
:10213C0000F0D1802B78442B00F0D5802B78452BE8
:10214C0000F0D5802B78462B00F0D5802B78472BD0
:10215C0000F0D5802B78482B00F0D5802B78502BB5
:10216C0002D10722744B1A70012374490B700F2291
:10217C00734B1A61AAE6012379E7002377E7402B1A
:10218C001FD0802B14BF0023072370E705236EE7B5
:10219C0004236CE703236AE73B789A073FF57AAF91
:1021AC003B785B073FF576AF3B781E073FF572AF88
:1021BC005B4EDFF8A48198F80030002B7FF47BAFE6
:1021CC0077E7062353E701235C492370CFE701230C
:1021DC005C4A88F800301378052B01D00133D8B253
:1021EC001070FDF7D9FFFFF753FA2B784E2B03D065
:1021FC002B78602B7FF46CAF00222B7888F80020B2
:10220C004E2B24D0504A4F4B10781870FDF7C4FF5A
:10221C00FEF712FB012333705AE7462B57D02B786D
:10222C00472B5CD02B78482B9ED10A22424B1A703C
:10223C009AE70123434A88F800301378002B44D0E6
:10224C00013BD8B2CCE700223B4B1A708CE73D4ADD
:10225C003E4B92F800C019698CF47F4C09068CF047
:10226C00FF0C03D53A483B4958605960374BDFF8AF
:10227C00ECE01846196941F002011961C3F814E049
:10228C00196941F040011961C368DB07FCD403698B
:10229C00DFF8C8E023F00203036103692B4943F024
:1022AC0001030361AEF800C0CB68D807FCD40B69FE
:1022BC00254823F001030B610B6943F080030B618C
:1022CC0013780370FEF7B8FAA4E7052088E7082214
:1022DC00194B1A7048E70122174B1A7044E7092270
:1022EC00154B1A7040E70222134B1A703CE703227D
:1022FC00114B1A7038E704220F4B1A7034E7052281
:10230C000D4B1A7030E706220B4B1A702CE700BFEE
:10231C00B05600081900002048570008440000205F
:10232C0024020020260200207200002074000020ED
:10233C0076000020003801409E0000202002002082
:10234C00000C0140C3000020350200200020024098
:10235C0023016745AB89EFCDC400002000FC0008C9
:10236C004FF48051164B174A19611388990616D5EC
:10237C0030B4154990880B88144D0133DBB2144CE2
:10238C00C0B20B80E854237803F0FF010BB90F287F
:10239C000AD04FF480520A4B5A6130BC70474FF44C
:1023AC008052074B5A6170470A4813881B06FCD5AC
:1023BC00435C01310C299380F7D101232370E8E7AA
:1023CC00000C0140003801401C0200201C010020C0
:1023DC00C80000201C00002001244FF41F002DE930
:1023EC008048AB4BAB4A1968ADB0214319605D68AE
:1023FC0019462A405A601A68A74D22F0847222F4BA
:10240C0080321A601A6822F480221A605A6822F408
:10241C00FE025A6098601A68A04822F480321A6052
:10242C001A6822F480221A601A6842F480321A6008
:10243C005A6822F0F0025A605A6822F4E06242F4C0
:10244C0080625A605A6822F460525A605A6822F4C8
:10245C00404242F400425A602A6802F0380242F0CC
:10246C0002022A605A6822F47C1242F4E8125A6082
:10247C0004600B689F01FCD54B6822A823F0030372
:10248C0043F002034B60FFF7C9F9239B844AA2FB7C
:10249C0003239B09013BB3F1807F09D2F025002077
:1024AC000721804A804C536084F82350906011605F
:1024BC00774C7E4AA3697E4843F00103A3615368BD
:1024CC00516823F0706343F0007321F07061516028
:1024DC005360A369774A43F00403A361A36922A95B
:1024EC0043F00803A361A36943F01003A361229294
:1024FC00FFF7DCF9704B22A92293FFF7D7F96F4B4A
:10250C0022A92293FFF7D2F90F224FF470434261B4
:10251C004361A3696A4A43F4804343F00503A36112
:10252C0068481BA91B92FFF7C1F9674B65481BA9AB
:10253C001B93FFF7BBF900214FF416504FF44022C8
:10254C00A4F55844A3899BB243F40053A381CDE96D
:10255C001D011F92238A22A823F440531B041B0C39
:10256C002382A38923F4B05323F00C031B041B0C0C
:10257C0043F00C03A381A38A23F440731B041B0CAC
:10258C00A382FFF74BF9A389259913F4004F4FF061
:10259C00190314BF4FF496424FF4164203FB01F398
:1025AC00B3FBF2F16424494B494AA3FB0103928922
:1025BC005B0916044FEA031004FB131302F1CC80E1
:1025CC001B013233B3FBF4F303F00F030343404915
:1025DC00404A9BB20B81136843F020031360202305
:1025EC003D4C63603D4B37481DA91D93FFF75EF9C9
:1025FC003B4B1DA91D93FFF759F93A4B1DA91D9390
:10260C00FFF754F9384B1DA91D93FFF74FF9182309
:10261C0000254FF0007708214FF0827C07261C4ADA
:10262C0003619369204843F4805343F0050393619D
:10263C00CDE923572D4BCDF888C025911A8802F48B
:10264C00415242F443721A809A8B22F400621204B3
:10265C00120C9A831E821A8892B242F040021A809F
:10266C00C36884F8235364206160FDF71BFEFDF7FB
:10267C0021FEFDF74BFE85074FF0000438D50134E1
:10268C00E4B2052CF3D0FDF741FE8507F7D42FE01B
:10269C00001002400000FFF800200240600042429F
:1026AC00D34D621010E000E000ED00E000000140AE
:1026BC00000C014000F00310F00F02040F00021098
:1026CC000002031800080140000403041F85EB51AD
:1026DC00003801400C38014000E100E0A000031874
:1026EC0008000314400003481F0003100030014091
:1026FC000220FDF7D7FD0120FDF728FE0220FDF793
:10270C00D1FDFDF7F5FD00060CD40220FDF7CAFD46
:10271C000120FDF71BFE0220FDF7C4FD8020FDF714
:10272C0003FEAEE76420FDF7BDFDFDF7EFFD10F0F5
:10273C000204FAD10520FDF709FE8A20FDF7F4FD0D
:10274C000720FDF703FE8A20FDF7EEFD0920FDF7BB
:10275C00FDFD8A20FDF7E8FD0620FDF7F7FD1920A9
:10276C00FDF7E2FD0820FDF7F1FD6420FDF7DCFD2F
:10277C000A20FDF7EBFD6420FDF7D6FD2046FDF7A2
:10278C00E5FD0120FDF78EFD8020FDF7CDFD01203C
:10279C00FDF788FDE020FDF7D9FD2920FDF7C4FDEC
:1027AC00E120FDF7D3FD0320FDF7BEFDE220FDF790
:1027BC00CDFDE620FDF7B8FDE320FDF7C7FD0120B8
:1027CC00FDF7B2FDE420FDF7C1FD0120FDF7ACFDE6
:1027DC00FDF79CFD4107FBD50120FDF763FD0120B2
:1027EC00FDF7B4FDFDF784FD00F0EF0040F00800AC
:1027FC00FDF79AFD0120FDF7A9FDFDF779FD40F0ED
:10280C000100C0B2FDF790FD0220FDF79FFDFDF722
:10281C006FFD00F07F0040F04000FDF785FD0220C9
:10282C00FDF794FDFDF764FD00F0F900FDF77CFD6C
:10283C00FEF738F80320FDF789FDFDF759FD00F090
:10284C00FC00FDF771FD1220FDF780FDFDF750FD3A
:10285C0000F0EF00FDF768FD1220FDF777FDFDF7A6
:10286C0047FD40F00800C0B2FDF75EFD1220FDF7F9
:10287C006DFDFDF73DFD00F0F800FDF755FD122054
:10288C00FDF764FDFDF734FD00F07F00FDF74CFD16
:10289C001320FDF75BFDFDF72BFD00F07F00FDF72E
:1028AC0043FD1320FDF752FDFDF722FD00F0BF00A4
:1028BC00FDF73AFD1320FDF749FDFDF719FD00F07A
:1028CC00DF00FDF731FD1420FDF740FD2720FDF75B
:1028DC002BFD1520FDF73AFD0020FDF725FD1A20F4
:1028EC00FDF734FDBF20FDF71FFD1B20FDF72EFD6E
:1028FC000320FDF719FD1620FDF728FD0920FDF733
:10290C0013FD1720FDF722FD0020FDF70DFD18200B
:10291C00FDF71CFD0120FDF707FD1920FDF716FD45
:10292C000120FDF701FD1C20FDF710FD0920FDF72E
:10293C00FBFC1D20FDF70AFD0020FDF7F5FC1E2019
:10294C00FDF704FD0B20FDF7EFFC1F20FDF7FEFC4F
:10295C000220FDF7E9FCFDF71FFFFDF797FF5E2056
:10296C00FDF7F4FCFDF7C4FC052400F0FD00FC4D64
:10297C0040F00100FDF7D8FCFDF70EFFF94B22A942
:10298C0028462293FEF792FF2C61FF20FDF774FC82
:10299C007720FDF75BFC0120FDF758FC0020FDF7CC
:1029AC0055FC0020FDF752FC1320FDF74FFCEF20E7
:1029BC00FDF762FC0820FDF749FCFF20FDF75CFCED
:1029CC007720FDF743FC0120FDF740FC0020FDF7CC
:1029DC003DFC0020FDF73AFC1020FDF737FCC02031
:1029EC00FDF74AFC7720FDF731FC0020FDF72EFCAB
:1029FC00C120FDF741FC0920FDF728FC0820FDF75C
:102A0C0025FCC220FDF738FC3720FDF71FFC022007
:102A1C00FDF71CFCC320FDF72FFC8020FDF716FCF6
:102A2C002046FDF713FC0D20FDF710FCCC20FDF724
:102A3C0023FC1020FDF70AFCB020FDF71DFC402004
:102A4C00FDF704FC1420FDF701FC5920FDF7FEFBFB
:102A5C001020FDF7FBFB1220FDF7F8FB0820FDF71B
:102A6C00F5FB0320FDF7F2FB0920FDF7EFFB2046F9
:102A7C00FDF7ECFB1E20FDF7E9FB2046FDF7E6FB1E
:102A8C001420FDF7E3FB1020FDF7E0FB6820FDF7B9
:102A9C00DDFB3320FDF7DAFB1520FDF7D7FBB1206A
:102AAC00FDF7EAFB4020FDF7D1FB0820FDF7CEFB3C
:102ABC005320FDF7CBFB0920FDF7C8FB1120FDF7D8
:102ACC00C5FB0920FDF7C2FB0220FDF7BFFB072069
:102ADC00FDF7BCFB0920FDF7B9FB1A20FDF7B6FB8F
:102AEC000420FDF7B3FB1220FDF7B0FB1220FDF71D
:102AFC00ADFB6420FDF7AAFB2920FDF7A7FB2920DD
:102B0C00FDF7A4FBFF20FDF7B7FB7720FDF79EFB3D
:102B1C000120FDF79BFB0020FDF798FB0020FDF743
:102B2C0095FB1120FDF792FBB020FDF7A5FB6D2066
:102B3C00FDF78CFBB120FDF79FFB1D20FDF786FBFD
:102B4C00B220FDF799FB8720FDF780FBB320FDF742
:102B5C0093FB8020FDF77AFBB520FDF78DFB492018
:102B6C00FDF774FBB720FDF787FB8520FDF76EFBA7
:102B7C00B820FDF781FB2020FDF768FBC120FDF795
:102B8C007BFB7820FDF762FBC220FDF775FB7820FC
:102B9C00FDF75CFBD020FDF76FFB8820FDF756FBA3
:102BAC00E020FDF769FB0020FDF750FB0020FDF74E
:102BBC004DFB0220FDF74AFBE120FDF75DFB0220F7
:102BCC00FDF744FB8C20FDF741FB0020FDF73EFB9D
:102BDC000020FDF73BFB0320FDF738FB8C20FDF7B5
:102BEC0035FB0020FDF732FB0020FDF72FFB00200A
:102BFC00FDF72CFB3320FDF729FB3320FDF726FBDB
:102C0C00E220FDF739FB3320FDF720FB3320FDF7E5
:102C1C001DFB3320FDF71AFB3320FDF717FBC920F2
:102C2C00FDF714FB3C20FDF711FB0020FDF70EFB1C
:102C3C000020FDF70BFBCA20FDF708FB3C20FDF73D
:102C4C0005FB0020FDF702FB0020FDF7FFFA00203A
:102C5C00FDF7FCFAE320FDF70FFB0020FDF7F6FA79
:102C6C000020FDF7F3FA3320FDF7F0FA3320FDF7DF
:102C7C00EDFAE420FDF700FB4420FDF7E7FA4420D1
:102C8C00FDF7E4FAE520FDF7F7FA2046FDF7DEFA4A
:102C9C00CD20FDF7DBFA8220FDF7D8FA8220FDF774
:102CAC00D5FA0120FDF7D2FAC920FDF7CFFA822020
:102CBC00FDF7CCFA8220FDF7C9FA0720FDF7C6FA1A
:102CCC00CF20FDF7C3FA8220FDF7C0FA8220FDF772
:102CDC00BDFA0320FDF7BAFACB20FDF7B7FA822034
:102CEC00FDF7B4FA8220FDF7B1FAE620FDF7C4FA3D
:102CFC000020FDF7ABFA0020FDF7A8FA3320FDF712
:102D0C00A5FA3320FDF7A2FAE720FDF7B5FA442027
:102D1C00FDF79CFA4420FDF799FAE820FDF7ACFA90
:102D2C000620FDF793FACE20FDF790FA8220FDF7EE
:102D3C008DFA8220FDF78AFA0220FDF787FACA2065
:102D4C00FDF784FA8220FDF781FA8220FDF77EFAE6
:102D5C000820FDF77BFAD020FDF778FA04E000BFDD
:102D6C0000080140070003108220FDF76FFA822053
:102D7C00FDF76CFA0420FDF769FACC20FDF766FA32
:102D8C008220FDF763FA8220FDF760FAEB20FDF755
:102D9C0073FA0820FDF75AFA0120FDF757FAE420E0
:102DAC00FDF754FAE420FDF751FA8820FDF74EFAAE
:102DBC000020FDF74BFA4020FDF748FAEC20FDF718
:102DCC005BFA0020FDF742FA0020FDF73FFA0020E5
:102DDC00FDF73CFAED20FDF74FFAFF20FDF736FA30
:102DEC00F020FDF733FA0720FDF730FA6520FDF7E8
:102DFC002DFA4F20FDF72AFAFC20FDF727FAC22006
:102E0C00FDF724FA2F20FDF721FAF220FDF71EFA28
:102E1C002C20FDF71BFACF20FDF718FAF420FDF754
:102E2C0015FA5620FDF712FA7020FDF70FFA0F2055
:102E3C00FDF70CFAFF20FDF709FAEF20FDF71CFA5D
:102E4C001020FDF703FA0D20FDF700FA0420FDF722
:102E5C00FDF90820FDF7FAF93F20FDF7F7F91F20DF
:102E6C00FDF7F4F9FF20FDF707FA7720FDF7EEF9EF
:102E7C000120FDF7EBF90020FDF7E8F90020FDF744
:102E8C00E5F90020FDF7E2F91120FDF7F5F97820BE
:102E9C00FDF708FA3520FDF7EFF90020FDF7D6F91C
:102EAC003A20FDF7E9F96620FDF7D0F92920FDF766
:102EBC00E3F9FDF77FFC1220FDF748FAFDF718FA4D
:102ECC0040F04000C0B2FDF72FFA784B784A1B68EF
:102EDC00DFF85082DB43DBB2A34288BF00231370C0
:102EEC0092F800A0734C5046FDF756F90122724936
:102EFC00724BDFF82CB2DFF83092714F714E724D7D
:102F0C0081F800A01A70714B71491A880B8892B223
:102F1C009BB29A4200F099804FF400526D4B6E4870
:102F2C001A610B8802780133DBB20B806B49CB5CE6
:102F3C006B49DBB209780370002940F0B280694913
:102F4C00097801F0FF00002940F0AB80062A01F05F
:102F5C006B820A2A01F078820E2A08BFA37041F016
:102F6C00668261495C4B91F800C018700CF101034A
:102F7C00DBB20B705B4B1B78A3B15A49564B0978EB
:102F8C001B78002940F07B83002158480370584B74
:102F9C001970584B1970584B197052490B780133F2
:102FAC00DBB20B700D2A03D04D4B1B78002B4CD091
:102FBC004B4B197801F0FF0371B94D490B704D491A
:102FCC000B704E4988F800300B7048490B7044491F
:102FDC000B780133DBB20B703F4B1B7803F0F7011E
:102FEC00032932D00B2A01F0EB810F2B41F2F58132
:102FFC0098F800204248D2B2835498F8002003F08D
:10300C00FD010132D2B22C2988F8002001F0AE82E9
:10301C003A3B012B41F2AA823A4B1B78002B01F070
:10302C00AF82334B1B7833B1324A13781BB998F803
:10303C000030DBB213700022334932480B78027037
:10304C000133DBB20B70264B1A704FF40052214B3C
:10305C005A612D4B1B78002B40F084822B4B1B7834
:10306C00002B40F02882204B1B78002B5ED1284B84
:10307C001B78002B3FF447AF264B1E491A781C4B8C
:10308C001B7808782449097801FB00F1C9B200913A
:10309C00224923480978FEF7BFFC00231C4A137011
:1030AC0031E7042A7FF466AF67E700BF00FC000835
:1030BC00C3000020440000203502002079000020CD
:1030CC007200002076000020740000201C020020FA
:1030DC001E020020000C01407B0000201C0100207F
:1030EC0065000020640000204A000020ED00002054
:1030FC004C0000204D000020EC000020C0000020FF
:10310C00A00000207000002018010020EE0000201C
:10311C004B000020190100206C0000209E000020B4
:10312C00F0000020EF00002028020020227899F8FF
:10313C0000309A4200F0B782237813F0080F3B88D6
:10314C0000F0B4829BB243F001033B80237813F070
:10315C00040F3B8800F0B5829BB243F002033B8026
:10316C00237813F0020F3B8800F0B6829BB243F039
:10317C0004033B80237813F0010F3B8800F0B782E7
:10318C009BB243F008033B80AE4922780B78D2B255
:10319C000133DBB20B7089F80020617899F80120BB
:1031AC0091422FD0627812F0080F328800F0BD8364
:1031BC0092B242F001023280627812F0040F32882F
:1031CC0000F0AD8392B242F002023280627812F0CB
:1031DC00020F328800F09D8392B242F004023280DA
:1031EC00627812F0010F328800F08D8392B242F0B7
:1031FC0008023280627893490133DBB2D2B20B7091
:10320C0089F80120A17899F80220914258D0A2782F
:10321C0012F0800F328840F0938322F010021204D7
:10322C00120C3280A27812F0400F328800F04783E3
:10323C0092B242F020023280A27812F0200F328833
:10324C0000F0378392B242F040023280A27812F042
:10325C00100F328800F0278392B242F08002328045
:10326C00A27812F0080F328800F0178392B242F461
:10327C0080723280A27812F0040F328800F007833B
:10328C0092B242F400723280A27812F0020F3288AD
:10329C0000F0F78292B242F480623280A27812F08F
:1032AC00010F328800F0E78292B242F40062328061
:1032BC00A27864490133DBB2D2B20B7089F80220D8
:1032CC00E17899F80320914239D0E27812F0100F8E
:1032DC003A8800F0128392B242F040023A80E278CF
:1032EC0012F0080F3A8800F0028392B242F080028A
:1032FC003A80E27812F0040F3A8800F0F28292B22F
:10330C0042F480723A80E27812F0020F3A8800F0B0
:10331C00E28292B242F400723A80E27812F0010F2B
:10332C003A8800F0D28292B242F480623A80E2781B
:10333C0044490133DBB2D2B20B7089F803202179F6
:10334C0099F80420914258D0227912F0800F3A88D3
:10335C0040F0F18222F010021204120C3A80227911
:10336C0012F0400F3A8800F0EC8192B242F0200249
:10337C003A80227912F0200F2A8800F0DC8192B278
:10338C0042F400622A80227912F0100F2A8800F091
:10339C00CC8192B242F480622A80227912F0080F1A
:1033AC002A8800F0BC8192B242F400722A80227901
:1033BC0012F0040F2A8800F0AC8192B242F48072B1
:1033CC002A80227912F0020F2A8800F09C8192B296
:1033DC0042F080022A80227912F0010F2A8800F034
:1033EC008C8192B242F040022A8022791549013335
:1033FC00DBB2D2B20B7089F80420617999F8052000
:10340C00914251D0627912F0400F3A8800F0198243
:10341C0092B242F400623A80627912F0200F2A884C
:10342C0000F0098292B242F001022A80627912F015
:10343C00100F2A8800F0F98192B242F002022A8021
:10344C0002E000BF4E000020627912F0080F2A88BB
:10345C0000F0C48192B242F004022A80627912F028
:10346C00040F2A8800F0C58192B242F008022A802B
:10347C00627912F0020F2A8800F0C68192B242F0F3
:10348C0010022A80627912F0010F2A8800F0C7819D
:10349C0092B242F020022A806279AD490133DBB24C
:1034AC00D2B20B7089F80520002B40F0D08100239C
:1034BC00A84A1370DBE5A84B1B7873B100221346A6
:1034CC00A6490DF1B00CC85CA349634409780132DC
:1034DC0003F83C0CD3B29942F2D84FF0000A9E4B41
:1034EC002CAA1B789E49134422A803F83CAC01F08B
:1034FC00A2F99C4B2CAA1B781DA9134422A803F8F3
:10350C0028AC01F089F922A8FCF71AFE8646964BE6
:10351C0022AA02EB000C07CB039322AB43F80E005C
:10352C00039BCCF80410B3F800E09B78CCF808208F
:10353C008CF80E30ACF80CE08C498D4A22A88DF832
:10354C0096A0FEF7C7FB8B4A8B4B22A81B781178F1
:10355C005246009189490978FEF75EFA884B83F848
:10356C0000A080E54FF0000C864B0DF1880E0FCBC0
:10357C00AEE80700844AAEF80030844B92E80300B2
:10358C0007908DF8201093E80300814B09908DF87B
:10359C00281093E803007F4B1790ADF8601093E868
:1035AC0003007D4B0B908DF8301093E803007B4BA0
:1035BC007B4A1990ADF8681093E80300794B06929A
:1035CC000D908DF838101B6877494FEA134EADF803
:1035DC001430764B03C91B90ADF8701093E80300C0
:1035EC008DF8401072490F9003C9ADF878107149ED
:1035FC001D9003C98DF848106F49704B98F8002046
:10360C00119003C98DF850106D4983F800C01390C8
:10361C008DF816E003C902F0FF0315908DF85810D1
:10362C0062B16346674A591CD25C0BF8032098F8C8
:10363C000020CBB29342F5D3604A13704FF0000ACE
:10364C004FF480420BF803A05F4B1A615F4B1B7861
:10365C00022B00F0AB865B4B5B787F2B00F0148663
:10366C005B495C4801F0EFF8002800F073814FF4DF
:10367C008042002354494A61574A1370EEE40B2BE5
:10368C003FF490AC0B2A00F09887202B40F2FD867B
:10369C00314801783148C9B243542F490B78013372
:1036AC00DBB20B707EE42A4B1B7876E523F001032A
:1036BC001B041B0C3B80237813F0040F3B887FF416
:1036CC004BAD23F002031B041B0C3B80237813F03F
:1036DC00020F3B887FF44AAD23F004031B041B0C40
:1036EC003B80237813F0010F3B887FF449AD23F026
:1036FC0008031B041B0C3B8046E522F0400212041D
:10370C00120C2A8071E622F080021204120C2A801C
:10371C0061E622F480721204120C2A8051E622F423
:10372C0000721204120C2A8041E622F48062120408
:10373C00120C2A8031E622F400621204120C2A8048
:10374C0021E622F020021204120C3A8011E600BF8E
:10375C004E0000204A000020EC000020CC0000208D
:10376C007C000020ED000020A04A0008BC5200089C
:10377C00B45200084D0000204C0000209E00002098
:10378C00EE000020BC550008CC550008D4550008AC
:10379C00DC550008E4550008EC550008F455000809
:1037AC0020122000A0480008FC5500080456000810
:1037BC000C560008145600081C5600082502002060
:1037CC0024560008A0000020000C01402602002016
:1037DC009C490008F00000201801002022F004028F
:1037EC001204120C2A80627912F0040F2A887FF4DA
:1037FC003BAE22F008021204120C2A80627912F0FD
:10380C00020F2A887FF43AAE22F010021204120C36
:10381C002A80627912F0010F2A887FF439AE22F0E7
:10382C0020021204120C2A8036E622F00202120444
:10383C00120C2A8008E622F001021204120C2A80D3
:10384C00F4E522F400621204120C3A80E4E54FF421
:10385C00004A3E4BC3F810A038882988328880B2C1
:10386C0092B289B2FDF7E0FA0023394A1370374B54
:10387C00C3F814A01BE622F400621204120C32806E
:10388C0016E522F480621204120C328006E522F452
:10389C0000721204120C3280F6E422F480721204CC
:1038AC00120C3280E6E422F080021204120C3280F8
:1038BC00D6E422F040021204120C3280C6E422F04C
:1038CC0020021204120C3280B6E422F4806212043C
:1038DC00120C3A802BE522F400721204120C3A807E
:1038EC001BE522F480721204120C3A800BE522F0D4
:1038FC0080021204120C3A80FBE422F04002120403
:10390C00120C3A80EBE422F008021204120C328002
:10391C0070E422F004021204120C328060E422F0F3
:10392C0002021204120C328050E422F00102120442
:10393C00120C328040E492B242F010023A800EE552
:10394C0092B242F0100232806CE400BF000C0140D5
:10395C004E000020AA49AB4800F075FF002800F08B
:10396C0057860123A84A1370A84A13780233DBB296
:10397C001370A74A98F8003012789B1A0D2B28DC8C
:10398C000021A34A98F800301278A2489B1AC3F180
:10399C000E038B4201701CDD4FF0010A9E4B1B88FD
:1039AC0003939848FCF7CCFB5146994A98F80030A1
:1039BC0092F800C0039AA3EB0C032BF80020C3F180
:1039CC000E03944A481C994282F800A05FFA80FAD0
:1039DC00E7DB00200B23914A10701BF80320591CC5
:1039EC002E2A00F0438498F80020CBB29342F4D3F3
:1039FC000021884A137020B1884B1970002940F0BF
:103A0C005B860023864A13700022134610468549B4
:103A1C000A701BF80320591C2E2A00F0198498F800
:103A2C000020CBB29342F4D300217A4A137008B130
:103A3C007C4B19707C4A1378092B00F2D884013323
:103A4C005FFA83FABAF1040F82F800A040F0CF8439
:103A5C0076496C4800F0F7FE002800F01086002331
:103A6C00734A13702B889B0540F1FE854FF0090AB1
:103A7C006F4B83F800A000236E4A13806E4A6F4987
:103A8C006048FEF727F96E4A6E495E48FEF722F948
:103A9C0022AA6D495B48FEF71DF922AA6B495948C9
:103AAC00FEF718F96A4A6B495648FEF713F96A4A49
:103ABC006A495448FEF70EF907AA69495148FEF7BE
:103ACC0009F909AA67494F48FEF704F906AA66499D
:103ADC004C48FEF7FFF815AA13A94A48FEF7FAF866
:103AEC00624A63494748FEF7F5F8624A624945481D
:103AFC00FEF7F0F8614A62494248FEF7EBF8614A7A
:103B0C0061494048FEF7E6F8604A61493D48FEF7D6
:103B1C00E1F817AA5F493B48FEF7DCF80BAA4349CA
:103B2C003848FEF7D7F819AA5B493648FEF7D2F8A1
:103B3C000DAA5A493348FEF7CDF81BAA584931480B
:103B4C00FEF7C8F80FAA57492E48FEF7C3F81DAA6E
:103B5C0055492C48FEF7BEF811AA54492948FEF7DE
:103B6C00B9F83B4A52492748FEF7B4F8384A51494C
:103B7C002448FEF7AFF8364A4F492248FEF7AAF818
:103B8C00334A4E491F48FEF7A5F84D4A4D491D488A
:103B9C00FEF7A0F84C4A4D491A48FEF79BF84C4AE0
:103BAC004C491848FEF796F84B4A4C491548FEF715
:103BBC0091F84B4A4B491348FEF78CF84A4A4B494B
:103BCC001048FEF787F84A4A4A490E48FEF782F831
:103BDC00494A4A490B48FEF77DF8494A4949094880
:103BEC00FEF778F8484A49490648FEF773F8484A00
:103BFC0048490448FEF76EF8474A484990E000BF30
:103C0C00704C0008F0000020260200204D0000201F
:103C1C00C000002025020020C855000871000020BB
:103C2C00190100206E0000206D0000207C4C000863
:103C3C009E0000209C000020B84C0008C84C0008D6
:103C4C00D84C0008E84C0008F84C0008084D000857
:103C5C00184D0008244D00082C4D0008344D000868
:103C6C00104D0008AC4C00088C4C00083C4D000872
:103C7C00404D0008484D00084C4D0008504D0008C0
:103C8C00584D00085C4D0008644D00086C4D000850
:103C9C007C4D0008944C0008A44C0008844C00088F
:103CAC009C4C0008804C00088C4D0008884C000887
:103CBC00944D0008A04D0008AC4D0008B84D00080C
:103CCC00C44D0008CC4D0008D44D0008D84D000858
:103CDC00DC4D0008E44D0008EC4D0008F44D0008E4
:103CEC00FC4D00080C4E00081C4E0008284E000825
:103CFC00344E0008444E0008544E00085C4E000838
:103D0C00644E00086C4E0008744E00087C4E00088F
:103D1C00844E0008944E0008A44E0008B44E0008CF
:103D2C009F48FDF7D7FF9F4A9F499D48FDF7D2FF5B
:103D3C009E4A9F499A48FDF7CDFF9E4A9E49984856
:103D4C00FDF7C8FF9D4A9E499548FDF7C3FF9D4A64
:103D5C009D499348FDF7BEFF9C4A9D499048FDF74D
:103D6C00B9FF9C4A9C498E48FDF7B4FF9B4A9C497D
:103D7C008B48FDF7AFFF9B4A9B498948FDF7AAFF8B
:103D8C009A4A9B498648FDF7A5FF9A4A9A49844866
:103D9C00FDF7A0FF994A9A498148FDF79BFF994A84
:103DAC0099497F48FDF796FF984A99497C48FDF759
:103DBC0091FF984A98497A48FDF78CFF974A9849A1
:103DCC007748FDF787FF974A97497548FDF782FFBB
:103DDC00944A96497248FDF77DFF954A954970487B
:103DEC00FDF778FF944A95496D48FDF773FF944AA7
:103DFC0094496B48FDF76EFF934A94496848FDF768
:103E0C0069FF934A93496648FDF764FF924A9349C8
:103E1C006348FDF75FFF924A92496148FDF75AFFEC
:103E2C00914A92495E48FDF755FF914A91495C4889
:103E3C00FDF750FF904A91495948FDF74BFF904AC6
:103E4C0090495748FDF746FF8F4A90495448FDF773
:103E5C0041FF8F4A8F495248FDF73CFF8E4A8F49EC
:103E6C004F48FDF737FF8E4A8E494D48FDF732FF1C
:103E7C008D4A8E494A48FDF72DFF8D4A8D49484899
:103E8C00FDF728FF8C4A8D494548FDF723FF8C4AE6
:103E9C008C494348FDF71EFF8B4A8C494048FDF77F
:103EAC0019FF8B4A8B493E48FDF714FF8A4A8B4910
:103EBC003B48FDF70FFF8A4A8A493948FDF70AFF4C
:103ECC00894A8A493648FDF705FF894A89493448A9
:103EDC00FDF700FF884A89493148FDF7FBFE884A07
:103EEC0088492F48FDF7F6FE874A88492C48FDF78C
:103EFC00F1FE874A87492A48FDF7ECFE864A874936
:103F0C002748FDF7E7FE864A86492548FDF7E2FE7D
:103F1C00854A86492248FDF7DDFE854A85492048B9
:103F2C00FDF7D8FE844A85491D48FDF7D3FE844A27
:103F3C0084491B48FDF7CEFE834A84491848FDF797
:103F4C00C9FE834A83491648FDF7C4FE824A834959
:103F5C001348FDF7BFFE824A82491148FDF7BAFEAD
:103F6C00814A82490E48FDF7B5FE814A81490C48C9
:103F7C00FDF7B0FE804A81490948FDF7ABFE804A47
:103F8C0080490748FDF7A6FE7F4A80490448FDF7A3
:103F9C00A1FE7F4A7F490248FDF79CFEFCE000BF72
:103FAC00F0000020C44E0008D04E0008DC4E000883
:103FBC00E84E0008F44E0008004F00080C4F0008B3
:103FCC001C4F0008284F0008684A0008304F0008B2
:103FDC00384F0008404F0008444F0008484F000875
:103FEC004C4F0008504F00085C4F0008684F000809
:103FFC00784F0008884F0008984F0008A84F000819
:10400C00AC4F0008B04F0008B44F0008B84F000880
:10401C00BC4F0008C04F0008C44F0008C84F000830
:10402C00CC4F0008D04F0008DC4F0008E84F0008C8
:10403C00F44F0008FC4F0008045000081050000812
:10404C001C5000082850000834500008405000084C
:10405C004C500008545000085C5000086450000894
:10406C006C500008745000087C5000088C500008FC
:10407C009C500008A8500008B4500008BC50000820
:10408C00C4500008D4500008E4500008F450000854
:10409C000451000814510008245100083451000840
:1040AC004451000854510008645100087451000830
:1040BC0084510008905100089C510008A851000838
:1040CC00B4510008C0510008CC510008D851000868
:1040DC00E4510008F0510008FC5100080852000897
:1040EC001452000824520008345200083C520008B4
:1040FC0044520008545200086452000874520008DC
:10410C0084520008905200089C520008A8520008E3
:10411C00B4520008BC520008C4520008CC5200082B
:10412C00D4520008E0520008EC520008F852000883
:10413C000453000814530008245300083453000897
:10414C004453000854530008645300087453000887
:10415C008453000894530008A4530008AC5300087F
:10416C00B4530008BC530008C4530008D4530008CF
:10417C00E4530008F45300080454000810540008D9
:10418C001C54000828540008345400083C540008FF
:10419C004454000850540008C14AC249C248FDF7B3
:1041AC0099FDC24AC249C048FDF794FDC14AC249B3
:1041BC00BD48FDF78FFDC14AC149BB48FDF78AFDDB
:1041CC00C04AC149B848FDF785FDC04AC049B64848
:1041DC00FDF780FDBF4AC049B348FDF77BFDBF4AE0
:1041EC00BF49B148FDF776FDBE4ABF49AE48FDF761
:1041FC0071FDBE4ABE49AC48FDF76CFDBD4ABE49D7
:10420C00A948FDF767FDBD4ABD49A748FDF762FD0A
:10421C00BC4ABD49A448FDF75DFDBC4ABC49A24857
:10422C00FDF758FDBB4ABC499F48FDF753FD0023E1
:10423C009D49BA488BF80F3000F0FDFAB84B514647
:10424C001A78002398480093FDF7E6FBFFF70FBAA6
:10425C000A4698F80010D2B28A4280F0EE81002B08
:10426C0040F0C68113460120FFF7D3BB0A4698F8ED
:10427C000010D2B28A4280F0E581002B40F0BE8162
:10428C0013460120FFF7A9BB4FF0000A0123A54AF2
:10429C0082F800A0A44A1370FCF78CFAFCF77CFAA5
:1042AC00FCF766F8FCF780F8FCF78EF8FCF7A8F83A
:1042BC00FCF7C2F8FCF7D0F8FCF7EAF8FCF72AFA9E
:1042CC00FCF790F9FCF7E2FAFCF77EF9BB20FCF75F
:1042DC003DF85046FCF728F85F20FCF737F87A20B9
:1042EC00FCF722F86020FCF731F85046FCF71CF87C
:1042FC006120FCF72BF81B20FCF716F86220FCF76A
:10430C0025F801231846FCF70FF8C020FCF71EF81F
:10431C007A20FCF709F8C120FCF718F85046FCF796
:10432C0003F8C220FCF712F81B20FBF7FDFFC3209B
:10433C00FCF70CF801231846FBF7F6FFC620FCF738
:10434C0005F85720FBF7F0FFC720FBF7FFFF50469F
:10435C00FBF7EAFFC820FBF7F9FF8A20FBF7E4FF25
:10436C00C920FBF7F3FF01231846FBF7DDFFCA203A
:10437C00FBF7ECFF5720FBF7D7FFCB20FBF7E6FF53
:10438C005046FBF7D1FF5046FCF700F9FCF742F919
:10439C00FCF736F94FF4FA60FBF784FF634B83F8B4
:1043AC0000A0634B83F800A0FFF761B9FDF770F92B
:1043BC000123604A82F800A05F4A1370FFF74BB9E3
:1043CC00012B00F02981002B7EF43FAE98F80030D1
:1043DC005A4ADBB21370FEF738BE0122002358494B
:1043EC000A70584A1370584A1370FEF72EBE4D4B84
:1043FC0093F800A0BAF1050F3FF63DAB53492A489C
:10440C0000F021FA002800F026810123504A138085
:10441C005049254800F017FA002800F018810123B4
:10442C004D4A1370FFF72ABB2370FEF79ABD082A7A
:10443C000DD14A490B780870E37049490B78013368
:10444C00DBB20B70FEF796BD6370FEF78ABD072AD0
:10445C0004D142490B7808702371EEE7092A7EF4E7
:10446C0020AE3E490B7808703D4963710B780133DF
:10447C00DBB20B703B490B78002B3EF495AD097801
:10448C0001F0FF0300293EF47FAD0021364803788C
:10449C000133DBB20370334B1970FEF783BD00BFE1
:1044AC005C54000868540008F000002074540008A4
:1044BC00805400088C54000898540008A454000838
:1044CC00B0540008BC540008C4540008CC54000874
:1044DC00D8540008E4540008F454000804550008AB
:1044EC00105500081C5500082855000834550008C4
:1044FC0044550008545500086455000874550008CC
:10450C00805500088C55000898550008785500080F
:10451C0084550008A4550008B05500087C00002004
:10452C00190100209E00002018000020C600002069
:10453C00C700002026020020240200204D0000208D
:10454C00180100207000002065000020944C000829
:10455C009C000020B44C00089F0000207B00002031
:10456C004A00002064000020EE0000208E4A1378E0
:10457C000133DBB213708D4B1B78002B7EF451ADE5
:10458C00894998F800300A789B1A0B2B10DC98F8A4
:10459C0000300A789B1A0A2B7EF757AD844B9B7A16
:1045AC00522B7EF452AD824BDB7A442B7EF44DAD14
:1045BC0001237E4A1370FEF748BD012B33D0002B2C
:1045CC007EF4F2AC7B497C480978007801447B4846
:1045DC00C9B201707848017802297EF6E5AC7848BA
:1045EC0001780131C9B2017076490B70FEF7DCBC61
:1045FC0075490A70754A1370FFF71CBA744A137028
:10460C00202101220BF80310724B1A70FFF7FCB932
:10461C00714B1870FFF7ADB998F800306F4ADBB2E8
:10462C001370FEF712BD634B63491B7809780B447A
:10463C006A49DBB20B70FEF7B7BC19460120134672
:10464C00FFF7F3B9194601201346FFF7D2B9644BB3
:10465C001870FFF713BA6349634800F0F4F8C0B15F
:10466C000223624A1380D3E62B88DA057FF5BFAEAE
:10467C004FF0080A5E4B83F800A0FFF7FCB95D49C8
:10468C00594800F0E0F868B10123594A1370FFF75C
:10469C00E9B95949544800F0D6F878B10423534A83
:1046AC001380B5E65549504800F0CDF878B1022397
:1046BC004F4A1370FFF7D6B90B46A1E74D494A484C
:1046CC0000F0C1F868B10823484A1380A0E64C49B1
:1046DC00454800F0B8F868B10323454A1370FFF75A
:1046EC00C1B94849404800F0AEF868B110233F4AC0
:1046FC0013808DE644493C4800F0A5F868B13C4B6A
:10470C0083F800A0FFF7AEB93C49374800F09BF89E
:10471C0068B12023354A13807AE63C49324800F0D0
:10472C0092F868B10623324A1370FFF79BB93449EB
:10473C002D4800F088F8C8B140232C4A138067E656
:10474C00294805A900F07FF800283FF488A9072321
:10475C00274A1370FFF786B9DA003232B2FBF4F253
:10476C0002F0070242EA0003FDF731BF28491E4858
:10477C0000F069F820B14FF480731C4A138047E6AF
:10478C002449194800F05FF820B14FF40073174A20
:10479C0013803DE61C49144800F055F8034600B15F
:1047AC008023124A138033E6C000002070000020E2
:1047BC00A0000020ED000020EC0000204D000020A7
:1047CC00EE00002064000020250200206E00002076
:1047DC007100002019010020260200204C0000204E
:1047EC009F0000207C4C0008F00000209C00002062
:1047FC009E000020804C00089C4C0008844C000853
:10480C00884C0008A44C00088C4C0008904C000804
:10481C00AC4C0008104D0008024610B51478134635
:10482C000132002CFAD1013B11F8012B03F8012FB6
:10483C00002AF9D110BD034611F8012B03F8012B06
:10484C00002AF9D17047F0B50C7864B103461A7898
:10485C0018465E1C0AB9104605E0944208D10D4674
:10486C0015F8012F02B9F0BD13F8017F9742F7D06C
:10487C003346ECE7F8B500BFF8BC08BC9E46704761
:0C488C00F8B500BFF8BC08BC9E467047A1
:084898000123013BFDD1704733
:1048A0001300000052414E47453A00003130306D50
:1048B0005620000031562000313056200000000004
:1048C00031303056200000003130303056200000AA
:1048D00037353056200000004175746F20200000ED
:1048E0004D616E75616C000031306D41200000003B
:1048F0003130306D41200000314120003341200033
:1049000031303000316B000031306B003130306BB2
:1049100000000000314D000031304D003130304D8D
:1049200000000000475049423A52656D6F7465209F
:1049300020200000475049423A54616C6B202020EF
:1049400020200000475049423A4C697374656E203C
:1049500020200000475049423A53657276696365EA
:1049600052510000475049423A4C6F63616C20201D
:104970002020000053484946540000004255464656
:1049800045523A7265616420000000004255464677
:1049900045523A777269746500000000202020209B
:1049A0002020202020202020000000004D415448DD
:1049B000454D4154494353002020202020202020F1
:1049C000202020004552524F520000006D6F72654A
:1049D0002E2E000053544550000000005343414E1A
:1049E0003A000000434831200000000043483220D4
:1049F00000000000434833200000000043483420FA
:104A000000000000434835200000000043483620E5
:104A100000000000434837200000000043483820D1
:104A200000000000434839200000000043483130B6
:104A30000000000045585445524E000054494D4571
:104A400052000000524154453A46617374202000E0
:104A5000524154453A4D656469756D005241544563
:104A60003A536C6F77202000484F4C440000000000
:104A700053544154495354494300000020202020FE
:104A8000202020202000000052616E67653A5365A7
:104A90007420566F6C746167652000002020202010
:104AA0002020202020202020202020202020000046
:104AB00052616E67653A5365742043757272656E14
:104AC0007420000046494C5445523A4F6E20000075
:104AD00046494C5445523A4F666600004750494299
:104AE0003A52656D6F746520202020202020202000
:104AF0002020202020204255464645523A726561CA
:104B0000642020204D415448454D41544943532091
:104B1000200000004D657465722046756E637469EF
:104B20006F6E3A46524F4E54202020205354415429
:104B30004953544943202054494D4552202045585B
:104B40005445524E205452494747455220000000D8
:104B5000312D426C61636B2F477265656E000000FA
:104B6000322D426C61636B2F416D626572000000F3
:104B7000332D426C61636B2F4379616E200000001E
:104B8000342D426C61636B2F5768697465000000B7
:104B9000352D477261792F416D62657220000000EA
:104BA000362D4953412D3130312047554900000001
:104BB00052414E47453A3130306D56204D616E7549
:104BC000616C2020524154453A4661737420202084
:104BD0002046494C5445523A4F6E2020484F4C4491
:104BE0002020000052454C41544956450000000029
:104BF00053484946542000005343414E2043483116
:104C0000204348322043483320434834204348352A
:104C1000204348362043483720434838204348390A
:104C2000204348313020206D6F72652E2E00000029
:104C30003A524541522000003A46524F4E5400002D
:104C4000545249474745520052414E47453A4175F3
:104C5000746F2020202020202020000052414E4749
:104C6000453A4D616E75616C2020202020200000A7
:104C7000544553543A20444953500000564443008D
:104C80005641430041444300414143004F484D00D9
:104C9000487A00006D564443000000006D564143C1
:104CA000000000006D414443000000004B4F484DA0
:104CB000000000006442000042616E6B3A20416DCA
:104CC000702F4F686D00000042414E4B3A20414D1D
:104CD000502F4F484D00000042616E6B3A20444314
:104CE0002F4F686D2000000042414E4B3A20444354
:104CF0002F4F484D20000000204F56522E464C5753
:104D0000204D4F484D0000004F562E52464C572024
:104D10004D4F484D000000004F766572666C6F770E
:104D200000000000204F5652464C5700206F70651F
:104D30006E000000204F50454E0000006D732000B3
:104D40006D5345430000000020207300534543008D
:104D50002020487A0000000020485A00206D487A40
:104D600020000000206D487A000000006F70656E22
:104D70002020202020564443000000004F562E5291
:104D8000464C572020444356000000006D414143EB
:104D9000000000004F56522E464C572000000000E5
:104DA0004F2E5652464C5720000000004F562E52B0
:104DB000464C5720000000004F5652464C572020CA
:104DC000000000004C6576656C0000004C455645BF
:104DD0004C0000006D5862004D58420052616E67F1
:104DE0006500000052414E47450000005265616475
:104DF00067732E00524447532000000042756666D8
:104E0000657220456D707479000000004255464679
:104E1000455220454D5054590000000052656164D0
:104E20002E4E6F2E00000000524447204E4F2E2081
:104E3000000000005374642E446576696174696FE4
:104E40006E0000005354442044455620202020206A
:104E50002000000041766572616765004156455249
:104E6000414745004D696E2E206174004D494E202A
:104E7000415420004D61782E206174004D4158202E
:104E8000415420004E6F205363616E204361726471
:104E9000000000004E4F205343414E2043415244F6
:104EA0000000000048616C74205363616E6E65728F
:104EB0000000000048414C54205343414E4E45529F
:104EC00000000000636C6F7365204368616E3A00F8
:104ED000434C4F5345204348414E3A006F70656E36
:104EE000204368616E3A00004F50454E20434841D0
:104EF0004E3A000044656C61793A206175746F0028
:104F000044454C41593A204155544F0044656C6129
:104F1000793A206D616E75616C00000044454C412A
:104F2000593A204D414E2000486F6C64000000004B
:104F3000436F756E743A0000434F554E543A00006B
:104F400048693A0048493A004C6F3A004C4F3A00E1
:104F5000426565703A206E6576657200424545503F
:104F60003A204E4556455200426565703A20696EBA
:104F70007369646520000000424545503A20494E5F
:104F80005349444520000000426565703A206F7522
:104F90007473696465000000424545503A204F55DE
:104FA00054534944450000003A696E003A494E00A6
:104FB0003A6C6F003A4C4F003A6869003A48490031
:104FC0006D3A20004D3A2000623A2000423A20001B
:104FD000556E6974733A206D58620000554E4954FD
:104FE000533A204D58420000554E4954533A206DD3
:104FF000586200005265663A000000005245463A89
:1050000000000000556E6974733A204300000000F0
:10501000554E4954533A204300000000556E6974C0
:10502000733A204600000000554E4954533A20463A
:1050300000000000556E6974733A204B00000000B8
:10504000554E4954533A204B000000005479706586
:105050003A204300545950453A204A00547970652B
:105060003A205400545950453A2054005479706500
:105070003A204B00545950453A204B004A756E6314
:105080003A2073696D756C2E000000004A554E433E
:105090003A2053494D202020000000004A756E63DD
:1050A0003A204348310000004A554E433A204348D5
:1050B0003100000053696D3A2000000053496D3AF9
:1050C00020000000547970653A204D6F762E4176AD
:1050D000672E0000545950453A4D4F564E472041D7
:1050E00056200000547970653A20526570656174ED
:1050F00000000000545950453A2052455045415453
:1051000000000000546573743A4275696C642D495F
:105110006E000000544553543A4255494C542D49B1
:105120004E00000053656C6563743A536368656DA7
:1051300065000000544553543A2044495350202000
:1051400020000000546573743A204B657973202069
:1051500020000000544553543A204B45592020204C
:10516000200000006E6F204B6579707265737320AC
:10517000000000004E4F204B4559205052455353DC
:10518000000000004249543A206175746F202000ED
:105190004249543A204155544F2020004249543A44
:1051A000206D616E75616C004249543A204D414E4C
:1051B00055414C0042616E6B3A2066756C6C200064
:1051C00042414E4B3A2046554C4C200042616E6B9A
:1051D0003A2053656E73650042414E4B3A20534569
:1051E0004E53450042616E6B3A20564143202000E9
:1051F00042414E4B3A2056616320200042616E6B63
:105200003A20412F4420200042414E4B3A20412F6A
:105210004420200042616E6B3A205265662F4D7526
:105220007800000042414E4B3A205245462F4D55E2
:10523000580000006D616E75616C3A004D414E552D
:10524000414C3A004661756C743A20636F6E742E5F
:10525000000000004641554C543A20434F4E542024
:10526000000000004661756C743A207061757365CA
:10527000000000004641554C543A205041555345DA
:10528000000000005265706561743A207965730012
:105290005245504541543A20594553005265706576
:1052A00061743A206E6F20005245504541543A20B7
:1052B0004E4F20004661756C740000004641554C0D
:1052C000540000004661696C733A00004641494C45
:1052D000533A0000536176653F2059657300000022
:1052E000534156453F2059455300000053617665B0
:1052F0003F204E6F20000000534156453F204E4F47
:1053000020000000526573746F72653A2046616335
:10531000742E0000524553544F52453A20464143A3
:1053200054200000526573746F72653A205573659E
:1053300072200000524553544F52453A2055534570
:105340005220000043616C3A202044617465732050
:105350002020000043414C3A202044415445532032
:105360002020000043616C3A2020436F756E74204A
:105370002020000043414C3A2020434F554E5420FA
:105380002020000043616C3A202052756E202020BE
:105390002020000043414C3A202052554E2020202E
:1053A00020200000446174653A00000044415445E7
:1053B0003A0000004E6578743A0000004E445545AE
:1053C0003A000000547970653A20696E7465726E17
:1053D00000000000545950453A20494E54202020E6
:1053E00000000000547970653A2065787465726E2B
:1053F00000000000545950453A20455854202020C0
:1054000000000000475049423A206F6E2000000023
:10541000475049623A204F4E200000004750494211
:105420003A206F6666000000475049623A204F46B6
:1054300046000000416464723A0000004144445256
:105440003A0000004C616E673A2053435049000017
:105450004C414E473A205343504900004C616E671F
:105460003A203139392000004C414E473A20313939
:10547000392000004C616E673A2038383432000021
:105480004C414E473A2038383432000052532D32C6
:1054900033323A206F6666005253203233323A205C
:1054A0004F46460052532D3233323A206F6E200061
:1054B0005253203233323A204F4E200042617564FD
:1054C0003A000000424155443A000000466C6F77B4
:1054D0003A206E6F6E650000464C4F573A204E4F93
:1054E0004E450000466C6F773A20586F6E586F66D5
:1054F00066000000464C4F573A20586F6E586F6652
:105500006600000054582D5465726D3A20435200D5
:105510005458205445526D3A2043520054582D544B
:1055200065726D3A204C46005458205445526D3AED
:10553000204C460054582D5465726D3A204C464319
:10554000520000005458205445526D3A204C4643B6
:105550005200000054582D5465726D3A2043524C4D
:10556000460000005458205445526D3A2043524C96
:10557000460000006E657720436F64653F000000C1
:105580004E455720434F44453F000000696E636F0E
:105590007272656374210000494E434F5252454375
:1055A0005420000043616C2061626F727465640076
:1055B00043414C2041424F52544544004F7665725E
:1055C000666C6F7720204D1220000000204D1220C5
:1055D00000000000206B122000000000206D561516
:1055E000200000002056152000000000206D41150D
:1055F000200000002041152000000000206D5616FC
:10560000200000002056162000000000206D4116EA
:1056100020000000204116200000000010534543E8
:1056200000000000201073200000000044432056BA
:105630004F4C544147450000414320564F4C544184
:105640004745000044432043555252454E54000004
:1056500041432043555252454E5400003257205288
:105660004553495354414E4345000000345720529E
:105670004553495354414E4345000000465245515D
:1056800055454E435900000054454D504552415434
:1056900055524500434F4E54494E55495459000008
:1056A00044494F4445000000504552494F440000D2
:1056B00001000200000003000000E4E8F08700069B
:1056C000F0FFE0FF00068004FFFFFF0700F820FD69
:1056D0000000E4E820FDA0A3A0D68094A0A3E0826F
:1056E0008006BA0600F81F420000E4E8FF07F30452
:1056F0001FF814A0F304CE03FFFF1F0000F8E0071B
:105700000000E4E8FFFF18C6E0FF20FD18C69294F1
:10571000E007FF0700F820FD4711E4E8C0FD40BCAA
:10572000E0FBC0B2FFFF58C6E007FF0700B8C0FDAE
:1057300099CEE4E80000EB5AE789455917009873C1
:10574000A004310400B880AB484746454443424179
:10575000504F4E4D4C4B00005857565554535251D4
:10576000605F5E5D5C5B5A002C560008385600088E
:1057700044560008505600085C5600086C56000855
:105780007C5600088856000894560008A056000869
:04579000A85600080F
:0457940031010008D7
:045798000D010008F7
:10579C0002040608000000000102030401020304D5
:1057AC0006070809FF00FF000142010032303030CB
:0857BC00205631362020800048
:040000050800015D91
:00000001FF
