:020000040800F2
:1000000098080020A93D0008AD3D0008AF3D00085C
:10001000B13D0008B33D0008B53D000800000000F8
:10002000000000000000000000000000B73D0008D4
:10003000B93D000800000000BB3D0008BD3D0008C0
:10004000BF3D0008BF3D0008BF3D0008BF3D0008A0
:10005000BF3D0008BF3D0008BF3D0008BF3D000890
:10006000BF3D0008BF3D0008BF3D0008BF3D000880
:10007000BF3D0008BF3D0008BF3D0008BF3D000870
:10008000BF3D0008BF3D0008BF3D0008BF3D000860
:10009000BF3D0008BF3D0008BF3D0008BF3D000850
:1000A000BF3D0008BF3D0008BF3D0008BF3D000840
:1000B000BF3D0008BF3D0008BF3D0008BF3D000830
:1000C000BF3D0008BF3D0008BF3D0008BF3D000820
:1000D000BF3D0008BF3D0008BF3D0008BF3D000810
:1000E000BF3D0008BF3D0008BF3D000800F002F81A
:1000F00000F03AF80AA090E8000C82448344AAF188
:100100000107DA4501D100F02FF8AFF2090EBAE885
:100110000F0013F0010F18BFFB1A43F0010318473B
:10012000C4520000E4520000103A24BF78C878C1DD
:10013000FAD8520724BF30C830C144BF04680C60ED
:10014000704700000023002400250026103A28BF35
:1001500078C1FBD8520728BF30C148BF0B60704739
:100160001FB51FBD10B510BD05F0F6F81146FFF71D
:10017000F7FF00F009F805F028F903B4FFF7F2FFE4
:1001800003BC00F0EBF800001FB503F08CFD00F09D
:100190007BF84FF4E13000F0EFF800F003FA00F0E4
:1001A000F6F937A005F09AF803F060FC64200346E6
:1001B000C82200210090012003F08AFC01F01AFB04
:1001C00001F088FA002001F08CFD4FF4806001F00E
:1001D0009DFD0021084601F0A4FD002001F0D6FE9F
:1001E0004FF4806001F0E7FE0021084601F0EEFECA
:1001F0004FF416714FF4806001F0FCFE3EE04FF4C6
:1002000078404FF416734FF4806200210090084646
:1002100003F044FC4FF47A7000F073F84FF4FC6084
:1002200040F2262340F2CE3232210090084603F0FD
:1002300035FC4FF47A7000F064F81F204FF4FA7325
:100240004FF4677264210090084603F027FC4FF4D6
:100250007A7000F056F800204FF480614FF4167267
:10026000CDE9001203460246CDE902100146012005
:1002700003F059FC4FF47A7000F043F8BFE7000038
:100280007379736F6B0D0A0010B56FF0040003F003
:10029000F4FD2E4800682E49B0FBF1F02D4908709E
:1002A0000846007800EB4001C1EBC0104FF6FF712B
:1002B00001EAC0002849088010BD0146254A12788D
:1002C0004A434FF0E0235A6100229A611A461269AC
:1002D00042F001021A6100BF4FF0E022106900F005
:1002E00001021AB100F48032002AF5D04FF0E0226A
:1002F000126922F001024FF0E0231A6100229A6194
:1003000070470146144A12884A434FF0E0235A616D
:1003100000229A611A46126942F001021A6100BF76
:100320004FF0E022106900F001021AB100F48032AF
:10033000002AF5D04FF0E022126922F001024FF0BE
:10034000E0231A6100229A61704700000C0000202F
:1003500000127A00000000200200002000BF704759
:1003600000BF284A128802F04002002AF9D0C2B227
:10037000244B1B1D1A80704710B586B0044601211E
:1003800044F2040004F0BAFB4FF40070ADF814001E
:1003900003208DF8160018208DF8170005A91A48BB
:1003A00004F0F0F84FF48060ADF8140004208DF8EC
:1003B000170005A9144804F0E5F825208DF8000081
:1003C00003208DF801008DF8020001208DF8030054
:1003D000684603F008FD01940020ADF80800ADF870
:1003E0000A00ADF80C00ADF810000C20ADF80E00BE
:1003F00001A9044804F0AFFD0121024804F037FED2
:1004000006B010BD003801400008014000B59FB0A3
:100410000121080204F065FB01214FF4B47004F0DF
:100420006DFB4CF23370ADF8780018208DF87B002E
:1004300003208DF87A001EA9574804F0A3F84FF660
:100440008070ADF8780018208DF87B0003208DF8BF
:100450007A001EA9514804F095F84FF40860ADF8F1
:10046000780018208DF87B0003208DF87A001EA9F3
:10047000494804F087F801200890002009900120E5
:100480000A9000200B900C900D900E90012001908E
:100490000020029001200390002004900590069017
:1004A00007900F90109008201190102012900020BB
:1004B00013901590149016904FF400601790400020
:1004C00018904000199040001A9000201B9008A836
:1004D0001C9001A81D900FA803F03AFD01210020F7
:1004E00003F09EFE1FB000BD4FF0C0410880704772
:1004F0002B49088070472A490880704700204FF038
:10050000C0410988C8B27047002025490888704753
:1005100000B502461046FFF7E7FF00BD00B50246F2
:100520001046FFF7E5FF00BD00B502461046FFF795
:10053000E2FF00BD00B50022FFF7E0FF02461046D3
:1005400000BD00B50022FFF7DFFF0246104600BDE8
:10055000002106E00C2100BF0A1EA1F1010399B29F
:10056000FAD1021EA0F1010398B2F3D17047002125
:1005700007E042F6E06100BF0A1EA1F1010399B253
:10058000FAD1021EA0F1010398B2F2D1704710B562
:10059000FFF73CFF10BD00000014014000180140AF
:1005A0000000026000B587B00121042004F0A6FA23
:1005B000E020ADF8180018208DF81B0003208DF8FE
:1005C0001A0006A9D54803F0DDFF0121042004F03C
:1005D00095FA1020D14910310860ADF818008DF857
:1005E0001B0003208DF81A0006A9CC4803F0CAFFAF
:1005F0001021CA4804F07EF80121080304F07EFAB5
:100600000021C74804F0A9FB0020ADF804004FF416
:100610008270ADF806000020ADF80800ADF80A00C1
:10062000ADF80C004FF40070ADF80E000820ADF8E6
:1006300010000020ADF812000720ADF8140001A949
:10064000B74804F0E5FA0121B54804F086FB07B08D
:1006500000BD014600BFB248008900F0020000283A
:10066000F9D0AF48818100BFAD48008900F001009A
:100670000028F9D0AA488089C0B2704700B500228E
:100680001020A649143108600520FFF7E2FFFF2083
:10069000FFF7DFFF02461020A04910310860104626
:1006A00000BD00B5002210209C4914310860902044
:1006B000FFF7CFFF0020FFF7CCFF0020FFF7C9FFB7
:1006C0000020FFF7C6FFFF20FFF7C3FF42EA00222A
:1006D000FF20FFF7BEFF0243102090491031086051
:1006E000104600BD00B500BFFFF7C8FF00F00100D5
:1006F0000028F9D100BD00B5FFF7C0FF00F00100F0
:1007000008B1012000BD0020FCE700B5102083499E
:1007100014310860B920FFF79CFF10207F49103189
:100720000860D82200BF101EA2F101018AB2FAD1DE
:1007300000BD00B51020794914310860AB20FFF7E7
:1007400088FF1020754910310860D82200BF101EA4
:10075000A2F101018AB2FAD100BD00B50346FFF74C
:10076000C1FF10206D49143108606020FFF771FF50
:1007700010206A49103108600BB1FFF7B3FF00BDCC
:1007800010B503460C46FFF7ADFF10206349143146
:1007900008602020FFF75DFFC3F30740FFF759FF14
:1007A000C3F30720FFF755FFD8B2FFF752FF102021
:1007B0005A49103108600CB1FFF794FF10BD30B5F5
:1007C00005460C46B4F5004F20D2220210205349B2
:1007D000143108600320FFF73CFFC2F30740FFF726
:1007E00038FFC2F30720FFF734FFD0B2FFF731FF25
:1007F000002305E0FF20FFF72CFFE854581C83B2CC
:10080000FF2BF7DD102045491031086030BD70B571
:1008100005460E46FFF766FF340210203F491431AB
:1008200008600220FFF715FFC4F30740FFF711FF30
:10083000C4F30720FFF70DFFE0B2FFF70AFF002324
:1008400004E0E85CFFF705FF581C83B2FF2BF8DDDE
:10085000102032491031086070BD30B504460B4697
:10086000154610202D49143108600320FFF7F1FED2
:10087000C3F30740FFF7EDFEC3F30720FFF7E9FEE0
:10088000D8B2FFF7E6FE002205E0FF20FFF7E1FE09
:10089000A054501C82B2AA42F7DB10201F4910312D
:1008A000086030BD00B5034610201C4914310860B3
:1008B0004B20FFF7CEFE0020FFF7CBFE0020FFF716
:1008C000C8FE0020FFF7C5FE0020FFF7C2FE002291
:1008D00005E0FF20FFF7BDFE9854501CC2B2082A65
:1008E000F7DB10200D491031086000BD08B501216B
:1008F000042004F003F9F020ADF8000048208DF842
:10090000030003208DF802006946044803F03AFE14
:10091000102002491031086000BFFEE700080140C6
:100920000030014070B505460C462846FFF7F0FD43
:100930002046FFF7F3FD70BD70B504462046FFF773
:10094000E7FDFFF7FEFDC5B2284670BD10B500BF3C
:10095000FFF7F0FD00F080000028F9D110BD10B5C0
:1009600000BFFFF7E7FD00F040000028F9D010BD00
:1009700010B500BFFFF7DEFD00F020000028F9D120
:1009800010BD10B500BFFFF7D5FD00F01000002826
:10099000F9D110BD10B500BFFFF7CCFD00F0080085
:1009A0000028F9D110BD10B500BFFFF7C3FD00F05E
:1009B00004010029F9D010BD10B5FFF7BBFD00F010
:1009C0000200022801D1012400E00024204610BDCD
:1009D00010B500BFFFF7AEFD00F002000028F9D10E
:1009E00010BD10B500BFFFF7A5FD00F00200002804
:1009F000F9D010BD10B500BFFFF79CFD00F001005D
:100A00000028F9D110BD10B500BFFFF793FD00F02D
:100A100001000028F9D010BD10B500BFFFF78AFD16
:100A200000F008010029F9D110BD10B50020FFF732
:100A30006FFDFFF786FDC4B244F001042046FFF7C6
:100A40006DFD00BFFFF77DFDC4B204F0010000287A
:100A5000F8D110BD10B50120FFF75AFDFFF771FD69
:100A6000C4B244F080042046FFF758FD0120FFF790
:100A70006FFD10BD10B50120FFF74AFDFFF761FDC6
:100A8000C4B244F040042046FFF748FD10BD10B545
:100A90000120FFF73DFDFFF754FDC4B204F0BF0491
:100AA0002046FFF73BFD10BD10B50120FFF730FDDC
:100AB000FFF747FDC4B244F020042046FFF72EFDA7
:100AC00010BD10B50120FFF723FDFFF73AFDC4B2BA
:100AD00004F0DF042046FFF721FD10BD10B5012012
:100AE000FFF716FDFFF72DFDC4B204F0EF0404F08C
:100AF000F7042046FFF712FD10BD10B50120FFF7E7
:100B000007FDFFF71EFDC4B204F0EF0444F0080433
:100B10002046FFF703FD10BD10B50120FFF7F8FCDC
:100B2000FFF70FFDC4B244F0100404F0F7042046B0
:100B3000FFF7F4FC10BD10B50120FFF7E9FCFFF74B
:100B400000FDC4B244F0100444F008042046FFF74E
:100B5000E5FC10BD10B50120FFF7DAFCFFF7F1FC52
:100B6000C4B244F004042046FFF7D8FC10BD10B511
:100B70000120FFF7CDFCFFF7E4FCC4B204F0FB0456
:100B80002046FFF7CBFC10BD10B50120FFF7C0FCDD
:100B9000FFF7D7FCC4B204F0FE042046FFF7BEFC0A
:100BA00010BD10B50120FFF7B3FCFFF7CAFCC4B2BB
:100BB00044F001042046FFF7B1FC10BD10B502203F
:100BC000FFF7A6FCFFF7BDFCC4B204F07F0404F0FD
:100BD000BF042046FFF7A2FC10BD10B50220FFF7AE
:100BE00097FCFFF7AEFCC4B204F07F0444F040046D
:100BF0002046FFF793FC10BD10B50220FFF788FCDC
:100C0000FFF79FFCC4B204F07F0404F0BF04204649
:100C1000FFF784FC10BD10B50220FFF779FCFFF749
:100C200090FCC4B244F0800404F0BF042046FFF7F7
:100C300075FC10BD10B50220FFF76AFCFFF781FCC0
:100C4000C4B204F07F0444F040042046FFF766FC81
:100C500010BD10B50220FFF75BFCFFF772FCC4B2B9
:100C600004F07F0404F0BF042046FFF757FC10BDDA
:100C700010B50220FFF74CFCFFF763FCC4B244F050
:100C8000800444F040042046FFF748FC10BD10B536
:100C90000220FFF73DFCFFF754FCC4B204F0DF0470
:100CA00004F0EF042046FFF739FC10BD10B5022018
:100CB000FFF72EFCFFF745FCC4B204F0DF0444F05C
:100CC00010042046FFF72AFC10BD10B50220FFF7E4
:100CD0001FFCFFF736FCC4B244F0200404F0EF041C
:100CE0002046FFF71BFC10BD10B50220FFF710FCDB
:100CF000FFF727FCC4B244F0200444F0100420465F
:100D0000FFF70CFC10BD10B50220FFF701FCFFF748
:100D100018FCC4B204F0FB0404F0FD042046FFF705
:100D2000FDFB10BD10B50220FFF7F2FBFFF709FC39
:100D3000C4B204F0FB0444F002042046FFF7EEFBCB
:100D400010BD10B50220FFF7E3FBFFF7FAFBC4B2BA
:100D500044F0040404F0FD042046FFF7DFFB10BD5F
:100D600010B50220FFF7D4FBFFF7EBFBC4B244F051
:100D7000040444F002042046FFF7D0FB10BD10B578
:100D80000320FFF7C5FBFFF7DCFBC4B204F07F04D0
:100D90002046FFF7C3FB10BD10B50320FFF7B8FBDB
:100DA000FFF7CFFBC4B244F080042046FFF7B6FB48
:100DB00010BD10B50320FFF7ABFBFFF7C2FBC4B2B9
:100DC00044F040042046FFF7A9FB10BD10B50320F6
:100DD000FFF79EFBFFF7B5FBC4B204F0BF0420464B
:100DE000FFF79CFB10BD10B50320FFF791FBFFF749
:100DF000A8FBC4B204F0DF0404F0EF042046FFF7C0
:100E00008DFB10BD10B50320FFF782FBFFF799FBA8
:100E1000C4B244F0200404F0EF042046FFF77EFB48
:100E200010BD10B50320FFF773FBFFF78AFBC4B2B8
:100E300004F0DF0444F010042046FFF76FFB10BD00
:100E400010B50320FFF764FBFFF77BFBC4B244F04F
:100E5000200444F010042046FFF760FB10BD10B5DD
:100E60000320FFF755FBFFF76CFBC4B204F0F70457
:100E70002046FFF753FB10BD10B50320FFF748FBDA
:100E8000FFF75FFBC4B244F008042046FFF746FBBF
:100E900010BD10B50320FFF73BFBFFF752FBC4B2B8
:100EA00004F0FB042046FFF739FB10BD10B503200A
:100EB000FFF72EFBFFF745FBC4B244F004042046C5
:100EC000FFF72CFB10BD10B50320FFF721FBFFF748
:100ED00038FBC4B204F0FD0404F0FE042046FFF722
:100EE0001DFB10BD10B50320FFF712FBFFF729FB18
:100EF000C4B244F0020404F0FE042046FFF70EFBE7
:100F000010BD10B50320FFF703FBFFF71AFBC4B2B7
:100F100044F0020444F001042046FFF7FFFA10BD3C
:100F200010B50B20FFF7F4FAFFF70BFBC4B244F047
:100F300080042046FFF7F2FA10BD10B50B20FFF732
:100F4000E7FAFFF7FEFAC4B204F07F042046FFF789
:100F5000E5FA10BD10B50B20FFF7DAFAFFF7F1FA4A
:100F6000C4B244F040042046FFF7D8FA10BD10B5D3
:100F70000B20FFF7CDFAFFF7E4FAC4B204F0BF0488
:100F80002046FFF7CBFA10BD10B50B20FFF7C0FAD3
:100F9000FFF7D7FAC4B244F020042046FFF7BEFAA8
:100FA00010BD10B50B20FFF7B3FAFFF7CAFAC4B2B1
:100FB00004F0DF042046FFF7B1FA10BD10B50B2096
:100FC000FFF7A6FAFFF7BDFAC4B244F010042046BA
:100FD000FFF7A4FA10BD10B50B20FFF799FAFFF741
:100FE000B0FAC4B204F0EF042046FFF797FA10BD40
:100FF00010B50B20FFF78CFAFFF7A3FAC4B244F048
:1010000008042046FFF78AFA10BD10B50B20FFF741
:101010007FFAFFF796FAC4B204F0F7042046FFF710
:101020007DFA10BD10B50B20FFF772FAFFF789FAB1
:10103000C4B244F004042046FFF770FA10BD10B5A6
:101040000B20FFF765FAFFF77CFAC4B204F0FB044B
:101050002046FFF763FA10BD10B50B20FFF758FAD2
:10106000FFF76FFAC4B244F002042046FFF756FAC5
:1010700010BD10B50B20FFF74BFAFFF762FAC4B2B0
:1010800004F0FD042046FFF749FA10BD10B50B200F
:10109000FFF73EFAFFF755FAC4B244F001042046C8
:1010A000FFF73CFA10BD10B50B20FFF731FAFFF740
:1010B00048FAC4B204F0FE042046FFF72FFA10BD30
:1010C00010B50C20FFF724FAFFF73BFAC4B2204614
:1010D00010BD10B50C20FFF71BFAFFF732FAC4B2AF
:1010E00044F080042046FFF719FA10BD10B50C201B
:1010F000FFF70EFAFFF725FAC4B244F04004204689
:10110000FFF70CFA10BD10B50C20FFF701FAFFF73E
:1011100018FAC4B244F020042046FFF7FFF910BDCE
:1011200010B50C20FFF7F4F9FFF70BFAC4B244F046
:1011300010042046FFF7F2F910BD10B50C20FFF7A0
:10114000E7F9FFF7FEF9C4B244F008042046FFF7C0
:10115000E5F910BD10B50C20FFF7DAF9FFF7F1F94A
:10116000C4B244F004042046FFF7D8F910BD10B50E
:101170000C20FFF7CDF9FFF7E4F9C4B244F0020404
:101180002046FFF7CBF910BD10B50C20FFF7C0F9D2
:10119000FFF7D7F9C4B244F001042046FFF7BEF9C7
:1011A00010BD10B50D20FFF7B3F9FFF7CAF9C4B2AF
:1011B00044F080042046FFF7B1F910BD10B50D20B2
:1011C000FFF7A6F9FFF7BDF9C4B244F0400420468A
:1011D000FFF7A4F910BD10B50D20FFF799F9FFF73F
:1011E000B0F9C4B244F020042046FFF797F910BDCF
:1011F00010B50D20FFF78CF9FFF7A3F9C4B244F046
:1012000010042046FFF78AF910BD10B50D20FFF736
:101210007FF9FFF796F9C4B244F008042046FFF7BF
:101220007DF910BD10B50D20FFF772F9FFF789F9B0
:10123000C4B244F004042046FFF770F910BD10B5A5
:101240000D20FFF765F9FFF77CF9C4B244F0020402
:101250002046FFF763F910BD10B50D20FFF758F9D0
:10126000FFF76FF9C4B244F001042046FFF756F9C6
:1012700010BD10B50D20FFF74BF9FFF762F9C4B2AE
:1012800004F07F042046FFF749F910BD10B50D208A
:10129000FFF73EF9FFF755F9C4B204F0BF0420464A
:1012A000FFF73CF910BD10B50D20FFF731F9FFF73E
:1012B00048F9C4B204F0DF042046FFF72FF910BD4F
:1012C00010B50D20FFF724F9FFF73BF9C4B204F085
:1012D000EF042046FFF722F910BD10B50D20FFF7EF
:1012E00017F9FFF72EF9C4B204F0F7042046FFF710
:1012F00015F910BD10B50D20FFF70AF9FFF721F918
:10130000C4B204F0FB042046FFF708F910BD10B585
:101310000D20FFF7FDF8FFF714F9C4B204F0FD0447
:101320002046FFF7FBF810BD10B50D20FFF7F0F8D1
:10133000FFF707F9C4B204F0FE042046FFF7EEF809
:1013400010BD10B50E20FFF7E3F8FFF7FAF8C4B2AE
:1013500044F020042046FFF7E1F810BD10B50E2040
:10136000FFF7D6F8FFF7EDF8C4B244F010042046BA
:10137000FFF7D4F810BD10B50E20FFF7C9F8FFF73E
:10138000E0F8C4B244F008042046FFF7C7F810BDE7
:1013900010B50E20FFF7BCF8FFF7D3F8C4B244F045
:1013A00004042046FFF7BAF810BD10B50E20FFF771
:1013B000AFF8FFF7C6F8C4B244F002042046FFF7C6
:1013C000ADF810BD10B50E20FFF7A2F8FFF7B9F881
:1013D000C4B244F001042046FFF7A0F810BD10B5D8
:1013E0000E20FFF795F8FFF7ACF8C4B204F0DF0465
:1013F0002046FFF793F810BD10B50E20FFF788F8D0
:10140000FFF79FF8C4B204F0EF042046FFF786F818
:1014100010BD10B50E20FFF77BF8FFF792F8C4B2AD
:1014200004F0F7042046FFF779F810BD10B50E2040
:10143000FFF76EF8FFF785F8C4B204F0FB0420460E
:10144000FFF76CF810BD10B50E20FFF761F8FFF73D
:1014500078F8C4B204F0FD042046FFF75FF810BD31
:1014600010B50E20FFF754F8FFF76BF8C4B204F084
:10147000FE042046FFF752F810BD10B50F20FFF70D
:1014800047F8FFF75EF8C4B204F07F042046FFF788
:1014900045F810BD10B50F20FFF73AF8FFF751F8E7
:1014A000C4B244F080042046FFF738F810BD10B5F0
:1014B0000F20FFF72DF8FFF744F8C4B204F0BF0483
:1014C0002046FFF72BF810BD10B50F20FFF720F8CE
:1014D000FFF737F8C4B244F040042046FFF71EF887
:1014E00010BD10B50F20FFF713F8FFF72AF8C4B2AC
:1014F00004F0DF042046FFF711F810BD10B50F20EF
:10150000FFF706F8FFF71DF8C4B244F020042046A8
:10151000FFF704F810BD10B50F20FEF7F9FFFFF735
:1015200010F8C4B204F0EF042046FEF7F7FF10BD38
:1015300010B50F20FEF7ECFFFFF703F8C4B244F03C
:1015400010042046FEF7EAFF10BD10B50F20FEF78D
:10155000DFFFFEF7F6FFC4B204F0F7042046FEF703
:10156000DDFF10BD10B50F20FEF7D2FFFEF7E9FF3B
:10157000C4B244F008042046FEF7D0FF10BD10B5F9
:101580000F20FEF7C5FFFEF7DCFFC4B204F0FB043A
:101590002046FEF7C3FF10BD10B50F20FEF7B8FFC1
:1015A000FEF7CFFFC4B244F004042046FEF7B6FFB6
:1015B00010BD10B50F20FEF7ABFFFEF7C2FFC4B29F
:1015C00004F0FD042046FEF7A9FF10BD10B50F2062
:1015D000FEF79EFFFEF7B5FFC4B244F002042046BA
:1015E000FEF79CFF10BD10B50F20FEF791FFFEF730
:1015F000A8FFC4B204F0FE042046FEF78FFF10BD22
:1016000010B50F20FEF784FFFEF79BFFC4B244F035
:1016100001042046FEF782FF10BD10B51020FEF732
:1016200077FFFEF78EFFC4B244F080042046FEF739
:1016300075FF10BD10B51020FEF76AFFFEF781FFA1
:10164000C4B204F07F042046FEF768FF10BD10B559
:101650001020FEF75DFFFEF774FFC4B244F04004B3
:101660002046FEF75BFF10BD10B51020FEF750FFBF
:10167000FEF767FFC4B204F0BF042046FEF74EFF3A
:1016800010BD10B51020FEF743FFFEF75AFFC4B29D
:1016900004F0EF042046FEF741FF10BD10B5102006
:1016A000FEF736FFFEF74DFFC4B244F010042046AB
:1016B000FEF734FF10BD10B51020FEF729FFFEF72E
:1016C00040FFC4B204F0F70404F0FB042046FEF728
:1016D00025FF10BD10B51020FEF71AFFFEF731FFF1
:1016E000C4B204F0F70444F004042046FEF716FFE9
:1016F00010BD10B51020FEF70BFFFEF722FFC4B29D
:1017000044F008042046FEF709FF10BD10B5112073
:10171000FEF7FEFEFEF715FFC4B204F0FD0404F070
:10172000FE042046FEF7FAFE10BD10B51120FEF7AC
:10173000EFFEFEF706FFC4B204F0FD0444F001041E
:101740002046FEF7EBFE10BD10B51120FEF7E0FEBF
:10175000FEF7F7FEC4B244F0020404F0FE04204693
:10176000FEF7DCFE10BD10B51120FEF7D1FEFEF72E
:10177000E8FEC4B204F0F70404F0FB042046FEF7D0
:10178000CDFE10BD10B51120FEF7C2FEFEF7D9FE4A
:10179000C4B204F0F70444F004042046FEF7BEFE91
:1017A00010BD10B51120FEF7B3FEFEF7CAFEC4B29D
:1017B00044F0080404F0FB042046FEF7AFFE10BD21
:1017C00010B51220FEF7A4FEFEF7BBFEC4B204F073
:1017D0007F042046FEF7A2FE10BD10B51220FEF7D2
:1017E00097FEFEF7AEFEC4B244F080042046FEF73A
:1017F00095FE10BD10B51220FEF78AFEFEF7A1FE81
:10180000C4B244F040042046FEF788FE10BD10B577
:101810001220FEF77DFEFEF794FEC4B204F0BF0472
:101820002046FEF77BFE10BD10B51220FEF770FEBD
:10183000FEF787FEC4B244F020042046FEF76EFE99
:1018400010BD10B51220FEF763FEFEF77AFEC4B29B
:1018500004F0DF042046FEF761FE10BD10B5122033
:10186000FEF756FEFEF76DFEC4B204F0EF0420460C
:10187000FEF754FE10BD10B51220FEF749FEFEF72C
:1018800060FEC4B244F010042046FEF747FE10BDCF
:1018900010B51220FEF73CFEFEF753FEC4B204F072
:1018A000F7042046FEF73AFE10BD10B51220FEF7F1
:1018B0002FFEFEF746FEC4B244F008042046FEF7B1
:1018C0002DFE10BD10B51220FEF722FEFEF739FEE8
:1018D000C4B204F0F8042046FEF720FE10BD10B597
:1018E0001220FEF715FEFEF72CFEC4B204F0F80439
:1018F00044F001042046FEF711FE10BD10B5122081
:10190000FEF706FEFEF71DFEC4B204F0F80444F034
:1019100002042046FEF702FE10BD10B51220FEF7AD
:10192000F7FDFEF70EFEC4B204F0F80444F0020422
:1019300044F001042046FEF7F1FD10BD10B5122061
:10194000FEF7E6FDFEF7FDFDC4B204F0F80444F036
:1019500004042046FEF7E2FD10BD10B51220FEF78C
:10196000D7FDFEF7EEFDC4B204F0F80444F0040421
:1019700044F001042046FEF7D1FD10BD10B5122041
:10198000FEF7C6FDFEF7DDFDC4B244F007042046B5
:10199000FEF7C4FD10BD10B51320FEF7B9FDFEF72C
:1019A000D0FDC4B204F07F042046FEF7B7FD10BDA1
:1019B00010B51320FEF7ACFDFEF7C3FDC4B244F032
:1019C00080042046FEF7AAFD10BD10B51320FEF7D7
:1019D0009FFDFEF7B6FDC4B204F0BF042046FEF73B
:1019E0009DFD10BD10B51320FEF792FDFEF7A9FD79
:1019F000C4B244F040042046FEF790FD10BD10B57F
:101A00001320FEF785FDFEF79CFDC4B244F02004D0
:101A10002046FEF783FD10BD10B51320FEF778FDBC
:101A2000FEF78FFDC4B204F0DF042046FEF776FD1A
:101A300010BD10B51320FEF76BFDFEF782FDC4B29A
:101A400004F0EF042046FEF769FD10BD10B5132029
:101A5000FEF75EFDFEF775FDC4B244F010042046AB
:101A6000FEF75CFD10BD10B51320FEF751FDFEF72B
:101A700068FDC4B204F0F7042046FEF74FFD10BD28
:101A800010B51320FEF744FDFEF75BFDC4B244F031
:101A900008042046FEF742FD10BD10B51320FEF7E6
:101AA00037FDFEF74EFDC4B204F0FB042046FEF7FE
:101AB00035FD10BD10B51320FEF72AFDFEF741FDE0
:101AC000C4B244F004042046FEF728FD10BD10B552
:101AD0001320FEF71DFDFEF734FDC4B204F0FD0433
:101AE0002046FEF71BFD10BD10B51320FEF710FDBC
:101AF000FEF727FDC4B244F002042046FEF70EFDB7
:101B000010BD10B51320FEF703FDFEF71AFDC4B299
:101B100004F0FE042046FEF701FD10BD10B51320B1
:101B2000FEF7F6FCFEF70DFDC4B244F001042046BA
:101B3000FEF7F4FC10BD70B504460D46082C1DDA06
:101B40001420FEF7E5FC0020FEF7E8FC1520FEF768
:101B5000DFFCE0B2FEF7E2FC681EC6B21A20FEF718
:101B6000D7FC3046FEF7DAFC681EC0F307261B20C0
:101B7000FEF7CEFC3046FEF7D1FC2BE02046E11705
:101B800004EB5171C910491ECEB21420FEF7C0FCFF
:101B90003046FEF7C3FC2046E11704EB5171C91033
:101BA000A4EBC101CEB21520FEF7B2FC3046FEF721
:101BB000B5FC681EC6B21A20FEF7AAFC3046FEF736
:101BC000ADFC681EC0F307261B20FEF7A1FC3046C3
:101BD000FEF7A4FC70BD70B50446082C0CDA162084
:101BE000FEF796FC0020FEF799FC1720FEF790FC0C
:101BF000E0B2FEF793FC1AE02046E11704EB5171C6
:101C0000C910491ECDB21620FEF782FC2846FEF709
:101C100085FC2046E11704EB5171C910A4EBC1010A
:101C2000CDB21720FEF774FC2846FEF777FC70BD96
:101C300070B50446082C06DA1820FEF769FC00206F
:101C4000FEF76CFC0CE02046E11704EB5171C91063
:101C5000491ECDB21820FEF75BFC2846FEF75EFC5D
:101C600070BD70B50446082C06DA1920FEF750FC4A
:101C70000020FEF753FC0CE02046E11704EB517105
:101C8000C910491ECDB21920FEF742FC2846FEF7C6
:101C900045FC70BD70B50446601EC5B21C20FEF741
:101CA00037FC2846FEF73AFC1D20FEF731FC2812CF
:101CB000FEF734FC70BD70B50446601EC5B21E2030
:101CC000FEF726FC2846FEF729FC70BD70B50446D9
:101CD000601EC5B21F20FEF71BFC2846FEF71EFC47
:101CE00070BD10B50446E1B22020FEF71BFEC4F320
:101CF00007212120FEF716FEC4F307412220FEF73C
:101D000011FE210E2320FEF70DFE10BD10B5044676
:101D1000E1B22420FEF706FE21122520FEF702FE86
:101D200010BD70B504460D46E1B22620FEF7FAFD5F
:101D300021122720FEF7F6FDE9B22820FEF7F2FD7A
:101D400029122920FEF7EEFD70BD70B504460D4640
:101D5000E1B22A20FEF7E6FD21122B20FEF7E2FD7C
:101D6000E9B22C20FEF7DEFD29122D20FEF7DAFD68
:101D700070BD10B50446E1B22E20FEF7D3FDC4F3CA
:101D800007212F20FEF7CEFDC4F307413020FEF7D8
:101D9000C9FD210E3120FEF7C5FD10BD10B504466A
:101DA000E1B23220FEF7BEFD21123320FEF7BAFD6C
:101DB00010BD70B504460D46E1B23420FEF7B2FD09
:101DC00021123520FEF7AEFDE9B23620FEF7AAFD5E
:101DD00029123720FEF7A6FD70BD70B504460D46EA
:101DE000E1B23820FEF79EFD21123920FEF79AFD60
:101DF000E9B23A20FEF796FD29123B20FEF792FD4C
:101E000070BD10B53C20FEF783FBFEF79AFBC4B211
:101E100044F010042046FEF781FB10BD10B53C20B5
:101E2000FEF776FBFEF78DFBC4B204F0EF0420460C
:101E3000FEF774FB10BD10B53C20FEF769FBFEF702
:101E400080FBC4B204F0F70404F0FB042046FEF764
:101E500065FB10BD10B53C20FEF75AFBFEF771FB89
:101E6000C4B204F0F70444F004042046FEF756FB25
:101E700010BD10B53C20FEF74BFBFEF762FBC4B271
:101E800044F0080404F0FB042046FEF747FB10BDB5
:101E900010B53C20FEF73CFBFEF753FBC4B244F008
:101EA000080444F004042046FEF738FB10BD10B5CA
:101EB0003C20FEF72DFBFEF744FBC4B244F00204C5
:101EC0002046FEF72BFB10BD10B53C20FEF720FB93
:101ED000FEF737FBC4B204F0FD042046FEF71EFBFC
:101EE00010BD10B53C20FEF713FBFEF72AFBC4B271
:101EF00044F001042046FEF711FB10BD10B53C2054
:101F0000FEF706FBFEF71DFBC4B204F0FE042046FC
:101F1000FEF704FB10BD10B504463D20FEF7F8FAAD
:101F20002046FEF7FBFA10BD70B504460D463E2074
:101F3000FEF7EEFAE0B2FEF7F1FA3F20FEF7E8FA1C
:101F4000E8B2FEF7EBFA70BD70B504460D46E1B29B
:101F50004020FEF7E7FC21124120FEF7E3FCE9B246
:101F60004220FEF7DFFC29124320FEF7DBFC70BDA8
:101F700010B5044621464420FEF7D4FC10BD10B530
:101F8000044621464520FEF7CDFC10BD10B50446A1
:101F9000E1B25020FEF7C6FCC4F307215120FEF742
:101FA000C1FCC4F307415220FEF7BCFC210E5320B4
:101FB000FEF7B8FC10BD10B50446E1B25420FEF7A0
:101FC000B1FC21125520FEF7ADFC10BD70B50446E2
:101FD0000D46E1B25620FEF7A5FC21125720FEF770
:101FE000A1FCE9B25820FEF79DFC29125920FEF70A
:101FF00099FC70BD70B504460D46E1B25A20FEF75B
:1020000091FC21125B20FEF78DFCE9B25C20FEF70B
:1020100089FC29125D20FEF785FC70BD10B55E209D
:10202000FEF776FAFEF78DFAC4B204F0F704204604
:10203000FEF774FA10BD10B55E20FEF769FAFEF7E0
:1020400080FAC4B244F008042046FEF767FA10BDD7
:1020500010B55E20FEF75CFAFEF773FAC4B204F026
:10206000FB042046FEF75AFA10BD10B55E20FEF7BD
:102070004FFAFEF766FAC4B244F004042046FEF7B5
:102080004DFA10BD10B55E20FEF742FAFEF759FA80
:10209000C4B204F0FD0404F0FE042046FEF73EFA4C
:1020A00010BD10B55E20FEF733FAFEF74AFAC4B24F
:1020B00004F0FD0444F001042046FEF72FFA10BDA1
:1020C00010B55E20FEF724FAFEF73BFAC4B244F0E6
:1020D000020444F001042046FEF720FA10BD70B55A
:1020E00004460D46E1B25F20FEF71CFC2112602081
:1020F000FEF718FCE9B26120FEF714FC29126220F9
:10210000FEF710FC70BD10B50446E1B25F20FEF78B
:1021100009FCC4F307216020FEF704FCC4F3074167
:102120006120FEF7FFFB210E6220FEF7FBFB10BDD6
:1021300070B504460D46E1B26320FEF7F3FB2112B1
:102140006420FEF7EFFBE9B26520FEF7EBFB2912F6
:102150006620FEF7E7FB70BD10B56720FEF7D8F9E3
:102160008020FEF7DBF9FEF757FC10BD10B56720A5
:10217000FEF7CEF98220FEF7D1F9FEF74DFC10BD37
:1021800010B56720FEF7C4F9A220FEF7C7F9FEF7E5
:1021900043FC10BD70B504460D466820FEF7B8F943
:1021A000E0B2FEF7BBF96920FEF7B2F92012FEF7A4
:1021B000B5F96A20FEF7ACF9E8B2FEF7AFF96B208B
:1021C000FEF7A6F92812FEF7A9F970BD70B504460E
:1021D0000D466C20FEF79CF9E0B2FEF79FF96D20EA
:1021E000FEF796F92012FEF799F96E20FEF790F9A6
:1021F000E8B2FEF793F96F20FEF78AF92812FEF78E
:102200008DF970BD70B504460D466820FEF780F963
:10221000E0B2FEF783F96920FEF77AF92012FEF7A3
:102220007DF96A20FEF774F9E8B2FEF777F96B20C2
:10223000FEF76EF92812FEF771F970BD70B504460D
:102240000D466C20FEF764F9E0B2FEF767F96D20E9
:10225000FEF75EF92012FEF761F96E20FEF758F9DD
:10226000E8B2FEF75BF96F20FEF752F92812FEF78D
:1022700055F970BD70B504460D467020FEF748F95B
:10228000E0B2FEF74BF97120FEF742F92012FEF79B
:1022900045F97220FEF73CF9E8B2FEF73FF97320EA
:1022A000FEF736F92812FEF739F970BD70B504460D
:1022B0000D466820FEF72CF9E0B2FEF72FF96920F1
:1022C000FEF726F92012FEF729F96A20FEF720F919
:1022D000E8B2FEF723F96B20FEF71AF92812FEF791
:1022E0001DF970BD70B504460D466C20FEF710F95F
:1022F000E0B2FEF713F96D20FEF70AF92012FEF79F
:102300000DF96E20FEF704F9E8B2FEF707F96F2029
:10231000FEF7FEF82812FEF701F970BD10B5762021
:10232000FEF7F6F88020FEF7F9F8FEF775FB10BD12
:1023300010B57620FEF7ECF8C020FEF7EFF8FEF7B8
:102340006BFB10BD10B57620FEF7E2F89020FEF78B
:10235000E5F8FEF761FB10BD10B57620FEF7D8F862
:102360009120FEF7DBF8FEF757FB10BD10B5762085
:10237000FEF7CEF89220FEF7D1F8FEF74DFB10BD28
:1023800010B57620FEF7C4F89320FEF7C7F8FEF7E5
:1023900043FB10BD10B57620FEF7BAF8D020FEF74B
:1023A000BDF8FEF739FB10BD10B57620FEF7B0F88A
:1023B000D120FEF7B3F8FEF72FFB10BD10B5762045
:1023C000FEF7A6F8D220FEF7A9F8FEF725FB10BD10
:1023D00010B57620FEF79CF8D320FEF79FF8FEF7A5
:1023E0001BFB10BD10B57620FEF792F8A020FEF77B
:1023F00095F8FEF711FB10BD10B57620FEF788F8B2
:10240000E020FEF78BF8FEF707FB10BD10B5762035
:10241000FEF77EF8B020FEF781F8FEF7FDFA10BD5A
:1024200010B57620FEF774F8F020FEF777F8FEF787
:10243000F3FA10BD70B504460D467B20FEF768F830
:10244000E0B2FEF76BF87C20FEF762F82012FEF790
:1024500065F87D20FEF75CF8E8B2FEF75FF87E20B5
:10246000FEF756F82812FEF759F870BD70B504460D
:102470000D467B20FEF74CF8E0B2FEF74FF87C20CB
:10248000FEF746F82012FEF749F87D20FEF740F8E7
:10249000E8B2FEF743F87E20FEF73AF82812FEF77E
:1024A0003DF870BD10B504467720FEF731F8E0B274
:1024B000FEF734F87820FEF72BF82012FEF72EF8FE
:1024C0007920FEF725F8E0B2FEF728F87A20FEF72B
:1024D0001FF82012FEF722F810BD70B504460D4615
:1024E0007720FEF715F8E0B2FEF718F87820FEF72F
:1024F0000FF82012FEF712F87920FEF709F8E8B27B
:10250000FEF70CF87A20FEF703F82812FEF706F81B
:1025100070BD70B504460D467720FDF7F9FFE0B2B7
:10252000FDF7FCFF7820FDF7F3FF2012FDF7F6FF23
:102530007920FDF7EDFFE8B2FDF7F0FF7A20FDF717
:10254000E7FF2812FDF7EAFF70BD10B50446601ED4
:1025500084B28420FDF7DCFFE0B2FDF7DFFF10BDA1
:1025600010B58520FDF7D4FFFDF7EBFFC4B204F0F2
:102570007F0404F0BF042046FDF7D0FF10BD10B566
:102580008520FDF7C5FFFDF7DCFFC4B204F07F0432
:1025900044F040042046FDF7C1FF10BD10B5852072
:1025A000FDF7B6FFFDF7CDFFC4B244F0800404F0A0
:1025B000BF042046FDF7B2FF10BD10B58520FDF722
:1025C000A7FFFDF7BEFFC4B244F0800444F040040E
:1025D0002046FDF7A3FF10BD10B58520FDF798FF3D
:1025E000FDF7AFFFC4B204F0DF0404F0EF042046AF
:1025F000FDF794FF10BD10B58520FDF789FFFDF7AD
:10260000A0FFC4B204F0DF0444F010042046FDF73C
:1026100085FF10BD10B58520FDF77AFFFDF791FF0E
:10262000C4B244F0200404F0EF042046FDF776FF26
:1026300010BD10B58520FDF76BFFFDF782FFC4B21A
:1026400044F0200444F010042046FDF767FF10BD5D
:1026500010B58520FDF75CFFFDF773FFC4B204F0F1
:10266000F7042046FDF75AFF10BD10B58520FDF791
:102670004FFFFDF766FFC4B244F0080404F0FB040A
:102680002046FDF74BFF10BD10B58520FDF740FF3C
:10269000FDF757FFC4B244F0080444F00404204698
:1026A000FDF73CFF10BD10B58520FDF731FFFDF7AC
:1026B00048FFC4B204F0FD042046FDF72FFF10BD13
:1026C00010B58520FDF724FFFDF73BFFC4B244F0B1
:1026D000020404F0FE042046FDF720FF10BD10B5F3
:1026E0008520FDF715FFFDF72CFFC4B244F002046E
:1026F00044F001042046FDF711FF10BD10B58620FF
:10270000FDF706FFFDF71DFFC4B244F0400420466C
:10271000FDF704FF10BD10B58620FDF7F9FEFDF7AB
:1027200010FFC4B204F0BF042046FDF7F7FE10BD51
:1027300010B58620FDF7ECFEFDF703FFC4B244F0B0
:1027400020042046FDF7EAFE10BD10B58620FDF7F7
:10275000DFFEFDF7F6FEC4B204F0DF042046FDF70D
:10276000DDFE10BD10B58620FDF7D2FEFDF7E9FEB7
:10277000C4B244F010042046FDF7D0FE10BD10B5E1
:102780008620FDF7C5FEFDF7DCFEC4B204F0EF04C1
:102790002046FDF7C3FE10BD10B58620FDF7B8FE3C
:1027A000FDF7CFFEC4B244F008042046FDF7B6FEA4
:1027B00010BD10B58620FDF7ABFEFDF7C2FEC4B21A
:1027C00004F0F7042046FDF7A9FE10BD10B58620E1
:1027D000FDF79EFEFDF7B5FEC4B244F004042046AA
:1027E000FDF79CFE10BD10B58620FDF791FEFDF7AC
:1027F000A8FEC4B204F0FB042046FDF78FFE10BD16
:1028000010B58620FDF784FEFDF79BFEC4B244F0B0
:1028100002042046FDF782FE10BD10B58620FDF7AC
:1028200077FEFDF78EFEC4B204F0FD042046FDF7EE
:1028300075FE10BD10B58620FDF76AFEFDF781FE1E
:10284000C4B244F001042046FDF768FE10BD10B587
:102850008620FDF75DFEFDF774FEC4B204F0FE04B1
:102860002046FDF75BFE10BD10B504468720FDF73E
:102870004FFE2046FDF752FE10BD10B504468820DD
:10288000FDF746FEE0B2FDF749FE8920FDF740FE68
:102890002012FDF743FE10BD10B504468A20FDF757
:1028A00037FEE0B2FDF73AFE8B20FDF731FE201235
:1028B000FDF734FE10BD10B504468C20FDF728FE50
:1028C000E0B2FDF72BFE8D20FDF722FE2012FDF772
:1028D00025FE10BD10B504468E20FDF719FEE0B2AE
:1028E000FDF71CFE8F20FDF713FE2012FDF716FEEC
:1028F00010BD10B59020FDF70BFEFDF722FEC4B20F
:1029000044F010042046FDF709FE10BD10B59020DC
:10291000FDF7FEFDFDF715FEC4B204F0EF042046FE
:10292000FDF7FCFD10BD10B500BFFDF703FE00F084
:1029300008010029F9D110BD10B59020FDF7E8FD80
:10294000FDF7FFFDC4B204F0FE042046FDF7E6FDEE
:1029500010BD10B59020FDF7DBFDFDF7F2FDC4B210
:1029600044F001042046FDF7D9FD10BD70B50546C1
:102970009120FDF7CDFDFDF7E4FDC4B204F00F0496
:1029800044EA0510C4B22046FDF7C8FD70BD70B51D
:1029900005469120FDF7BCFDFDF7D3FDC4B204F060
:1029A000F0042C432046FDF7B9FD70BD10B5922010
:1029B000FDF7AEFDFDF7C5FDC4B204F0BF0404F0A1
:1029C000DF042046FDF7AAFD10BD10B59220FDF7EB
:1029D0009FFDFDF7B6FDC4B204F0BF0444F020042F
:1029E0002046FDF79BFD10BD10B59220FDF790FD30
:1029F000FDF7A7FDC4B244F040042046FDF78EFD6C
:102A000010BD10B59220FDF783FDFDF79AFDC4B20D
:102A100004F0EF0404F0F70404F0FB042046FDF793
:102A20007DFD10BD10B59220FDF772FDFDF789FD0B
:102A3000C4B204F0EF0404F0F70444F004042046A8
:102A4000FDF76CFD10BD10B59220FDF761FDFDF79F
:102A500078FDC4B204F0EF0444F0080404F0FB0471
:102A60002046FDF75BFD10BD10B59220FDF750FD2F
:102A7000FDF767FDC4B204F0EF0444F0080444F02D
:102A800004042046FDF74AFD10BD10B59220FDF765
:102A90003FFDFDF756FDC4B244F0100404F0F70406
:102AA00004F0FB042046FDF739FD10BD10B592205F
:102AB000FDF72EFDFDF745FDC4B244F0100404F00F
:102AC000F70444F004042046FDF728FD10BD10B5BE
:102AD0009220FDF71DFDFDF734FDC4B204F0FD04A6
:102AE00004F0FE042046FDF719FD10BD10B592203C
:102AF000FDF70EFDFDF725FDC4B204F0FD0444F022
:102B000001042046FDF70AFD10BD10B59220FDF727
:102B1000FFFCFDF716FDC4B244F002042046FDF7A9
:102B2000FDFC10BD10B50446E1B29320FDF7FAFE9E
:102B3000C4F307219420FDF7F5FEC4F30741952067
:102B4000FDF7F0FE210E9620FDF7ECFE10BD10B54E
:102B50000446E1B29720FDF7E5FE21129820FDF72B
:102B6000E1FE10BD70B504460D46E1B29920FDF7B7
:102B7000D9FE21129A20FDF7D5FEE9B29B20FDF780
:102B8000D1FE29129C20FDF7CDFE70BD10B5044684
:102B9000E1B29D20FDF7C6FEC4F307219E20FDF79C
:102BA000C1FEC4F307419F20FDF7BCFE210EA0200B
:102BB000FDF7B8FE10BD10B504469D20FDF7A8FC3A
:102BC0002046FDF7ABFC9E20FDF7A2FCE106080EB7
:102BD000FDF7A4FC9F20FDF79BFCA107080EFDF765
:102BE0009DFC10BD10B504469D20FDF791FC201200
:102BF000FDF794FC9E20FDF78BFCC4F3C700FDF7A6
:102C00008DFC9F20FDF784FCE106080EFDF786FC95
:102C100010BD10B504469D20FDF77AFCC4F30740B3
:102C2000FDF77CFC9E20FDF773FCC4F30720FDF745
:102C300075FC9F20FDF76CFCE0B2FDF76FFC10BD4A
:102C400010B50446E1B2A120FDF76CFE2112A220CE
:102C5000FDF768FE10BD70B504460D46E1B2A32035
:102C6000FDF760FE2112A420FDF75CFEE9B2A5206D
:102C7000FDF758FE2912A620FDF754FE70BD10B5D1
:102C80000446E1B2A720FDF74DFEC4F30721A820BA
:102C9000FDF748FEC4F30741A920FDF743FE210ECE
:102CA000AA20FDF73FFE10BD10B50446E1B2AB20EF
:102CB000FDF738FE2112AC20FDF734FE10BD70B5D3
:102CC00004460D46E1B2AD20FDF72CFE2112AE20E8
:102CD000FDF728FEE9B2AF20FDF724FE2912B0204F
:102CE000FDF720FE70BD70B504460D46E1B2B1207F
:102CF000FDF718FE2112B220FDF714FEE9B2B32051
:102D0000FDF710FE2912B420FDF70CFE70BD10B5C2
:102D10000446B520FDF7FCFB2046FDF7FFFB10BD88
:102D200010B5CC20FDF7F4FBFDF70BFCC4B244F06A
:102D3000800404F0BF042046FDF7F0FB10BD10B581
:102D4000CC20FDF7E5FBFDF7FCFBC4B204F07F04EB
:102D500004F0BF042046FDF7E1FB10BD10B5CC2008
:102D6000FDF7D6FBFDF7EDFBC4B204F07F0444F0A1
:102D700040042046FDF7D2FB10BD10B5CC20FDF776
:102D8000C7FBFDF7DEFBC4B204F0DF0404F0EF0480
:102D90002046FDF7C3FB10BD10B5CC20FDF7B8FBF6
:102DA000FDF7CFFBC4B204F0DF0444F0100420466A
:102DB000FDF7B4FB10BD10B5CC20FDF7A9FBFDF766
:102DC000C0FBC4B244F0200404F0EF042046FDF739
:102DD000A5FB10BD10B5CC20FDF79AFBFDF7B1FBAC
:102DE000C4B204F0FD0404F0FE042046FDF796FB97
:102DF00010BD10B5CC20FDF78BFBFDF7A2FBC4B2D4
:102E000004F0FD0444F001042046FDF787FB10BDEB
:102E100010B5CC20FDF77CFBFDF793FBC4B244F06A
:102E2000020404F0FE042046FDF778FB10BD10B547
:102E3000CC20FDF76DFBFDF784FBC4B244F0020427
:102E400044F001042046FDF769FB10BD10B5CD200C
:102E5000FDF75EFBFDF775FBC4B244F0800420462D
:102E6000FDF75CFB10BD10B5CD20FDF751FBFDF764
:102E700068FBC4B204F07F042046FDF74FFB10BD91
:102E800010B5CD20FDF744FBFDF75BFBC4B244F069
:102E900040042046FDF742FB10BD10B5CD20FDF7E4
:102EA00037FBFDF74EFBC4B204F0BF042046FDF72C
:102EB00035FB10BD10B5CD20FDF72AFBFDF741FB1A
:102EC000C4B204F0EF042046FDF728FB10BD10B596
:102ED000CD20FDF71DFBFDF734FBC4B244F0100418
:102EE0002046FDF71BFB10BD10B5CD20FDF710FBF4
:102EF000FDF727FBC4B204F0F70404F0FB042046FE
:102F0000FDF70CFB10BD10B5CD20FDF701FBFDF763
:102F100018FBC4B204F0F70444F004042046FDF7A3
:102F2000FDFA10BD10B5CD20FDF7F2FAFDF709FB53
:102F3000C4B244F0080404F0FB042046FDF7EEFAA6
:102F400010BD10B5CD20FDF7E3FAFDF7FAFAC4B2D3
:102F500044F0080444F004042046FDF7DFFA10BDF5
:102F600010B5CD20FDF7D4FAFDF7EBFAC4B204F0AA
:102F7000FD0404F0FE042046FDF7D0FA10BD10B5A4
:102F8000CD20FDF7C5FAFDF7DCFAC4B204F0FD046C
:102F900044F001042046FDF7C1FA10BD10B5CD2064
:102FA000FDF7B6FAFDF7CDFAC4B244F0020404F01E
:102FB000FE042046FDF7B2FA10BD10B5CD20FDF796
:102FC000A7FAFDF7BEFAC4B244F0020444F00104CB
:102FD0002046FDF7A3FA10BD10B5CE20FDF798FAF4
:102FE000FDF7AFFAC4B204F07F0404F0BF0404F0AC
:102FF000DF042046FDF792FA10BD10B5CE20FDF794
:1030000087FAFDF79EFAC4B204F07F0404F0BF040F
:1030100044F020042046FDF781FA10BD10B5CE2003
:10302000FDF776FAFDF78DFAC4B204F07F0444F0A0
:10303000400404F0DF042046FDF770FA10BD10B51F
:10304000CE20FDF765FAFDF77CFAC4B204F07F04E8
:1030500044F0400444F020042046FDF75FFA10BD20
:1030600010B5CE20FDF754FAFDF76BFAC4B244F068
:10307000800404F0BF0404F0DF042046FDF74EFA9C
:1030800010BD10B5CE20FDF743FAFDF75AFAC4B2D1
:1030900044F0800404F0BF0444F020042046FDF70F
:1030A0003DFA10BD10B5CE20FDF732FAFDF749FA12
:1030B000C4B244F0800444F0400404F0DF0420462D
:1030C000FDF72CFA10BD10B5CE20FDF721FAFDF763
:1030D00038FAC4B244F0800444F0400444F02004C0
:1030E0002046FDF71BFA10BD10B50446CF20FDF7B2
:1030F0000FFA2046FDF712FA10BD10B50446D02095
:10310000FDF706FA2046FDF709FA10BD10B5044692
:10311000D120FDF7FDF92046FDF700FA10BD70B58E
:1031200006460C461546D220FDF7F2F93046FDF76B
:10313000F5F9D320FDF7ECF92046FDF7EFF9D4209F
:10314000FDF7E6F92846FDF7E9F970BD10B504462C
:10315000D220FDF7DDF92046FDF7E0F9D320FDF799
:10316000D7F9E106080EFDF7D9F9D420FDF7D0F91B
:10317000A107080EFDF7D2F910BD10B50446D22004
:10318000FDF7C6F92012FDF7C9F9D320FDF7C0F904
:10319000C4F3C700FDF7C2F9D420FDF7B9F9E10681
:1031A000080EFDF7BBF910BD10B50446D220FDF79F
:1031B000AFF9C4F30740FDF7B1F9D320FDF7A8F943
:1031C000C4F30720FDF7AAF9D420FDF7A1F9E0B276
:1031D000FDF7A4F910BD70B506460C461546D5207E
:1031E000FDF796F93046FDF799F9D620FDF790F9ED
:1031F0002046FDF793F9D720FDF78AF92846FDF719
:103200008DF970BD10B50446D520FDF781F9204633
:10321000FDF784F9D620FDF77BF9E106080EFDF7EE
:103220007DF9D720FDF774F9A107080EFDF776F9AF
:1032300010BD10B50446D520FDF76AF92012FDF740
:103240006DF9D620FDF764F9C4F3C700FDF766F900
:10325000D720FDF75DF9E106080EFDF75FF910BD17
:1032600010B50446D520FDF753F9C4F30740FDF728
:1032700055F9D620FDF74CF9C4F30720FDF74EF9B8
:10328000D720FDF745F9E0B2FDF748F910BD10B5BC
:103290000446DB20FDF73CF9E0B2FDF73FF9DC2006
:1032A000FDF736F9C4F30720FDF738F9DD20FDF707
:1032B0002FF9C4F30740FDF731F9DE20FDF728F9B7
:1032C000200EFDF72BF910BD10B5DF20FDF720F91A
:1032D0000020FDF723F910BD10B5DF20FDF718F928
:1032E0000120FDF71BF9DF20FDF712F98120FDF722
:1032F00015F910BD10B5DF20FDF70AF98220FDF7A2
:103300000DF910BD10B5DF20FDF702F98320FDF7A0
:1033100005F910BD10B50446E520FDF7F9F8E0B257
:10332000FDF7FCF8E620FDF7F3F82012FDF7F6F8BC
:1033300010BD10B50446E720FDF7EAF82046FDF77A
:10334000EDF810BD10B5E820FDF7E2F8FDF7F9F84B
:10335000C4B2204610BD10B5E920FDF7D9F84020D1
:10336000FDF7DCF810BD10B5E920FDF7D1F82020FD
:10337000FDF7D4F810BD10B5E920FDF7C9F86820B5
:10338000FDF7CCF810BD10B5E920FDF7C1F890208D
:10339000FDF7C4F810BD10B5E920FDF7B9F810200D
:1033A000FDF7BCF810BD10B5EA20FDF7B1F8FDF748
:1033B000C8F8C4B204F08000802801D1012010BDFB
:1033C0000020FCE710B5EA20FDF7A2F8FDF7B9F8F8
:1033D000C4B204F04000402801D1012010BD0020FB
:1033E000FCE710B5EA20FDF793F8FDF7AAF8C4B2A0
:1033F00004F00200022801D1012010BD0020FCE7EA
:1034000010B5EA20FDF784F8FDF79BF8C4B204F08C
:103410000104204610BD10B50446F020FDF778F8F1
:103420002046FDF77BF810BD10B50446F120FDF7EE
:103430006FF82046FDF772F810BD10B5F120FDF7CA
:1034400067F8FDF77EF8C4B2204610BD10B50446FB
:10345000F220FDF75DF82046FDF760F810BD10B5CD
:10346000F220FDF755F8FDF76CF8C4B2204610BD08
:1034700010B50446F320FDF74BF82046FDF74EF853
:1034800010BD10B50446F420FDF742F82046FDF7C4
:1034900045F810BD10B5F420FDF73AF8FDF751F8E6
:1034A000C4B2204610BD10B50446F520FDF730F833
:1034B0002046FDF733F810BD10B50446F620FDF7A1
:1034C00027F82046FDF72AF810BD10B5F620FDF7C5
:1034D0001FF8FDF736F8C4B2204610BD10B50446FB
:1034E000F720FDF715F82046FDF718F810BD10B5C8
:1034F0000446F820FDF70CF82046FDF70FF810BD44
:1035000010B5F820FDF704F8FDF71BF8C4B220460B
:1035100010BD10B50446F920FCF7FAFF2046FCF771
:10352000FDFF10BD10B50446FA20FCF7F1FF204660
:10353000FCF7F4FF10BD10B5FA20FCF7E9FFFDF72A
:1035400000F8C4B2204610BD10B5FB20FCF7E0FF28
:10355000FCF7F7FFC4B244F040042046FCF7DEFF5E
:1035600010BD70B50546FB20FCF7D2FFFCF7E9FF64
:10357000C4B204F0F00405F0070004432046FCF751
:10358000CDFF70BD10B5FC20FCF7C2FFFCF7D9FFE2
:10359000C4B244F080042046FCF7C0FF10BD70B5F3
:1035A000044604F01C06FC20FCF7B2FFFCF7C9FF40
:1035B000C5B235432846FCF7B1FF70BD10B5FC20FD
:1035C000FCF7A6FFFCF7BDFFC4B204F003042046DD
:1035D00010BD10B5FD20FCF79BFFFCF7B2FFC4B295
:1035E000204610BD10B5FE20FCF792FFFCF7A9FFA6
:1035F000C4B2204610BD10B5FF20FCF789FFFCF7D0
:10360000A0FFC4B2204610BD10B50446FDF74EFC25
:103610000420FCF77DFF05E02078FCF77FFFFDF735
:1036200095F9641C20780028F6D1FDF7B3F9FDF771
:1036300030FC10BD70B505460E460420FCF768FF4F
:10364000002406E016F81400FCF768FFFDF77EF989
:10365000641CAC42F6D370BD10B50120FCF758FFD6
:10366000FCF76FFFC4B244F002042046FCF756FF9B
:1036700010BD10B5B720FCF74BFFFCF762FFC4B2DA
:1036800004F07F042046FCF749FF10BD10B5B720B9
:10369000FCF73EFFFCF755FFC4B244F0800420461F
:1036A000FCF73CFF10BD10B5B720FCF731FFFCF76D
:1036B00048FFC4B244F040042046FCF72FFF10BD81
:1036C00010B50446BB20FCF723FF2046FCF726FF7D
:1036D00010BD70B504460D46C020FCF719FFE0B2DE
:1036E000FCF71CFFC120FCF713FF2012FCF716FFAC
:1036F000C220FCF70DFFE8B2FCF710FFC320FCF777
:1037000007FF2812FCF70AFF70BD70B504460D468E
:10371000C620FCF7FDFEE0B2FCF700FFC720FCF777
:10372000F7FE2012FCF7FAFEC820FCF7F1FEE8B223
:10373000FCF7F4FEC920FCF7EBFE2812FCF7EEFEC6
:1037400070BD10B50446CA20FCF7E2FEE0B2FCF7FB
:10375000E5FECB20FCF7DCFE2012FCF7DFFE10BDFF
:1037600010B50446BC20FCF7D3FEE0B2FCF7D6FE51
:10377000BD20FCF7CDFEC4F30720FCF7CFFEBE2032
:10378000FCF7C6FEC4F30740FCF7C8FEBF20FCF7F9
:10379000BFFE200EFCF7C2FE10BD10B5B620FCF730
:1037A000B7FEFCF7CEFEC4B244F001042046FCF79D
:1037B000B5FE10BD10B5B620FCF7AAFE00BFFCF7A1
:1037C000C0FE00F001000028F9D110BD08B50121AC
:1037D000402001F093F90220ADF8000010208DF890
:1037E000030003208DF802006946E74800F0CAFE96
:1037F0000221E54800F075FF6420FCF7B8FE0221C5
:10380000E14800F06CFF6420FCF7B1FE08BD70B524
:1038100000240026002500BFFCF78CFE00F002000B
:10382000F8B90120FCF7A3FE0120FCF771FE01208E
:10383000FCF79DFEFCF785FEC6B206F080008028EE
:1038400002D1012500240FE00120FCF790FE0120A9
:10385000FCF75EFE0120FCF78AFE8020FCF75EFE8E
:1038600002E00025601CC4B225B9052C02D1FFF787
:10387000ADFF0024002DCFD070BD2DE9FE4F0024F8
:10388000C24CC348B4FBF0F100FB1140C149B0FB8E
:10389000F1F002900298052804D9BD48B4FBF0F07D
:1038A000441C02E0BA48B4FBF0F4BB490C7004EBD2
:1038B0004404BA490C70BA490C7008460078642870
:1038C00001DD64200870B5480078642802DD6420BA
:1038D000B2490870B0480078412802DD4120AE4965
:1038E00008704FF003084FF002094FF0020A4FF042
:1038F000050B052101910091A8480678A848057894
:10390000A548007847000520FCF702FE4FEA881121
:1039100041EA4B0141EA1720FCF700FE0720FCF7C3
:10392000F7FD4FEA8A12009942EA410141EA162066
:10393000FCF7F4FD0920FCF7EBFD4FEA8912019931
:1039400042EA410141EA1520FCF7E8FD0620FCF7B8
:10395000DFFDF8B2FCF7E2FD0820FCF7D9FD3046A8
:10396000FCF7DCFD0A20FCF7D3FD2846FCF7D6FD6A
:103970000020FCF7CDFD0120FCF7EAFD8020FCF7DC
:10398000CDFD0120FCF7F3FDBDE8FE8F70B50546C7
:103990002021E020FCF7C6FF0321E120FCF7C2FF55
:1039A0004FF47A7090FBF5F041F6846191FBF0F0F2
:1039B00084B2A01E84B2E1B2E220FCF7B3FF211270
:1039C000E320FCF7AFFF0121E420FCF7ABFFFCF79D
:1039D000EAFF0120FCF7CBFD70BD10B5FDF79CF8A8
:1039E000FDF7DFF8FDF726F9FDF78DF9FDF751FA40
:1039F000FDF769FAFDF7F1FEFDF74AFFFDF762FFFB
:103A0000FDF7C9FFFDF7E1FFFEF706F84FF4167169
:103A10004FF48060FEF78FF88C20FEF7DCF8A020D2
:103A2000FEF706F91420FEF71CF91420FEF732F910
:103A30000C20FEF740F90320FEF748F9FEF708FBDB
:103A4000FEF72FFB10BD10B5FFF717FF55A001F0D3
:103A500045FC52480078FFF799FF54A001F03EFC66
:103A6000FFF7BBFF54A001F039FC10BD10B5642076
:103A7000FCF77DFDFFF7AAFEFFF7C9FE50A001F09D
:103A80002DFC6420FCF773FD00BFFCF753FD00F034
:103A900002000028F9D1FFF7D6FF10BD2DE9F04153
:103AA00006460F4614461D46DDF818801FFA88F0BA
:103AB000FFF763FB39463046FEF7F8FB2946204600
:103AC000FEF710FCFEF798FCFCF764FFBDE8F08100
:103AD0002DE9F04105460C4616461F46DDF81880D4
:103AE000FEF7C3FD3046FEF730FD0CB9FEF738FD9A
:103AF000012C01D1FEF743FD022C01D1FEF74EFD52
:103B0000032C01D1FEF759FD3846FEF7E3FE40468F
:103B1000FEF7D1FE012D01D1FEF724FE0DB9FEF70F
:103B20002EFEBDE8F0812DE9F05F04460D461646F5
:103B30001F46DDE90CABDDE90A89FFF78DFD0CB905
:103B4000FFF797FD012C01D1FFF7A0FDFFF7ABFDBB
:103B50002846FFF7B5FD39463046FEF7C0FA39462C
:103B60003046FFF7B6FD49464046FFF7CEFD5046CA
:103B7000FFF7E7FD5846FFF7F3FDFFF70EFEFFF7EF
:103B800019FEBDE8F09F00000018014000590D0328
:103B900040420F00A08601000A000020090000201A
:103BA00008000020706C6C6F6B0D0A007372616D01
:103BB0006F6B0D0A000000006C63646F6B0D0A00F0
:103BC0007273746F6B0D0A000CB5002001900090A9
:103BD0006C48006840F480306A49086000BF69485A
:103BE000006800F4003000900198401C019000989B
:103BF00018B90198B0F5A06FF1D16248006800F4DF
:103C0000003010B10120009001E0002000900098E9
:103C1000012843D15C48006840F010005A49086010
:103C20000846006820F0030008600846006840F07D
:103C3000020008605348406852494860084640689E
:103C400048600846406840F4806048600846406824
:103C500020F47C1048600846406840F4E810486052
:103C60000846006840F08070086000BF4548006862
:103C700000F000700028F9D04248406820F00300AE
:103C8000404948600846406840F00200486000BF74
:103C90003C48406800F00C000828F9D10CBD10B574
:103CA000FFF792FF10BD10B53648006840F00100E4
:103CB0003449086008464068344908403149486042
:103CC00008460068324908402E49086008460068E6
:103CD00020F4802008600846406820F4FE00486018
:103CE0004FF41F008860FFF7DAFF4FF000602949AA
:103CF000086010BD10B5002100200022214B5B6838
:103D000003F00C0121B1042906D0082928D107E0CD
:103D1000214B224C236027E01F4B204C236023E0E3
:103D2000184B5B6803F47010164B5B6803F4803229
:103D3000022303EB904022B9194B4343174C2360F5
:103D40000DE0104B5B6803F4003323B1144B434385
:103D5000124C236003E0104B4343104C236003E0FC
:103D60000D4B0E4C236000BF00BF064B5B68C3F3D6
:103D700003130C4CE15C094B1B68CB40074C2360E0
:103D800010BD000000100240002002400000FFF8BB
:103D9000FFFFF6FE08ED00E000127A000C000020A4
:103DA00000093D001000002008480047FEE7FEE73C
:103DB000FEE7FEE7FEE7FEE7FEE7FEE7FEE7FEE7DB
:103DC00003480449024A044B70470000ED00000814
:103DD00098000020980800209800002031490143F5
:103DE000314A1160704770B5002100230F22C4785A
:103DF00004B32D4C246804F4E064C4F5E064210AA3
:103E0000C1F10403CA40447804FA03F184781440F1
:103E100021430901254C0678A155047804F01F05BB
:103E20000124AC4005786D11AD0005F1E025C5F821
:103E3000004109E0047804F01F050124AC401C4D4A
:103E40000678761145F8264070BD1A4A0A400243AA
:103E5000154B1B1F1A60704739B1134A121D1268A7
:103E60000243114B1B1D1A6006E00F4A121D126817
:103E700082430D4B1B1D1A607047042808D14FF078
:103E8000E021096941F004014FF0E022116107E0EF
:103E90004FF0E021096921F004014FF0E0221161A7
:103EA000704700000000FA050CED00E000E400E0BF
:103EB00080E100E080FFFF1F30B943F2DB028100A8
:103EC000A1F1C0410A6005E043F2D2028100A1F1F4
:103ED000C0410A606FF07042411C8900A1F1C041ED
:103EE0000A608100A1F1C041C1F804217047102887
:103EF0000AD118214FF020421166402151664FF03F
:103F0000FC319166D16610E01821F74A116040211A
:103F10004FF02042C2F884104FF0FC31F24A0832D0
:103F200011604FF02042C2F88C1070471820EE4903
:103F30002031086000200906C1F8A4004FF0FC30D1
:103F4000E94928310860091D0860091D08607047AB
:103F5000D0E901121143C268114302691143426959
:103F6000114382691143C2691143026A1143426AD3
:103F70001143826A1143C26A1143026B1143026802
:103F80009200A2F1C0421160816808290BD101683A
:103F90008900A1F1C041096841F04002016889002F
:103FA000A1F1C0410A60416B0968426B526841EA65
:103FB0000211426B926841EA0221426B928941EA06
:103FC0000241426B128A41EA0251426B127D41EA80
:103FD0000261426B926911430268521C9200A2F185
:103FE000C0421160C16AB1F5804F1BD1816B096875
:103FF000826B526841EA0211826B926841EA0221A7
:10400000826B128A41EA0251826B127D41EA02619F
:10401000826B9269114302689200A2F1C042C2F819
:10402000041107E06FF0704201688900A1F1C041FE
:10403000C1F80421704730B50021002200234468F4
:1040400044F0080485682C43C5682C4305692C435B
:10405000456944EA4524856944EA4531C4692468D0
:10406000C5696D6844EA0524C5692D8944EA05449B
:10407000C5692D7B44EA0562046A2468056A6D6897
:1040800044EA0524056A2D8944EA0544056A2D7B26
:1040900044EA05630468102C05D14FF020442166E2
:1040A000A266E36608E0904C21604FF02044C4F81B
:1040B00088208D4C0C34236030BD016841F0100124
:1040C000426841EA4221826841EA4231864A20320E
:1040D0001160C1680968C268526841EA0221C26879
:1040E000128941EA0241C268127B41EA02617E4ABA
:1040F00028321160016909680269526841EA0221A7
:104100000269128941EA02410269127B41EA0261B5
:10411000754A2C321160416909684269526841EA66
:1041200002214269128941EA02414269127B41EA55
:1041300002614FF02042C2F8B010704700210160C8
:104140000221416000218160C160016141618161A2
:10415000C16101624FF480514162490081620021D6
:10416000C16201630F21426B1160426B5160FF21FC
:10417000426B91600F21426BD160426B1161426BC7
:1041800051610021426B91610F21826B1160826B42
:104190005160FF21826B91600F21826BD160826B35
:1041A0001161826B51610021826B91617047102116
:1041B0000160002141608160C160016141618161F4
:1041C000FC21C2691160C2695160C2699160C26913
:1041D000D160026A1160026A5160026A9160026AEB
:1041E000D16070470021016041608160FC21C2689C
:1041F0001160C2685160C2689160C268D160026992
:10420000116002695160026991600269D16042697E
:10421000116042695160426991604269D1607047A2
:1042200051B18200A2F1C042126842F00103820043
:10423000A2F1C042136009E08200A2F1C0421268FC
:104240002A4B1A408300A3F1C0431A60704799B10A
:10425000102808D14FF02042126E42F004024FF0B5
:1042600020431A661DE0204A126842F004024FF013
:104270002043C3F8802014E0102809D14FF02042D9
:10428000126E1A4BDB1E1A404FF020431A6608E0EC
:10429000154A1268154BDB1E1A404FF02043C3F835
:1042A0008020704748B110492031096841F004016D
:1042B0004FF02042C2F8A01009E00B4920310968F4
:1042C0000A4AD21E11404FF02042C2F8A010704797
:1042D000B9B110280CD14FF02042126E42F04002CA
:1042E0004FF020431A661FE0800000A0FEFF0F0081
:1042F000724A126842F040024FF02043C3F8802017
:1043000012E0102808D14FF02042126E6C4B1A4078
:104310004FF020431A6607E0684A1268684B1A405B
:104320004FF02043C3F88020704701460020102939
:1043300003D14FF02042506F02E0604A14321068FF
:10434000704710B5F2B1102807D14FF020435B6ED3
:104350000B434FF02044636632E0B0F5807F08D114
:10436000564B1B1D1B680B434FF02044C4F8843090
:1043700026E0524B24331B680B434FF02044C4F813
:10438000A4301DE0102807D14FF020435B6E8B4313
:104390004FF02044636613E0B0F5807F08D1474BAF
:1043A0001B1D1B688B434FF02044C4F8843007E08A
:1043B000424B24331B688B434FF02044C4F8A43095
:1043C00010BD10B5024600200023102A03D14FF083
:1043D0002044636E09E0B2F5807F03D1374C241D81
:1043E000236802E0354C2434236803EA01040CB14D
:1043F000012000E0002010BD102807D14FF020421E
:10440000526E8A434FF020435A6613E0B0F5807F26
:1044100008D12A4A121D12688A434FF02043C3F87C
:10442000842007E0254A243212688A434FF0204353
:10443000C3F8A420704770B5024600200023002472
:104440000025102A03D14FF02046736E09E0B2F523
:10445000807F03D1194E361D336802E0174E243693
:10446000336803EA010403EAD10514B10DB1012058
:1044700000E0002070BD102808D14FF02042526E9D
:1044800022EAD1024FF020435A6615E0B0F5807F52
:1044900009D10A4A121D126822EAD1024FF02043C4
:1044A000C3F8842008E0054A2432126822EAD102C7
:1044B0004FF02043C3F8A42070470000800000A004
:1044C000BFFF0F0010B50446CC48844208D101213B
:1044D000042000F02DFB0021042000F029FB46E021
:1044E000C748844208D10121082000F021FB0021A7
:1044F000082000F01DFB3AE0C248844208D10121A7
:10450000102000F015FB0021102000F011FB2EE020
:10451000BD48844208D10121202000F009FB002180
:10452000202000F005FB22E0B848844208D1012198
:10453000402000F0FDFA0021402000F0F9FA16E0DA
:10454000B348844208D10121802000F0F1FA002113
:10455000802000F0EDFA0AE0AE48844207D1012144
:10456000801500F0E5FA0021A01500F0E1FA10BD79
:1045700010B50121084600F0DBFA0021012000F00F
:10458000D7FA10BD2DE9F041024600250026002093
:1045900000230024002791F803C00CF00F0591F8C8
:1045A00003C00CF0100CBCF1000F03D091F802C056
:1045B0004CEA050591F800C0BCF1000F31D0146839
:1045C00000202BE04FF0010C0CFA00F3B1F800C012
:1045D0000CEA03069E4220D183004FF00F0C0CFA28
:1045E00003F7BC4305FA03FC4CEA040491F803C04A
:1045F000BCF1280F06D14FF0010C0CFA00FCC2F8F8
:1046000014C00AE091F803C0BCF1480F05D14FF087
:10461000010C0CFA00FCC2F810C0401C0828D1D3D1
:104620001460B1F800C0BCF1FF0F34DD5468002005
:104630002EE000F1080C4FF0010808FA0CF3B1F875
:1046400000C00CEA03069E4221D183004FF00F0CFC
:104650000CFA03F7BC4305FA03FC4CEA040491F896
:1046600003C0BCF1280F05D100F1080C08FA0CF8C2
:10467000C2F8148091F803C0BCF1480F07D100F1D3
:10468000080C4FF0010808FA0CF8C2F81080401C22
:104690000828CED35460BDE8F0814FF6FF71018049
:1046A000022181700421C170704702460020936886
:1046B0000B400BB1012000E00020704701468868E4
:1046C00080B2704702460020D3680B400BB1012036
:1046D00000E0002070470146C86880B27047016161
:1046E0007047416170470AB1016100E04161704764
:1046F000C16070474FF480320A43826181618261F8
:1047000082698269704702460020434B18684FF661
:104710008073184040EA021008433F4B186070470E
:104720003E49C8617047F0B50A46002300240021C5
:10473000002500F00046B6F1004F02D1364EF16977
:1047400001E0354E7168C0F3034583B200F44016B2
:10475000B6F5401F08D121F070612F4E766826F023
:1047600070662D4F7E6012E000F48016B6F5801F53
:1047700006D1032606FA05F4A14341F0706106E074
:10478000460D360103FA06F6B14341F0706122B1DD
:10479000460D360103FA06F6314300F00046B6F145
:1047A000004F02D11C4EF16101E01B4E7160F0BD63
:1047B00030B500228B071C0F0F2303FA04F2164BAF
:1047C00008338C1053F824309343134C08348D1065
:1047D00044F8253023468C1053F824308C07240FDE
:1047E00000FA04F423430C4C08348D1044F82530AF
:1047F00030BD0A49DC310860704700000008014004
:10480000000C01400010014000140140001801405C
:10481000001C014000200140000001400000204237
:10482000DF48006840F00100DD4908600846406844
:10483000DC490840DA49486008460068DA4908401F
:10484000D74908600846006820F4802008600846C0
:10485000406820F4FE0048604FF41F0088607047F5
:10486000CF49096821F48031CD4A116011460968A9
:1048700021F480211160B0F5803F03D0B0F5802F86
:104880000ED106E0C649096841F48031C44A11607E
:1048900007E0C349096841F4A021C14A116000E062
:1048A00000BF00BF704710B5014600220023002062
:1048B0004A11012A02D1BA4C236806E0022A02D129
:1048C000B74C236A01E0B64C636A01F01F02012471
:1048D00094401C400CB1012000E0002010BD38B510
:1048E000002000900024002500BF3120FFF7DBFFEF
:1048F00005460098401C00900098B0F5A06F01D0CC
:10490000002DF2D03120FFF7CEFF08B1012400E0E6
:104910000024204638BD01460020A14A106820F03E
:10492000F80040EAC10010607047A0490860704775
:10493000024600209A4B586820F47C1042EA01039A
:104940001843974B5860704798490866704701466E
:104950000020934A506820F00300084350607047DD
:104960008F48406800F00C007047014600208C4AD8
:10497000506820F0F0000843506070470146002066
:10498000874A506820F4E060084350607047014651
:104990000020834A506820F4605040EAC100506013
:1049A000704729B17E4A527A02437D4B5A7204E025
:1049B0007B4A527A82437A4B5A7270477B49D8318C
:1049C0000860704701460020754A506820F4404056
:1049D0000843506070470021714A20321170704ABC
:1049E00082F82010012802D004280AD104E0012115
:1049F0006B4A2032117005E00521694A203211709E
:104A000000E000BF00BF7047694908607047644913
:104A1000096A0143624A1162704765494439086076
:104A2000704730B500210022002400235C4D6D68E2
:104A300005F00C0121B1042905D0082923D105E096
:104A40005C4D056022E05B4D05601FE0544D6D68D4
:104A500005F47012524D6D6805F48034022505EBA3
:104A600092421CB9544D554305600BE04C4D6D68A6
:104A700005F400351DB1504D5543056002E04D4D24
:104A80005543056002E04B4D056000BF00BF444D3B
:104A90006D6805F0F0010909484D6B5C0568DD4063
:104AA00045603F4D6D6805F4E061090A434D6B5C5C
:104AB0004568DD4085603A4D6D6805F46051C90A6E
:104AC0003E4D6B5C4568DD40C560354D6D6805F455
:104AD0004041890B3A4D6B5CC568B5FBF3F5056148
:104AE00030BD29B12E4A526902432D4B5A6104E070
:104AF0002B4A526982432A4B5A61704729B1284A8E
:104B000092690243264B9A6104E0254A92698243E6
:104B1000234B9A61704729B1214AD2690243204B45
:104B2000DA6104E01E4AD26982431D4BDA617047A4
:104B300029B11B4AD2680243194BDA6004E0184AD3
:104B4000D2688243164BDA60704729B1144A126961
:104B50000243134B1A6104E0114A12698243104B5D
:104B60001A61704712494039086070470F49C8649C
:104B700070470B49C87170470948406A40F080701F
:104B800007494862704701460020054A92680A407A
:104B90000AB1012000E00020704701498872704787
:104BA000001002400000FFF8FFFFF6FE0000424246
:104BB0008004424200127A0000093D0020000020DB
:104BC0003000002010B50446BE48844208D10121BF
:104BD0008014FFF7ADFF0021A014FFF7A9FF16E036
:104BE000B948844208D101210014FFF7AEFF00212B
:104BF0002014FFF7AAFF0AE0B448844207D101213C
:104C0000C013FFF7A2FF0021E013FFF79EFF10BDC6
:104C100010B50022028802F441520B884C882343CD
:104C20008C882343CC8823430C8923434C8923431A
:104C30008C892343CC8923431A430280838B4FF210
:104C4000FF74234083830B8A038210BD2DE9F04F4C
:104C500085B005460C464FF0000902274FF00008CA
:104C60004FF0010B0026B246A88B4FF240010840DE
:104C7000A88302202884B5F81C90A068022801D1DE
:104C800000BF38E0A08810B94FF0010B01E04FF0F1
:104C9000020B8D48854200D100E000BF6846FFF757
:104CA000C0FEDDF800A0E088B0F5007F0AD14FEA31
:104CB0001A2000EB80004000A168B0FBF1F0401D1D
:104CC00086B20BE04FEA4B10BAFBF0F000EB80002D
:104CD0004000A168B0FBF1F0401D86B20A20B6FB8F
:104CE000F0F606F00108A6EB0800C0F34F074FF6F8
:104CF000FF7000EA0828022F01DBFF2F02DD0227E8
:104D00004FF00008E08840EA080038432884A08873
:104D1000A1890843618808432188084340F4006062
:104D200040EA0909A5F81C9005B0BDE8F08F002104
:104D3000018041808180C180018141818181C18167
:104D40000721018270470021018041808180C1805C
:104D50000221816000218181704721B1028842F0E7
:104D60004002028004E002884FF6BF731A400280BE
:104D7000704721B1828B42F48062828304E0828B8F
:104D80004FF6FF331A408283704730B5002400236A
:104D90000C110125A540ABB21AB185881D43858051
:104DA00002E085889D43858030BD1AB183880B431E
:104DB000838002E083888B438380704781817047C2
:104DC0000146888970474FF6FF62914204D00288FD
:104DD00042F48072028004E002884FF6FF631A40BA
:104DE0000280704721B1828842F00402828004E090
:104DF00082884FF6FB731A408280704702884FF218
:104E0000FF731A40028002880A43028070470188BB
:104E100041F480510180704721B1028842F4005270
:104E2000028004E002884DF6FF731A40028070474A
:104E300002460020012901D0108B00E0908A7047C3
:104E40000146088A7047B1F5804F04D1028842F4C8
:104E50008042028004E002884BF6FF731A40028011
:104E600070470246002013890B400BB1012000E07F
:104E700000207047CA4302817047F0B50246002007
:104E800000240023002501F00F070126BE40B4B224
:104E90000B1101269E40B3B2968806EA03051689D7
:104EA000264016B10DB1012000E00020F0BD10B584
:104EB000002201F00F040123A3409AB2D3430381DF
:104EC00010BD00000030014000380040003C0040B0
:104ED00010B50446FB48844209D101218803FFF73D
:104EE00027FE00214FF48040FFF722FE32E0F64813
:104EF000844209D101214804FFF727FE00214FF425
:104F00000030FFF722FE25E0F048844209D101215C
:104F10008804FFF71AFE00214FF48020FFF715FEEA
:104F200018E0EB48844209D10121C804FFF70DFEC7
:104F300000214FF40020FFF708FE0BE0E548844213
:104F400008D101210805FFF700FE00214FF4801071
:104F5000FFF7FBFD10BD2DE9F04786B005460E4674
:104F60000024A24600BFA1460027B08900B100BFBF
:104F70002F462C8A4CF6FF700440F08804432C82A4
:104F8000AC894EF6F3100440B0883189084371892A
:104F900008430443AC81AC8A4FF6FF400440B0891B
:104FA0000443AC8201A8FFF73CFDC648874202D10A
:104FB000DDF810A001E0DDF80CA0A88900F40040A5
:104FC00040B10AEBCA0000EB0A1031684900B0FB9F
:104FD000F1F807E00AEBCA0000EB0A10316889001B
:104FE000B0FBF1F86420B8FBF0F004012009642163
:104FF00001FB1089A88900F4004040B1322000EB89
:10500000C900B0FBF1F000F00700044308E03220D3
:1050100000EB09106421B0FBF1F000F00F00044335
:105020002C8106B0BDE8F0874FF4165101600021D5
:105030008180C18001810C214181002181817047E3
:1050400010B502460020108A4FF2FF0318400B886B
:105050004C8823438C882343CC88234318431082F5
:1050600010BD0021018041808180C180704721B145
:10507000828942F40052828104E082894DF6FF73F6
:105080001A4082817047F0B50346002400260025AF
:10509000002040F66A17B94200D100BF1846C1F39C
:1050A000421401F01F06012707FA06F5012C01D171
:1050B0000C3004E0022C01D1103000E014301AB1A1
:1050C00007682F43076002E00768AF430760F0BD41
:1050D0001AB1838A0B43838202E0838A8B438382E3
:1050E0007047028A4FF6F0731A400282028A0A431E
:1050F0000282704782894FF2FF731A40828182894F
:105100000A438281704721B1828942F00202828182
:1051100004E082894FF6FD731A4082817047028A4B
:105120004FF6DF731A400282028A0A4302827047F6
:1051300021B1028A42F48042028204E0028A4BF6E4
:10514000FF731A4002827047C1F3080282807047E1
:1051500001468888C0F308007047818941F0010149
:1051600081817047028BD2B20283028B42EA012214
:1051700002837047028B02F47F420283028B0A4350
:105180000283704721B1828A42F02002828204E0C9
:10519000828A4FF6DF731A408282704721B1828A79
:1051A00042F01002828204E0828A4FF6EF731A40C6
:1051B0008282704721B1828A42F00802828204E032
:1051C000828A4FF6F7731A408282704721B1828932
:1051D00042F40042828103E08289C2F30E0282819E
:1051E000704721B1828A42F40062828204E0828A9E
:1051F0004FF2FF731A4082827047828A4FF6FB7328
:105200001A408282828A0A438282704721B1828A4E
:1052100042F00202828204E0828A4FF6FD731A4055
:105220008282704702460020B1F5007F00D100BFA6
:1052300013880B400BB1012000E00020704701F4FF
:105240000072B2F5007F00D100BFCA4302807047F0
:1052500070B50246002400230025002040F66A169F
:10526000B14200D100BFC1F3421501F01F03012676
:1052700006FA03F3012D02D19689334006E0022D90
:1052800002D1168A334001E0968A33400C1201267F
:1052900006FA04F41688344013B10CB1012000E082
:1052A000002070BD10B50022002340F66A14A14210
:1052B00000D100BF0A1201249440A3B2DC43048051
:1052C00010BD00000038014000440040004800408C
:1052D000004C004000500040704700000FB40449EB
:1052E00010B503AA029800F009F810BC5DF814FB91
:1052F000040000207047704770477047074B70B537
:105300000D467B4400F011F80446284600F020F8D2
:1053100010B14FF0FF3070BD204670BD5BB0FFFF95
:1053200001694A1C02610878704700B58FB0CDE969
:1053300001310021059105497944CDE90310114659
:10534000684600F02EF80FB000BD0000E5FFFFFF3B
:10535000007B00F080007047754600F03FF8AE46D5
:1053600005006946534620F00700854618B020B571
:10537000FEF726FDBDE820404FF000064FF0000785
:105380004FF000084FF0000B21F00701AC46ACE8ED
:10539000C009ACE8C009ACE8C009ACE8C0098D465A
:1053A00070472DE9F04106460024D6E90170F56802
:1053B0008046304603E04146B847641C3046A84763
:1053C0000028F8D12046BDE8F08110B50446AFF3BF
:1053D00000802046BDE81040FAF7CFBE0048704775
:1053E00034000020045400080000002034000000B5
:1053F0002801000838540008340000206408000028
:10540000440100080000000000000000000000004F
:1054100000A24A0400000000000000000102030492
:10542000060708090000000001020304010203044A
:08543000060708090204060842
:0400000508003DA909
:00000001FF
