:020000040800F2
:10000000980800207D0F0008810F0008830F00086A
:10001000850F0008870F0008890F00080000000006
:100020000000000000000000000000008B0F00082E
:100030008D0F0008000000008F0F0008910F0008CE
:10004000930F0008930F0008930F0008930F000808
:10005000930F0008930F0008930F0008930F0008F8
:10006000930F0008930F0008930F0008930F0008E8
:10007000930F0008930F0008930F0008930F0008D8
:10008000930F0008930F0008930F0008930F0008C8
:10009000930F0008930F0008930F0008930F0008B8
:1000A000930F0008930F0008930F0008930F0008A8
:1000B000930F0008930F0008930F0008930F000898
:1000C000930F0008930F0008930F0008930F000888
:1000D000930F0008930F0008930F0008930F000878
:1000E000930F0008930F0008930F000800F002F828
:1000F00000F03AF80AA090E8000C82448344AAF188
:100100000107DA4501D100F02FF8AFF2090EBAE885
:100110000F0013F0010F18BFFB1A43F0010318473B
:100120008C210000AC210000103A24BF78C878C1AF
:10013000FAD8520724BF30C830C144BF04680C60ED
:10014000704700000023002400250026103A28BF35
:1001500078C1FBD8520728BF30C148BF0B60704739
:100160001FB51FBD10B510BD02F05AF81146FFF7BC
:10017000F7FF00F008F802F08CF803B4FFF7F2FF85
:1001800003BC00F0AFF808B500F077FE00F040F8CF
:100190004FF4E13000F0B4F800F0BDF900F016FBC8
:1001A00064200346C82200210090012000F03DFB9E
:1001B00000F0E6FD2BE04FF478404FF416734FF457
:1001C000806200210090084600F015FB4FF47A7021
:1001D00000F05BF84FF4FC604FF416734FF480624C
:1001E00000210090084600F006FB4FF47A7000F002
:1001F0004CF81F204FF416734FF4806200210090DA
:10020000084600F0F8FA4FF47A7000F03EF8D2E7B2
:1002100010B56FF0040000F01AFF2E4800682E4958
:10022000B0FBF1F02D4908700846007800EB400162
:10023000C1EBC0104FF6FF7101EAC00028490880E9
:1002400010BD0146254A12784A434FF0E0235A6117
:1002500000229A611A46126942F001021A6100BF37
:100260004FF0E022106900F001021AB100F4803270
:10027000002AF5D04FF0E022126922F001024FF07F
:10028000E0231A6100229A6170470146144A1288DD
:100290004A434FF0E0235A6100229A611A461269DC
:1002A00042F001021A6100BF4FF0E022106900F035
:1002B00001021AB100F48032002AF5D04FF0E0229A
:1002C000126922F001024FF0E0231A6100229A61C4
:1002D000704700000C00002000127A00000000208F
:1002E0000200002000BF704700BF284A128802F0B9
:1002F0004002002AF9D0C2B2244B1B1D1A8070475D
:1003000010B586B00446012144F2040001F0E0FC7F
:100310004FF40070ADF8140003208DF8160018207B
:100320008DF8170005A91A4801F016FA4FF48060FD
:10033000ADF8140004208DF8170005A9144801F049
:100340000BFA25208DF8000003208DF801008DF8B0
:10035000020001208DF80300684600F02EFE019493
:100360000020ADF80800ADF80A00ADF80C00ADF8BB
:1003700010000C20ADF80E0001A9044801F04FFD5B
:100380000121024801F0D7FD06B010BD0038014040
:100390000008014000B59FB00121080201F08BFC6C
:1003A00001214FF4B47001F093FC4CF23370ADF8BE
:1003B000780018208DF87B0003208DF87A001EA9A4
:1003C000574801F0C9F94FF68070ADF87800182051
:1003D0008DF87B0003208DF87A001EA9514801F0AA
:1003E000BBF94FF40860ADF8780018208DF87B0059
:1003F00003208DF87A001EA9494801F0ADF90120CB
:1004000008900020099001200A9000200B900C9089
:100410000D900E9001200190002002900120039089
:10042000002004900590069007900F9010900820EF
:100430001190102012900020139015901490169097
:100440004FF4006017904000189040001990400051
:100450001A9000201B9008A81C9001A81D900FA8BE
:1004600000F060FE0121002000F0C4FF1FB000BDBD
:100470004FF0C041088070472B49088070472A49D7
:100480000880704700204FF0C0410988C8B270470B
:10049000002025490888704700B502461046FFF73E
:1004A000E7FF00BD00B502461046FFF7E5FF00BDBF
:1004B00000B502461046FFF7E2FF00BD00B500227E
:1004C000FFF7E0FF0246104600BD00B50022FFF72F
:1004D000DFFF0246104600BD002106E00C2100BFF0
:1004E0000A1EA1F1010399B2FAD1021EA0F1010383
:1004F00098B2F3D17047002107E042F6E06100BFF7
:100500000A1EA1F1010399B2FAD1021EA0F1010362
:1005100098B2F2D1704710B5FFF73CFF10BD000054
:1005200000140140001801400000026008B50121DC
:10053000402001F0CDFB0220ADF8000010208DF826
:10054000030003208DF802006946C64801F004F953
:100550000221C44801F0AFF96420FFF7CCFF02216B
:10056000C04801F0A6F96420FFF7C5FF08BD70B5CB
:1005700000240026002500BFFFF7A0FF00F00200C6
:10058000F8B90120FFF7B7FF0120FFF785FF012031
:10059000FFF7B1FFFFF799FFC6B206F08000802891
:1005A00002D1012500240FE00120FFF7A4FF012064
:1005B000FFF772FF0120FFF79EFF8020FFF772FF19
:1005C00002E00025601CC4B225B9052C02D1FFF75A
:1005D000ADFF0024002DCFD070BD2DE9FE4F0024CB
:1005E000A14CA248B4FBF0F100FB1140A049B0FBC4
:1005F000F1F002900298052804D99C48B4FBF0F071
:10060000441C02E09948B4FBF0F49A490C7004EBE6
:10061000440499490C7099490C7008460078642884
:1006200001DD6420087094480078642802DD6420AD
:10063000914908708F480078412802DD41208D499A
:1006400008704FF003084FF002094FF0020A4FF014
:10065000050B0521019100918748067887480578A8
:100660008448007847000520FFF716FF4FEA8811FD
:1006700041EA4B0141EA1720FFF714FF0720FFF77B
:100680000BFF4FEA8A12009942EA410141EA162023
:10069000FFF708FF0920FFF7FFFE4FEA89120199D3
:1006A00042EA410141EA1520FFF7FCFE0620FFF770
:1006B000F3FEF8B2FFF7F6FE0820FFF7EDFE304636
:1006C000FFF7F0FE0A20FFF7E7FE2846FFF7EAFEF5
:1006D0000020FFF7E1FE0120FFF7FEFE8020FFF77C
:1006E000E1FE0120FFF707FFBDE8FE8F70B505466C
:1006F0002021E02000F0D2F80321E12000F0CEF824
:100700004FF47A7090FBF5F041F6846191FBF0F0C4
:1007100084B2A01E84B2E1B2E22000F0BFF8211240
:10072000E32000F0BBF80121E42000F0B7F800F06E
:100730001EFB0120FFF7DFFE70BD10B500F0C2F810
:1007400000F0CFF800F0DAF800F0E7F800F0F4F885
:1007500000F0FFF800F00CF900F017F900F022F9B2
:1007600000F02DF900F038F900F043F94FF416715C
:100770004FF4806000F04AF98C2000F097F9A02037
:1007800000F0C1F9142000F0D7F9142000F0EDF9C1
:100790000C2000F0FBF9032000F003FA00F00CFA43
:1007A00000F017FA10BD10B5FFF717FF34A001F0E5
:1007B000F9FC31480078FFF799FF33A001F0F2FC13
:1007C000FFF7BBFF33A001F0EDFC10BD10B56420B6
:1007D000FFF791FEFFF7AAFEFFF7C9FE6420FFF7BF
:1007E0008AFE00BFFFF76AFE00F002000028F9D180
:1007F000FFF7D9FF10BD2DE9F04106460F4614461C
:100800001D46DDF818801FFA88F000F0F1F939462E
:10081000304600F004FA2946204600F01CFA00F0A9
:100820003FFA00F047FABDE8F0812DE9F0410446B7
:100830000D4617461E46DDF8188000F044FA38468B
:1008400000F050FA0DB900F058FA304600F064FAA2
:10085000404600F070FA012C01D100F07BFABDE8AF
:10086000F08100000018014000590D0340420F00C4
:10087000A08601000A0000200900002008000020D6
:10088000706C6C6F6B0D0A007372616D6F6B0D0A8B
:10089000000000006C63646F6B0D0A0070B50546C4
:1008A0000C462846FFF7F8FD2046FFF7FBFD70BD1C
:1008B00070B504462046FFF7EFFDFFF706FEC5B210
:1008C000284670BD10B50120FFF7E6FDFFF7FDFDDE
:1008D000C4B244F0100404F0F7042046FFF7E2FD30
:1008E00010BD10B50120FFF7D7FDFFF7EEFDC4B234
:1008F00044F001042046FFF7D5FD10BD10B50220DD
:10090000FFF7CAFDFFF7E1FDC4B204F07F0444F035
:1009100040042046FFF7C6FD10BD10B50220FFF7CA
:10092000BBFDFFF7D2FDC4B204F0FB0404F0FD04EC
:100930002046FFF7B7FD10BD10B50320FFF7ACFD53
:10094000FFF7C3FDC4B204F0FB042046FFF7AAFD85
:1009500010BD10B50320FFF79FFDFFF7B6FDC4B231
:1009600004F0FD0404F0FE042046FFF79BFD10BDDB
:1009700010B51220FFF790FDFFF7A7FDC4B244F0B9
:1009800080042046FFF78EFD10BD10B51220FFF742
:1009900083FDFFF79AFDC4B204F0F7042046FFF789
:1009A00081FD10BD10B51220FFF776FDFFF78DFD1C
:1009B000C4B204F0F8042046FFF774FD10BD10B572
:1009C0001320FFF769FDFFF780FDC4B204F07F0438
:1009D0002046FFF767FD10BD10B51320FFF75CFD43
:1009E000FFF773FDC4B204F0BF042046FFF75AFDC1
:1009F00010BD10B51320FFF74FFDFFF766FDC4B221
:100A000004F0DF042046FFF74DFD10BD70B504462D
:100A10000D46082C1DDA1420FFF73EFD0020FFF7DD
:100A200041FD1520FFF738FDE0B2FFF73BFD681EE2
:100A3000C6B21A20FFF730FD3046FFF733FD681EBF
:100A4000C0F307261B20FFF727FD3046FFF72AFDDE
:100A50002BE02046E11704EB5171C910491ECEB2BC
:100A60001420FFF719FD3046FFF71CFD2046E11763
:100A700004EB5171C910A4EBC101CEB21520FFF7F0
:100A80000BFD3046FFF70EFD681EC6B21A20FFF7B9
:100A900003FD3046FFF706FD681EC0F307261B2046
:100AA000FFF7FAFC3046FFF7FDFC70BD70B5044659
:100AB000082C0CDA1620FFF7EFFC0020FFF7F2FC01
:100AC0001720FFF7E9FCE0B2FFF7ECFC1AE0204644
:100AD000E11704EB5171C910491ECDB21620FFF782
:100AE000DBFC2846FFF7DEFC2046E11704EB5171E2
:100AF000C910A4EBC101CDB21720FFF7CDFC2846E9
:100B0000FFF7D0FC70BD70B50446082C06DA18203B
:100B1000FFF7C2FC0020FFF7C5FC0CE02046E11700
:100B200004EB5171C910491ECDB21820FFF7B4FC77
:100B30002846FFF7B7FC70BD70B50446082C06DAEE
:100B40001920FFF7A9FC0020FFF7ACFC0CE02046C1
:100B5000E11704EB5171C910491ECDB21920FFF7FE
:100B60009BFC2846FFF79EFC70BD70B50446601ED6
:100B7000C5B21C20FFF790FC2846FFF793FC1D2010
:100B8000FFF78AFC2812FFF78DFC70BD70B5044694
:100B9000601EC5B21E20FFF77FFC2846FFF782FCCF
:100BA00070BD70B50446601EC5B21F20FFF774FC0F
:100BB0002846FFF777FC70BD10B55E20FFF76CFC90
:100BC000FFF783FCC4B204F0FB042046FFF76AFC85
:100BD00010BD10B55E20FFF75FFCFFF776FCC4B2D6
:100BE00004F0FD0444F001042046FFF75BFC10BD57
:100BF00010B50446D220FFF74FFC2012FFF752FC3D
:100C0000D320FFF749FCC4F3C700FFF74BFCD42007
:100C1000FFF742FCE106080EFFF744FC10BD70B57B
:100C200004460D466820FFF737FCE0B2FFF73AFCB8
:100C30006920FFF731FC2012FFF734FC6A20FFF730
:100C40002BFCE8B2FFF72EFC6B20FFF725FC2812E7
:100C5000FFF728FC70BD70B504460D466C20FFF709
:100C60001BFCE0B2FFF71EFC6D20FFF715FC201205
:100C7000FFF718FC6E20FFF70FFCE8B2FFF712FC3D
:100C80006F20FFF709FC2812FFF70CFC70BD10B5B0
:100C900000BFFFF713FC00F008010029F9D110BDD7
:100CA00010B57620FFF7F8FBE020FFF7FBFBFFF71E
:100CB000EEFF10BD10B500BFFFF700FC00F008000C
:100CC0000028F9D110BD10B58520FFF7E5FBFFF72F
:100CD000FCFBC4B244F0080404F0FB042046FFF718
:100CE000E1FB10BD10B50446601E84B28420FFF7FE
:100CF000D3FBE0B2FFF7D6FB10BD10B58520FFF7A0
:100D0000CBFBFFF7E2FBC4B204F07F0404F0BF04A6
:100D10002046FFF7C7FB10BD10B504468E20FFF735
:100D2000BBFBE0B2FFF7BEFB8F20FFF7B5FB201245
:100D3000FFF7B8FB10BD10B504468C20FFF7ACFBE5
:100D4000E0B2FFF7AFFB8D20FFF7A6FB2012FFF705
:100D5000A9FB10BD10B58620FFF79EFBFFF7B5FB82
:100D6000C4B244F010042046FFF79CFB10BD10B540
:100D700000BFFFF7A3FB00F004010029F9D010BD6C
:100D800010B51220FFF788FBFFF79FFBC4B244F0B9
:100D900040042046FFF786FB10BD00000CB5002084
:100DA000019000906C48006840F480306A49086007
:100DB00000BF6948006800F4003000900198401CB2
:100DC0000190009818B90198B0F5A06FF1D1624870
:100DD000006800F4003010B10120009001E0002014
:100DE00000900098012843D15C48006840F0100052
:100DF0005A4908600846006820F003000860084669
:100E0000006840F00200086053484068524948605A
:100E10000846406848600846406840F48060486082
:100E20000846406820F47C1048600846406840F45A
:100E3000E81048600846006840F08070086000BF15
:100E40004548006800F000700028F9D0424840682A
:100E500020F00300404948600846406840F0020026
:100E6000486000BF3C48406800F00C000828F9D1F9
:100E70000CBD10B5FFF792FF10BD10B536480068E5
:100E800040F0010034490860084640683449084091
:100E90003149486008460068324908402E490860D8
:100EA0000846006820F4802008600846406820F466
:100EB000FE0048604FF41F008860FFF7DAFF4FF034
:100EC00000602949086010BD10B5002100200022F3
:100ED000214B5B6803F00C0121B1042906D00829DD
:100EE00028D107E0214B224C236027E01F4B204CE8
:100EF000236023E0184B5B6803F47010164B5B68AB
:100F000003F48032022303EB904022B9194B434390
:100F1000174C23600DE0104B5B6803F4003323B1E2
:100F2000144B4343124C236003E0104B4343104CDB
:100F3000236003E00D4B0E4C236000BF00BF064B47
:100F40005B68C3F303130C4CE15C094B1B68CB409B
:100F5000074C236010BD000000100240002002403A
:100F60000000FFF8FFFFF6FE08ED00E000127A0037
:100F70000C00002000093D00100000200848004738
:100F8000FEE7FEE7FEE7FEE7FEE7FEE7FEE7FEE739
:100F9000FEE7FEE703480449024A044B704700009D
:100FA000ED0000089800002098080020980000201C
:100FB00031490143314A1160704770B50021002367
:100FC0000F22C47804B32D4C246804F4E064C4F503
:100FD000E064210AC1F10403CA40447804FA03F131
:100FE0008478144021430901254C0678A1550478E2
:100FF00004F01F050124AC4005786D11AD0005F12A
:10100000E025C5F8004109E0047804F01F0501243B
:10101000AC401C4D0678761145F8264070BD1A4A42
:101020000A400243154B1B1F1A60704739B1134A1F
:10103000121D12680243114B1B1D1A6006E00F4A75
:10104000121D126882430D4B1B1D1A607047042845
:1010500008D14FF0E021096941F004014FF0E0228E
:10106000116107E04FF0E021096921F004014FF020
:10107000E0221161704700000000FA050CED00E06D
:1010800000E400E080E100E080FFFF1F30B943F2A0
:10109000DB028100A1F1C0410A6005E043F2D20207
:1010A0008100A1F1C0410A606FF07042411C8900CB
:1010B000A1F1C0410A608100A1F1C041C1F8042141
:1010C000704710280AD118214FF0204211664021A4
:1010D00051664FF0FC319166D16610E01821F74A55
:1010E000116040214FF02042C2F884104FF0FC31D3
:1010F000F24A083211604FF02042C2F88C1070475B
:101100001820EE492031086000200906C1F8A4002B
:101110004FF0FC30E94928310860091D0860091DBD
:1011200008607047D0E901121143C2681143026997
:1011300011434269114382691143C2691143026A32
:101140001143426A1143826A1143C26A1143026B1E
:10115000114302689200A2F1C0421160816808291F
:101160000BD101688900A1F1C041096841F040023A
:1011700001688900A1F1C0410A60416B0968426BB6
:10118000526841EA0211426B926841EA0221426BC5
:10119000928941EA0241426B128A41EA0251426B52
:1011A000127D41EA0261426B926911430268521C4E
:1011B0009200A2F1C0421160C16AB1F5804F1BD10B
:1011C000816B0968826B526841EA0211826B9268F6
:1011D00041EA0221826B128A41EA0251826B127D3E
:1011E00041EA0261826B9269114302689200A2F1A6
:1011F000C042C2F8041107E06FF070420168890034
:10120000A1F1C041C1F80421704730B5002100228E
:101210000023446844F0080485682C43C5682C43C7
:1012200005692C43456944EA4524856944EA45310A
:10123000C4692468C5696D6844EA0524C5692D89B7
:1012400044EA0544C5692D7B44EA0562046A2468C2
:10125000056A6D6844EA0524056A2D8944EA054457
:10126000056A2D7B44EA05630468102C05D14FF014
:1012700020442166A266E36608E0904C21604FF0AE
:101280002044C4F888208D4C0C34236030BD0168A4
:1012900041F01001426841EA4221826841EA42314C
:1012A000864A20321160C1680968C268526841EA02
:1012B0000221C268128941EA0241C268127B41EAF6
:1012C00002617E4A28321160016909680269526828
:1012D00041EA02210269128941EA02410269127B54
:1012E00041EA0261754A2C3211604169096842691C
:1012F000526841EA02214269128941EA0241426987
:10130000127B41EA02614FF02042C2F8B0107047F0
:10131000002101600221416000218160C160016102
:1013200041618161C16101624FF4805141624900B4
:1013300081620021C16201630F21426B1160426B27
:101340005160FF21426B91600F21426BD160426B73
:101350001161426B51610021426B91610F21826BDF
:101360001160826B5160FF21826B91600F21826B53
:10137000D160826B1161826B51610021826B91613E
:10138000704710210160002141608160C1600161EE
:1013900041618161FC21C2691160C2695160C26909
:1013A0009160C269D160026A1160026A5160026A8A
:1013B0009160026AD16070470021016041608160E4
:1013C000FC21C2681160C2685160C2689160C26845
:1013D000D16002691160026951600269916002691D
:1013E000D16042691160426951604269916042690D
:1013F000D160704751B18200A2F1C042126842F040
:1014000001038200A2F1C042136009E08200A2F150
:10141000C04212682A4B1A408300A3F1C0431A60ED
:10142000704799B1102808D14FF02042126E42F057
:1014300004024FF020431A661DE0204A126842F071
:1014400004024FF02043C3F8802014E0102809D193
:101450004FF02042126E1A4BDB1E1A404FF0204311
:101460001A6608E0154A1268154BDB1E1A404FF049
:101470002043C3F88020704748B1104920310968E3
:1014800041F004014FF02042C2F8A01009E00B49DE
:10149000203109680A4AD21E11404FF02042C2F89A
:1014A000A0107047B9B110280CD14FF02042126E35
:1014B00042F040024FF020431A661FE0800000A077
:1014C000FEFF0F00724A126842F040024FF02043C4
:1014D000C3F8802012E0102808D14FF02042126E8D
:1014E0006C4B1A404FF020431A6607E0684A1268B6
:1014F000684B1A404FF02043C3F8802070470146E4
:101500000020102903D14FF02042506F02E0604AC2
:1015100014321068704710B5F2B1102807D14FF09F
:1015200020435B6E0B434FF02044636632E0B0F51E
:10153000807F08D1564B1B1D1B680B434FF0204486
:10154000C4F8843026E0524B24331B680B434FF021
:101550002044C4F8A4301DE0102807D14FF02043E8
:101560005B6E8B434FF02044636613E0B0F5807FE1
:1015700008D1474B1B1D1B688B434FF02044C4F818
:10158000843007E0424B24331B688B434FF02044E8
:10159000C4F8A43010BD10B5024600200023102A64
:1015A00003D14FF02044636E09E0B2F5807F03D190
:1015B000374C241D236802E0354C2434236803EAA9
:1015C00001040CB1012000E0002010BD102807D15B
:1015D0004FF02042526E8A434FF020435A6613E088
:1015E000B0F5807F08D12A4A121D12688A434FF055
:1015F0002043C3F8842007E0254A243212688A4336
:101600004FF02043C3F8A420704770B50246002075
:10161000002300240025102A03D14FF02046736ECA
:1016200009E0B2F5807F03D1194E361D336802E020
:10163000174E2436336803EA010403EAD10514B1D6
:101640000DB1012000E0002070BD102808D14FF03E
:101650002042526E22EAD1024FF020435A6615E032
:10166000B0F5807F09D10A4A121D126822EAD10220
:101670004FF02043C3F8842008E0054A2432126862
:1016800022EAD1024FF02043C3F8A42070470000A3
:10169000800000A0BFFF0F0010B50446CC48844274
:1016A00008D10121042000F02DFB0021042000F0CE
:1016B00029FB46E0C748844208D10121082000F0F8
:1016C00021FB0021082000F01DFB3AE0C2488442C3
:1016D00008D10121102000F015FB0021102000F09E
:1016E00011FB2EE0BD48844208D10121202000F0EA
:1016F00009FB0021202000F005FB22E0B8488442CD
:1017000008D10121402000F0FDFA0021402000F026
:10171000F9FA16E0B348844208D10121802000F094
:10172000F1FA0021802000F0EDFA0AE0AE48844290
:1017300007D10121801500F0E5FA0021A01500F085
:10174000E1FA10BD10B50121084600F0DBFA0021D6
:10175000012000F0D7FA10BD2DE9F0410246002526
:101760000026002000230024002791F803C00CF07D
:101770000F0591F803C00CF0100CBCF1000F03D062
:1017800091F802C04CEA050591F800C0BCF1000FC9
:1017900031D0146800202BE04FF0010C0CFA00F35C
:1017A000B1F800C00CEA03069E4220D183004FF03E
:1017B0000F0C0CFA03F7BC4305FA03FC4CEA0404D3
:1017C00091F803C0BCF1280F06D14FF0010C0CFAC0
:1017D00000FCC2F814C00AE091F803C0BCF1480F45
:1017E00005D14FF0010C0CFA00FCC2F810C0401CEF
:1017F0000828D1D31460B1F800C0BCF1FF0F34DD6C
:10180000546800202EE000F1080C4FF0010808FA9F
:101810000CF3B1F800C00CEA03069E4221D183000C
:101820004FF00F0C0CFA03F7BC4305FA03FC4CEA2B
:10183000040491F803C0BCF1280F05D100F1080C95
:1018400008FA0CF8C2F8148091F803C0BCF1480FF4
:1018500007D100F1080C4FF0010808FA0CF8C2F8A3
:101860001080401C0828CED35460BDE8F0814FF6AC
:10187000FF710180022181700421C170704702460E
:10188000002093680B400BB1012000E0002070475E
:101890000146886880B2704702460020D3680B403A
:1018A0000BB1012000E0002070470146C86880B2FB
:1018B000704701617047416170470AB1016100E002
:1018C00041617047C16070474FF480320A438261C2
:1018D0008161826182698269704702460020434BC0
:1018E00018684FF68073184040EA021008433F4BD7
:1018F000186070473E49C8617047F0B50A4600233A
:1019000000240021002500F00046B6F1004F02D16E
:10191000364EF16901E0354E7168C0F3034583B27C
:1019200000F44016B6F5401F08D121F070612F4E2B
:10193000766826F070662D4F7E6012E000F4801607
:10194000B6F5801F06D1032606FA05F4A14341F03F
:10195000706106E0460D360103FA06F6B14341F028
:10196000706122B1460D360103FA06F6314300F0EC
:101970000046B6F1004F02D11C4EF16101E01B4E52
:101980007160F0BD30B500228B071C0F0F2303FAE6
:1019900004F2164B08338C1053F824309343134C45
:1019A00008348D1044F8253023468C1053F8243029
:1019B0008C07240F00FA04F423430C4C08348D10D8
:1019C00044F8253030BD0A49DC310860704700001A
:1019D00000080140000C01400010014000140140CB
:1019E00000180140001C014000200140000001409F
:1019F00000002042DF48006840F00100DD49086037
:101A000008464068DC490840DA49486008460068F2
:101A1000DA490840D74908600846006820F4802069
:101A200008600846406820F4FE0048604FF41F003C
:101A300088607047CF49096821F48031CD4A116030
:101A40001146096821F480211160B0F5803F03D070
:101A5000B0F5802F0ED106E0C649096841F4803107
:101A6000C44A116007E0C349096841F4A021C14A92
:101A7000116000E000BF00BF704710B501460022B2
:101A8000002300204A11012A02D1BA4C236806E043
:101A9000022A02D1B74C236A01E0B64C636A01F016
:101AA0001F02012494401C400CB1012000E00020E2
:101AB00010BD38B5002000900024002500BF312063
:101AC000FFF7DBFF05460098401C00900098B0F53A
:101AD000A06F01D0002DF2D03120FFF7CEFF08B16A
:101AE000012400E00024204638BD01460020A14A20
:101AF000106820F0F80040EAC10010607047A0496B
:101B000008607047024600209A4B586820F47C1009
:101B100042EA01031843974B58607047984908669A
:101B2000704701460020934A506820F003000843A4
:101B3000506070478F48406800F00C0070470146C5
:101B400000208C4A506820F0F00008435060704735
:101B500001460020874A506820F4E0600843506046
:101B6000704701460020834A506820F4605040EAE4
:101B7000C1005060704729B17E4A527A02437D4BC2
:101B80005A7204E07B4A527A82437A4B5A72704707
:101B90007B49D8310860704701460020754A50687B
:101BA00020F440400843506070470021714A2032C1
:101BB0001170704A82F82010012802D004280AD13E
:101BC00004E001216B4A2032117005E00521694AC9
:101BD0002032117000E000BF00BF70476949086003
:101BE00070476449096A0143624A11627047654956
:101BF00044390860704730B50021002200240023DA
:101C00005C4D6D6805F00C0121B1042905D008294F
:101C100023D105E05C4D056022E05B4D05601FE0CF
:101C2000544D6D6805F47012524D6D6805F48034A2
:101C3000022505EB92421CB9544D554305600BE05B
:101C40004C4D6D6805F400351DB1504D5543056090
:101C500002E04D4D5543056002E04B4D056000BF6D
:101C600000BF444D6D6805F0F0010909484D6B5CFB
:101C70000568DD4045603F4D6D6805F4E061090A87
:101C8000434D6B5C4568DD4085603A4D6D6805F4F9
:101C90006051C90A3E4D6B5C4568DD40C560354DFD
:101CA0006D6805F44041890B3A4D6B5CC568B5FB26
:101CB000F3F5056130BD29B12E4A526902432D4B1F
:101CC0005A6104E02B4A526982432A4B5A61704799
:101CD00029B1284A92690243264B9A6104E0254AB9
:101CE00092698243234B9A61704729B1214AD26994
:101CF0000243204BDA6104E01E4AD26982431D4B45
:101D0000DA61704729B11B4AD2680243194BDA6085
:101D100004E0184AD2688243164BDA60704729B152
:101D2000144A12690243134B1A6104E0114A126902
:101D30008243104B1A61704712494039086070475E
:101D40000F49C86470470B49C87170470948406A19
:101D500040F0807007494862704701460020054AFC
:101D600092680A400AB1012000E000207047014952
:101D700088727047001002400000FFF8FFFFF6FE77
:101D8000000042428004424200127A0000093D00F5
:101D9000200000203000002010B50446FB4884429B
:101DA00009D101218803FFF7ADFF00214FF48040E6
:101DB000FFF7A8FF32E0F648844209D10121480428
:101DC000FFF7ADFF00214FF40030FFF7A8FF25E03B
:101DD000F048844209D101218804FFF7A0FF0021C7
:101DE0004FF48020FFF79BFF18E0EB48844209D1B5
:101DF0000121C804FFF793FF00214FF40020FFF7F3
:101E00008EFF0BE0E548844208D101210805FFF769
:101E100086FF00214FF48010FFF781FF10BD2DE9F0
:101E2000F04786B005460E460024A24600BFA146F4
:101E30000027B08900B100BF2F462C8A4CF6FF70F6
:101E40000440F08804432C82AC894EF6F310044021
:101E5000B08831890843718908430443AC81AC8A56
:101E60004FF6FF400440B0890443AC8201A8FFF75D
:101E7000C2FEC648874202D1DDF810A001E0DDF8BD
:101E80000CA0A88900F4004040B10AEBCA0000EBA6
:101E90000A1031684900B0FBF1F807E00AEBCA000C
:101EA00000EB0A1031688900B0FBF1F86420B8FB40
:101EB000F0F004012009642101FB1089A88900F4D5
:101EC000004040B1322000EBC900B0FBF1F000F05F
:101ED0000700044308E0322000EB09106421B0FB46
:101EE000F1F000F00F0004432C8106B0BDE8F0874C
:101EF0004FF41651016000218180C18001810C21C5
:101F0000418100218181704710B502460020108A6E
:101F10004FF2FF0318400B884C8823438C882343DF
:101F2000CC8823431843108210BD002101804180DA
:101F30008180C180704721B1828942F40052828140
:101F400004E082894DF6FF731A4082817047F0B534
:101F50000346002400260025002040F66A17B942F7
:101F600000D100BF1846C1F3421401F01F0601273B
:101F700007FA06F5012C01D10C3004E0022C01D146
:101F8000103000E014301AB107682F43076002E0F8
:101F90000768AF430760F0BD1AB1838A0B438382A1
:101FA00002E0838A8B4383827047028A4FF6F07384
:101FB0001A400282028A0A430282704782894FF2E3
:101FC000FF731A40828182890A438281704721B15E
:101FD000828942F00202828104E082894FF6FD7319
:101FE0001A4082817047028A4FF6DF731A400282DC
:101FF000028A0A430282704721B1028A42F4804277
:10200000028204E0028A4BF6FF731A400282704794
:10201000C1F308028280704701468888C0F3080037
:102020007047818941F0010181817047028BD2B2F2
:102030000283028B42EA012202837047028B02F480
:102040007F420283028B0A430283704721B1828A56
:1020500042F02002828204E0828A4FF6DF731A4047
:102060008282704721B1828A42F01002828204E0AB
:10207000828A4FF6EF731A408282704721B1828ABA
:1020800042F00802828204E0828A4FF6F7731A4017
:102090008282704721B1828942F40042828103E04A
:1020A0008289C2F30E028281704721B1828A42F492
:1020B0000062828204E0828A4FF2FF731A408282B9
:1020C0007047828A4FF6FB731A408282828A0A43E3
:1020D0008282704721B1828A42F00202828204E049
:1020E000828A4FF6FD731A408282704702460020B2
:1020F000B1F5007F00D100BF13880B400BB1012068
:1021000000E00020704701F40072B2F5007F00D1BA
:1021100000BFCA430280704770B502460024002306
:102120000025002040F66A16B14200D100BFC1F37D
:10213000421501F01F03012606FA03F3012D02D117
:102140009689334006E0022D02D1168A334001E021
:10215000968A33400C12012606FA04F4168834409D
:1021600013B10CB1012000E0002070BD10B50022B9
:10217000002340F66A14A14200D100BF0A120124D4
:102180009440A3B2DC43048010BD0000003801403D
:102190000044004000480040004C00400050004017
:1021A000704700000FB4044910B503AA029800F06C
:1021B00009F810BC5DF814FB04000020704770475C
:1021C00070477047074B70B50D467B4400F011F81F
:1021D0000446284600F020F810B14FF0FF3070BDE3
:1021E000204670BD1BE1FFFF01694A1C02610878AF
:1021F000704700B58FB0CDE9013100210591054947
:102200007944CDE903101146684600F02EF80FB06E
:1022100000BD0000E5FFFFFF007B00F0800070477D
:10222000754600F03FF8AE4605006946534620F07B
:102230000700854618B020B5FEF7ACFEBDE820408B
:102240004FF000064FF000074FF000084FF0000B72
:1022500021F00701AC46ACE8C009ACE8C009ACE825
:10226000C009ACE8C0098D4670472DE9F04106462B
:102270000024D6E90170F5688046304603E0414607
:10228000B847641C3046A8470028F8D12046BDE86E
:10229000F08110B50446AFF300802046BDE8104041
:1022A000FDF76BBF0048704734000020CC220008C7
:1022B000000000203400000028010008002300086E
:1022C0003400002064080000440100080000000001
:1022D000000000000000000000A24A04000000000E
:1022E00000000000010203040607080900000000C6
:1022F0000102030401020304060708090204060898
:0400000508000F7D63
:00000001FF
